:100000000C942D010C9455010C9455010C94550140
:100010000C9455010C9455010C9455010C94550108
:100020000C9455010C9455010C948A060C941107FC
:100030000C9455010C9455010C9455010C945501E8
:100040000C9455010C9455010C9455010C945501D8
:100050000C9455010C9455010C9455010C945A08BC
:100060000C9455010C9455010C9455010C945501B8
:100070000C9455010C9455010C9455010C945501A8
:100080000C9455010C9455010C9455010C94550198
:100090000C9455010C9455010C9455010C94550188
:1000A0000C9455010C9455010C945501080B000259
:1000B0000202010009040000010202000005240000
:1000C0001001052401010104240206052406000193
:1000D0000705810310004009040100020A00000026
:1000E00007050202400000070583024000000403E8
:1000F00009042203410072006400750069006E006B
:100100006F0020004C0065006F006E0061007200FF
:1001100064006F00180341007200640075006900FC
:100120006E006F0020004C004C00430012010002E2
:10013000000000404123368000010102000112014D
:10014000000202000040412336800001010200014C
:1001500000C18081C105010902A1010901A1008539
:100160000105091901290315002501950375018170
:10017000029501750581030501093009310938151A
:1001800081257F750895038106C0C005010906A178
:10019000018502050719E029E7150025017501957C
:1001A00008810295017508810395067508150025DB
:1001B000650507190029658100C0090402000103D3
:1001C00000000009210101000122650007058403E8
:1001D00040000100000000000000002A2B28000061
:1001E000000000000000000000000000000000000F
:1001F0000000002C9EB4A0A1A2A434A6A7A5AE36F0
:100200002D3738271E1F20212223242526B333B65D
:100210002EB7B89F8485868788898A8B8C8D8E8F30
:10022000909192939495969798999A9B9C9D2F3133
:1002300030A3AD350405060708090A0B0C0D0E0F97
:10024000101112131415161718191A1B1C1DAFB113
:10025000B0B50000E403C6058B0911241FBECFEF23
:10026000DAE0DEBFCDBF11E0A0E0B1E0E8E3F5E108
:1002700002C005900D92A237B107D9F712E0A2E7AC
:10028000B1E001C01D92A936B107E1F712E0CAE55D
:10029000D2E004C02297FE010E94960AC435D1071D
:1002A000C9F70E94AF040C949A0A0C940000FB0159
:1002B000DC0101900D920020E1F7089588E280931F
:1002C00075018093B501109273018CE392E060E8B0
:1002D00075E20E9499030895EF92FF921F93DF93B6
:1002E000CF93CDB7DEB727970FB6F894DEBF0FBE1A
:1002F000CDBF182F7E010894E11CF11CC7016CE4EE
:1003000071E00E945701105D1C838CE392E0B701FD
:100310000E94100527960FB6F894DEBF0FBECDBF22
:10032000CF91DF911F91FF90EF9008950F931F934E
:1003300001E08CE392E00E949A03892B09F4A2C1A8
:100340008CE392E00E94C103982F882309F49AC19C
:10035000E091F501EF3354F4EF5FE093F501FF27EF
:10036000E7FDF095EB58FE4F808308C00093F50140
:100370008091B4018093750190937601309174015E
:1003800020913C0110E0223119F4B6C021E106C0F1
:10039000243109F4B7C0213109F0C5C0892F805339
:1003A0008A3018F414E030E022E1892F81528F3036
:1003B00018F48750823050F4892F8B55863030F0F6
:1003C0008F5D873018F08154843008F412E0892F53
:1003D00081548A3318F4123009F011E0923289F016
:1003E000933234F49D3079F1903209F09CC059C0B9
:1003F0009932D1F09F3709F45AC0983209F093C06E
:1004000004C015E430E024E17DC020933C018CE081
:1004100080933B0181E080937401809172018F5F32
:100420008093720113E083C03093740120933C01E8
:100430008091720187FD02C0815001C08FEF8093CF
:10044000720115E074C03093740120933C018CE379
:1004500092E06BE071E00E9410058CE392E060E1B5
:1004600071E00E94100510E008C0EB58FE4F8CE3CD
:1004700092E060810E94EC041F5FE12FF0E0809128
:10048000F501992787FD9095E817F90774F38FEF29
:100490008093F5018CE392E060E171E00E94100529
:1004A00004C020933C011092740116E040C03093C8
:1004B000740120933C019091F5019150E92FFF27A1
:1004C000E7FDF095EB58FE4FE081E83221F4809192
:1004D0007201815005C0E93229F4809172018F5F69
:1004E0008093720191509093F5018CE392E063E167
:1004F00071E00E9410051DCF892F80538A3008F0CB
:1005000045CF11C03093740120933C01153411F490
:1005100017E00DC0923259F481E180933C0183E0F1
:100520000E946C0188C03093740120933C01812F9C
:100530008150823068F48091F6018150823028F435
:100540008091740191E0892701C081E0809374015A
:100550001230E9F48091F6018130C9F48091740180
:100560008823A9F48CE392E06BE171E00E9410050E
:1005700082E00E946C01E091F501FF27E7FDF09514
:10058000EC58FE4F8CE392E060810E94EC04809175
:100590003C01813111F4163019F48EE080933B0157
:1005A000143021F115303CF41230C1F01330C4F492
:1005B000113079F507C0163031F11630DCF0173004
:1005C00041F516C08091F601823021F480917401CA
:1005D000882321F087E00E946C011BC082E0FBCFE2
:1005E00080917201181654F48770F5CF86E0F3CF2E
:1005F00083E0F1CF8091720187FF02C089E0EBCFE9
:1006000087708F5FE8CF8CE392E06BE071E00E942F
:10061000100580913B018C3019F08E3061F405C0DB
:100620008CE392E06FE171E004C08CE392E065E25C
:1006300071E00E94100580917401882329F08CE3F9
:1006400092E06BE271E004C08CE392E060E371E061
:100650000E941005E091F501FF27E7FDF095EB58AA
:10066000FE4F8CE392E060810E94EC041093F6014F
:1006700080917401882331F41150123018F48EE007
:1006800080933B011F910F910895809173018430F5
:10069000ACF58091F701882389F58CE392E00E9404
:1006A0009A03892B59F18CE392E00E94C1038823BD
:1006B00029F1873551F088352CF48132B1F080343E
:1006C000D9F405C08736C1F40AC081E005C0809125
:1006D0007301813089F482E0809373010FC08091AF
:1006E0007301823049F483E0F7CF80917301833046
:1006F00019F481E08093F701109273018091F70162
:100700008823B1F080917301882381F48CE392E017
:1007100067E471E00E9410058CE392E066E371E00B
:100720000E9410058CE08093730108950E94960149
:1007300008950895209138023091390280913A024B
:1007400090913B02281B390B2F733070C90108951B
:10075000209138023091390280913A0290913B0207
:100760002817390719F42FEF3FEF09C0E0913A023B
:10077000F0913B02E850FE4F8081282F30E0C90104
:100780000895209138023091390280913A02909177
:100790003B022817390719F42FEF3FEF13C0E09100
:1007A0003A02F0913B02E850FE4F208180913A02DC
:1007B00090913B0201968F73907090933B028093CF
:1007C0003A0230E0C901089510923F0210923E02B1
:1007D00088EE93E0A0E0B0E0809340029093410265
:1007E000A0934202B093430286E591E090933D02CC
:1007F00080933C0208950F931F93DF93CF930F9242
:10080000CDB7DEB78C01698380914401882369F0FC
:1008100083E0BE016F5F7F4F41E050E00E94E5053D
:100820001816190614F49C0107C081E090E0F80145
:100830009383828320E030E0C9010F90CF91DF9154
:100840001F910F91089583E00E94BC050895CF93F6
:10085000DF9312C082E00E9447052FEF8F3F92077F
:10086000C9F0E0913802F0913902E850FE4F8083E0
:10087000D0933902C0933802C0913802D091390226
:100880002196CF73D07080913A0290913B02C817A5
:10089000D90701F7DF91CF910895FC0180818E5F28
:1008A000808380E86CEA70E042E450E00E946005DA
:1008B0000895FC0181819081913A59F4813209F0C7
:1008C0004CC080E06DE371E047E050E00E946005BD
:1008D00042C0913209F041C0803239F48DE391E099
:1008E00067E070E00E94A40536C0823209F035C08E
:1008F00082818093440180913D0190913E01A091BD
:100900003F01B0914001805B9440A040B04019F598
:100910008091440180FD12C087E797E7909301081A
:10092000809300082BE088E190E00FB6F894A8953A
:10093000809360000FBE209360000DC088E10FB669
:10094000F89480936000109260000FBEA8951092FA
:1009500001081092000881E0089580E00895CF9387
:10096000DF930E94FB0882E592E00E94C7050E9487
:100970005E01C0E0D0E00E9445032097E1F30E94B1
:100980000000F9CFCF92DF92EF92FF920F931F9367
:10099000CF93DF937C016B018A01C0E0D0E00FC0F0
:1009A000D6016D916D01D701ED91FC910190F0811F
:1009B000E02DC7010995C80FD91F0150104001153E
:1009C000110571F7CE01DF91CF911F910F91FF902B
:1009D000EF90DF90CF900895DC01ED91FC910190B4
:1009E000F081E02D09950895CF93DF93EC01611517
:1009F000710519F420E030E00FC0DB010D900020FC
:100A0000E9F71197A61BB70BE881F9810280F38102
:100A1000E02DAD0109959C01C901DF91CF910895A9
:100A20000E94F4040895282F80914C028823C1F07D
:100A300057FF1AC015C0289890934B028091F1007F
:100A40008193E217F307B9F74115510539F0809109
:100A5000F200882319F48BE68093E800AFBF02C050
:100A60004FEF5FEFCA010895AFB7F8942770209356
:100A7000E9008091F200282F30E0241735070CF4AC
:100A8000A901FB019B01240F311D94E6DACFDF930E
:100A9000CF930F92CDB7DEB7BE016F5F7F4F41E0BE
:100AA00050E00E941305019719F02FEF3FEF03C0AC
:100AB0008981282F30E0C9010F90CF91DF910895EF
:100AC000FF920F931F93F82E142F052F40914F0282
:100AD00050915002212F302FC901DC01FB016EEF34
:100AE00029C0F7FE02C0949101C0908120914D026F
:100AF00030914E0224173507ACF48091E8008570E0
:100B0000E1F38091E80082FF03C02FEF3FEF17C0B1
:100B10009093F100C90101968F739070892B11F4A5
:100B20006093E8002F5F3F4F30934E0220934D02B9
:100B3000119731961097A9F6812F902F9C01C9012A
:100B40001F910F91FF9008959C018091E80082FF12
:100B5000FCCFF901260F311D03C08091F100819374
:100B6000E217F307D1F7289884E680934B028BEFC6
:100B70008093E800CB0108958093E9008091F20012
:100B8000882319F08AE38093E8000895089510926D
:100B90004C0281E08093D70080EA8093D80082E104
:100BA00089BD09B400FEFDCF61E070E080E090E017
:100BB0000E94A20880E98093D8008CE08093E20034
:100BC0001092E000559A209A08955F926F927F925A
:100BD0008F929F92AF92BF92CF92DF92EF92FF924D
:100BE0000F931F93CF93DF93E82E842E752E809161
:100BF0004C02882371F18B01242F352FC901EC01A0
:100C00007AEFF72E67E0962E9E2050E4552E8E2D1B
:100C100090E040E2A42EB12CA822B9223AE3632E40
:100C200020E4C22ED12CC822D92258C09FB7F894F4
:100C30009092E9008091E80085FD02C020E004C0A8
:100C40008091F200252D281B9FBF222361F4FA9486
:100C500019F42FEF3FEF4DC061E070E080E090E0CD
:100C60000E94A2083BC0822F90E0C817D9070CF45D
:100C70002C2FC21BD1094FB7F8949092E900A11410
:100C8000B10421F406C01092F10021502223D9F7BB
:100C900019C0E7FC03C0F801922F10C0C801322F21
:100CA00006C0FC010196E491E093F100315033233A
:100CB000C1F706C081918093F10091509923D1F73B
:100CC000020F111D8091E80085FF05C0209729F4CF
:100CD000C114D10411F06092E8004FBF209709F0D1
:100CE000A5CF5D9884E680934A02282D372DC9014F
:100CF0009C01C901DF91CF911F910F91FF90EF905F
:100D0000DF90CF90BF90AF909F908F907F906F902B
:100D10005F9008951F920F920FB60F9211242F9398
:100D20003F934F935F936F937F938F939F93AF9373
:100D3000BF93EF93FF938091E1001092E100982F11
:100D400083FF0FC01092E90081E08093EB001092C6
:100D5000EC0082E38093ED0010924C0288E08093D7
:100D6000F00092FF34C083E08093E9008091F200AC
:100D7000882319F08AE38093E8008FB7F89492E013
:100D80009093E9009091F2008FBF992321F08CE3BA
:100D900092E00E94270480914A02882351F08091BA
:100DA0004A02815080934A0280914A02882309F4C2
:100DB0005D9A80914B02882351F080914B028150C3
:100DC00080934B0280914B02882309F4289AFF916B
:100DD000EF91BF91AF919F918F917F916F915F91B3
:100DE0004F913F912F910F900FBE0F901F9018952C
:100DF0000F931F93DF93CF930F92CDB7DEB7198276
:100E00008E010F5F1F4FC8010E944D04C8010E9450
:100E1000880A898190E00F90CF91DF911F910F9107
:100E200008951F920F920FB60F921124EF92FF9226
:100E30001F932F933F934F935F936F937F938F9362
:100E40009F93AF93BF93EF93FF93DF93CF93CDB770
:100E5000DEB76197DEBFCDBF1092E9008091E80058
:100E600083FF0FC1FE0131969E01275F3F4F03C0F4
:100E70008091F1008193E217F307D1F7289884E677
:100E800080934B0282EF8093E800998197FF05C021
:100E90008091E80080FFFCCF03C08EEF8093E800D4
:100EA000292F30E0C90180769070892B09F0C2C0EB
:100EB0008A81882329F41092F1001092F100D6C0A3
:100EC000813009F4D3C0833009F4D0C0853049F4AF
:100ED0008091E80080FFFCCF8B8180688093E300E5
:100EE000C5C0863009F07CC01C81EF80F8841230C8
:100EF000C1F51092E90010924E0210924D0210922C
:100F0000500210924F020E94F80699E0FE013996B5
:100F1000DF01292F1D922A95E9F799871A8791E019
:100F20009E8790E8988B9AEF998B20914D02309193
:100F30004E02275F3F4F3C872B878D871092E90039
:100F400010924E0210924D02F0925002E0924F0227
:100F500080E0BF0149E050E00E9460050E94F80671
:100F600085C01092E90010924E0210924D02F0924C
:100F70005002E0924F02123241F482E290E00E946D
:100F8000800A892B09F476C071C0113079F488E0A9
:100F9000E816F10419F481E0809351028091510226
:100FA000882309F06BC0ECE2F1E013C0133009F0C4
:100FB00061C08B81882319F4EEEEF0E00AC0823024
:100FC00019F4E2EFF0E005C0813009F053C0E4E12C
:100FD000F1E0449180E8BF0150E00E94600546C006
:100FE000873009F447C0883021F481E08093F10014
:100FF0003DC08930D9F523703070232BD9F5E1E558
:10100000F1E091E031E026E39093E9003093EB00CA
:1010100084918093EC002093ED009F5F3196953092
:1010200099F78EE78093EA001092EA008B81809313
:101030004C021CC08F8198851092E90010924E02DC
:1010400010924D029093500280934F028D8188231D
:1010500029F4CE0101960E94590406C0823051F451
:10106000CE0101960E945109882321F08EEF8093D2
:10107000E80007C081E28093EB0003C0EEE3F1E0FB
:10108000A8CF6196DEBFCDBFCF91DF91FF91EF91E9
:10109000BF91AF919F918F917F916F915F914F9190
:1010A0003F912F911F91FF90EF900F900FBE0F90E7
:1010B0001F9018951F920F920FB60F9211242F9325
:1010C0003F938F939F93AF93BF93809157029091DB
:1010D0005802A0915902B0915A0230915B020196D8
:1010E000A11DB11D232F2D5F2D3720F02D57019607
:1010F000A11DB11D20935B0280935702909358026B
:10110000A0935902B0935A028091530290915402D5
:10111000A0915502B09156020196A11DB11D809378
:10112000530290935402A0935502B0935602BF917C
:10113000AF919F918F913F912F910F900FBE0F9084
:101140001F9018959B01AC017FB7F89480915302D2
:1011500090915402A0915502B091560266B5A89B99
:1011600005C06F3F19F00196A11DB11D7FBFBA2FB9
:10117000A92F982F8827860F911DA11DB11D62E010
:10118000880F991FAA1FBB1F6A95D1F7BC012DC0FC
:10119000FFB7F8948091530290915402A0915502A8
:1011A000B0915602E6B5A89B05C0EF3F19F0019635
:1011B000A11DB11DFFBFBA2FA92F982F88278E0F11
:1011C000911DA11DB11DE2E0880F991FAA1FBB1F31
:1011D000EA95D1F7861B970B885E9340C8F22150A1
:1011E00030404040504068517C4F21153105410549
:1011F000510571F60895789484B5826084BD84B5F4
:10120000816084BD85B5826085BD85B5816085BD01
:10121000EEE6F0E0808181608083E1E8F0E010821A
:10122000808182608083808181608083E0E8F0E05B
:10123000808181608083E1E9F0E080818260808349
:10124000808181608083E0E9F0E08081816080833B
:10125000E1ECF0E080818460808380818260808323
:10126000808181608083E3ECF0E080818160808315
:10127000E0ECF0E0808182608083E2ECF0E080814D
:1012800081608083EAE7F0E08081846080838081F0
:101290008260808380818160808380818068808398
:1012A0000895FC0191818081813A31F4913089F077
:1012B00080E0933089F40DC0813269F49B3021F4D1
:1012C00082818093450105C09A3029F48281809300
:1012D000460181E0089580E00895EF92FF920F9318
:1012E0001F938C01E62EDC01ED91FC910480F581C9
:1012F000E02D0995F82ED801ED91FC910680F7813B
:10130000E02DC8016E2D09958F2D90E01F910F9152
:10131000FF90EF90089510925C021092600210927C
:101320005F0288E691E090935E0280935D020895EB
:10133000EF92FF920F931F93DF93CF930F92CDB74E
:10134000DEB789838B017A0184E0BE016F5F7F4F36
:1013500041E050E00E94E50584E4B801A7010E9445
:10136000E5050F90CF91DF911F910F91FF90EF90C6
:10137000089582E048E050E00E9498090895FC0139
:10138000168217821086118612861386148234966E
:10139000BF010E94B9090895DC01683810F068584F
:1013A00029C0E62FF0E067FF13C0E058F04081E06D
:1013B00090E002C0880F991FEA95E2F78095149695
:1013C0002C911497282314962C93149760E012C044
:1013D000ED52FE4F6491662319F420E030E01DC009
:1013E00067FF08C014968C9114978D7F14968C9388
:1013F00014976F77FD0190E0662321F086818617B0
:1014000009F416829F5F31969630B1F7CD0114969C
:10141000BD010E94B90921E030E0C9010895CF93D0
:10142000DF93DC01683810F0685825C0E62FF0E043
:1014300067FF12C0E058F04081E090E002C0880FE2
:10144000991FEA95E2F714962C911497282B14967D
:101450002C93149760E00FC0ED52FE4F6491662309
:10146000D9F167FF08C014968C9114978260149686
:101470008C9314976F7716968C9116978617A9F10F
:1014800017968C911797861781F118968C9118975B
:10149000861759F119968C911997861731F11A967A
:1014A0008C911A97861709F11B968C911B978617BA
:1014B000E1F0ED01E0E0F0E09E2F8E81882321F441
:1014C000EA0FFB1F668306C09F5F31962196E630C8
:1014D000F10591F7963049F481E090E013969C93E2
:1014E0008E93129720E030E007C0CD011496BD0125
:1014F0000E94B90921E030E0C901DF91CF91089540
:1015000080E865E571E045E650E00E9460050895D9
:10151000FC0180818F5F808380E86AEB71E049E1A4
:1015200050E00E9460050895EE0FFF1F0590F491B2
:08153000E02D0994F894FFCFAF
:101538001B5B41001B5B441B5B42001B5B306D0067
:101548000D0A001B5B44201B5B44001B5B44001B13
:101558005B34306D001B5B34396D001B5B346D00F0
:101568001B5B32346D000D0A0A28000C1100E100E3
:101578000000000000010140726B21001B5B33304A
:101588006D0000000000FB03C2049A03C103A80316
:1015980023042704000000006D09C2040F0ACC09C7
:0215A800BF0979
:00000001FF
