:100000000C942D010C9455010C9455010C94550140
:100010000C9455010C9455010C9455010C94550108
:100020000C9455010C9455010C941F060C94A606D3
:100030000C9455010C9455010C9455010C945501E8
:100040000C9455010C9455010C9455010C945501D8
:100050000C9455010C9455010C9455010C94EF0728
:100060000C9455010C9455010C9455010C945501B8
:100070000C9455010C9455010C9455010C945501A8
:100080000C9455010C9455010C9455010C94550198
:100090000C9455010C9455010C9455010C94550188
:1000A0000C9455010C9455010C945501080B000259
:1000B0000202010009040000010202000005240000
:1000C0001001052401010104240206052406000193
:1000D0000705810310004009040100020A00000026
:1000E00007050202400000070583024000000403E8
:1000F00009042203410072006400750069006E006B
:100100006F0020004C0065006F006E0061007200FF
:1001100064006F00180341007200640075006900FC
:100120006E006F0020004C004C00430012010002E2
:10013000000000404123368000010102000112014D
:10014000000202000040412336800001010200014C
:1001500000C18081C105010902A1010901A1008539
:100160000105091901290315002501950375018170
:10017000029501750581030501093009310938151A
:1001800081257F750895038106C0C005010906A178
:10019000018502050719E029E7150025017501957C
:1001A00008810295017508810395067508150025DB
:1001B000650507190029658100C0090402000103D3
:1001C00000000009210101000122650007058403E8
:1001D00040000100000000000000002A2B28000061
:1001E000000000000000000000000000000000000F
:1001F0000000002C9EB4A0A1A2A434A6A7A5AE36F0
:100200002D3738271E1F20212223242526B333B65D
:100210002EB7B89F8485868788898A8B8C8D8E8F30
:10022000909192939495969798999A9B9C9D2F3133
:1002300030A3AD350405060708090A0B0C0D0E0F97
:10024000101112131415161718191A1B1C1DAFB113
:10025000B0B5000079035B05200911241FBECFEF64
:10026000DAE0DEBFCDBF11E0A0E0B1E0E4E9F4E107
:1002700002C005900D92A435B107D9F712E0A4E5AC
:10028000B1E001C01D92AE34B107E1F712E0CAE55A
:10029000D2E004C02297FE010E94440AC435D1076F
:1002A000C9F70E9444040C94480A0C940000FB0116
:1002B000DC0101900D920020E1F7089588E280931F
:1002C0005A0180939A011092550181E292E060E810
:1002D00075E20E942E030895EF92FF921F93DF9321
:1002E000CF93CDB7DEB727970FB6F894DEBF0FBE1A
:1002F000CDBF182F7E010894E11CF11CC7016EE2EE
:1003000071E00E945701105D1C8381E292E0B70109
:100310000E94A50427960FB6F894DEBF0FBECDBF8E
:10032000CF91DF911F91FF90EF900895CF92DF92D0
:10033000EF92FF920F931F9301E034E0C32E22E16E
:10034000D22E92E0E92E81E1F82E81E292E00E9425
:100350002F03892B09F427C181E292E00E94560302
:10036000982F882309F41FC1E091DA01EF3354F488
:10037000EF5FE093DA01FF27E7FDF095E65AFE4FC5
:10038000808308C00093DA018091990180935A011B
:1003900090935B01892F80538A3010F010E007C0E2
:1003A000C0925601D09258011092590112E1892F42
:1003B00081528F3018F48750823050F4892F8B553A
:1003C000863030F08F5D873018F08154843070F4BF
:1003D000E0925601F092580180915901882319F05A
:1003E0001092590102C00093590112E0892F8154E3
:1003F0008A3380F4123071F000935601F092580164
:1004000080915901882319F01092590102C000937C
:10041000590111E0983261F0993224F49D3009F0CD
:1004200071C024C0993289F09F3709F06BC049C070
:1004300083E0809356018CE08093570180915401B2
:100440008F5F8093540113E05DC085E08093560177
:1004500081E1809358018091540187FD02C0815051
:1004600001C08FEF8093540115E04CC086E080936B
:10047000560181E18093580181E292E060E071E0F1
:100480000E94A50410E008C0E65AFE4F81E292E007
:1004900060810E9481041F5FE12FF0E08091DA010A
:1004A000992787FD9095E817F90774F38FEF8093EC
:1004B000DA0181E292E060E071E00E94A50416E0BA
:1004C00021C09091DA019150E92FFF27E7FDF095C7
:1004D000E65AFE4FE081E83221F4809154018150C8
:1004E00005C0E93229F4809154018F5F8093540153
:1004F00091509093DA0181E292E063E071E00E9412
:10050000A50423CF80915601833091F084302CF4E0
:100510008130D9F0823021F507C0853091F08530E7
:1005200074F08630E9F416C082E00E946C0118C0B5
:100530008091540168E00E94290A892FF6CF86E055
:10054000F4CF8091540187FF02C089E0EECF87701D
:100550008F5FEBCF81E292E06BE071E00E94A50437
:10056000812F8150823010F01092590180915901F1
:10057000882329F081E292E060E171E004C081E229
:1005800092E065E171E00E94A5041093DB01E09127
:10059000DA01FF27E7FDF095E65AFE4F81E292E08F
:1005A00060810E9481041F910F91FF90EF90DF9076
:1005B000CF900895809155018430ACF58091DC0195
:1005C000882389F581E292E00E942F03892B59F15B
:1005D00081E292E00E945603882329F1873551F089
:1005E00088352CF48132B1F08034D9F405C08736D7
:1005F000C1F40AC081E005C080915501813089F4C1
:1006000082E0809355010FC080915501823049F4FA
:1006100083E0F7CF80915501833019F481E0809316
:10062000DC01109255018091DC018823B1F08091AA
:100630005501882381F481E292E069E271E00E9431
:10064000A50481E292E06BE171E00E94A5048CE0D8
:100650008093550108950E94960108950895209170
:100660001D0230911E0280911F0290912002281BD2
:10067000390B2F733070C901089520911D023091FC
:100680001E0280911F02909120022817390719F449
:100690002FEF3FEF09C0E0911F02F0912002E352DB
:1006A000FE4F8081282F30E0C901089520911D025E
:1006B00030911E0280911F02909120022817390765
:1006C00019F42FEF3FEF13C0E0911F02F0912002C9
:1006D000E352FE4F208180911F02909120020196EB
:1006E0008F7390709093200280931F0230E0C901B5
:1006F0000895109224021092230288EE93E0A0E065
:10070000B0E08093250290932602A0932702B09335
:10071000280288E391E090932202809321020895B9
:100720000F931F93DF93CF930F92CDB7DEB78C015A
:10073000698380912601882369F083E0BE016F5FA1
:100740007F4F41E050E00E947A051816190614F414
:100750009C0107C081E090E0F8019383828320E050
:1007600030E0C9010F90CF91DF911F910F91089553
:1007700083E00E9451050895CF93DF9312C082E079
:100780000E94DC042FEF8F3F9207C9F0E0911D0219
:10079000F0911E02E352FE4F8083D0931E02C0935D
:1007A0001D02C0911D02D0911E022196CF73D07000
:1007B00080911F0290912002C817D90701F7DF919D
:1007C000CF910895FC0180818E5F808380E86CEA80
:1007D00070E042E450E00E94F5040895FC0181813C
:1007E0009081913A59F4813209F04CC080E06FE178
:1007F00071E047E050E00E94F50442C0913209F0F8
:1008000041C0803239F48FE191E067E070E00E94EE
:10081000390536C0823209F035C0828180932601C5
:1008200080911F0190912001A0912101B09122019E
:10083000805B9440A040B04019F58091260180FD76
:1008400012C087E797E790930108809300082BE098
:1008500088E190E00FB6F894A895809360000FBEF1
:10086000209360000DC088E10FB6F894809360007B
:10087000109260000FBEA895109201081092000817
:1008800081E0089580E00895CF93DF930E9490085F
:1008900087E392E00E945C050E945E01C0E0D0E028
:1008A0000E94DA022097E1F30E940000F9CFCF9274
:1008B000DF92EF92FF920F931F93CF93DF937C0110
:1008C0006B018A01C0E0D0E00FC0D6016D916D01CF
:1008D000D701ED91FC910190F081E02DC7010995C0
:1008E000C80FD91F015010400115110571F7CE0135
:1008F000DF91CF911F910F91FF90EF90DF90CF90FC
:100900000895DC01ED91FC910190F081E02D0995B5
:100910000895CF93DF93EC016115710519F420E080
:1009200030E00FC0DB010D900020E9F71197A61B06
:10093000B70BE881F9810280F381E02DAD010995C3
:100940009C01C901DF91CF9108950E948904089507
:10095000282F809131028823C1F057FF1AC015C09B
:100960002898909330028091F1008193E217F30769
:10097000B9F74115510539F08091F200882319F437
:100980008BE68093E800AFBF02C04FEF5FEFCA0174
:100990000895AFB7F89427702093E9008091F20092
:1009A000282F30E0241735070CF4A901FB019B0127
:1009B000240F311D94E6DACFDF93CF930F92CDB79A
:1009C000DEB7BE016F5F7F4F41E050E00E94A80498
:1009D000019719F02FEF3FEF03C08981282F30E0F6
:1009E000C9010F90CF91DF910895FF920F931F934C
:1009F000F82E142F052F4091340250913502212FEB
:100A0000302FC901DC01FB016EEF29C0F7FE02C0E7
:100A1000949101C0908120913202309133022417C9
:100A20003507ACF48091E8008570E1F38091E8002F
:100A300082FF03C02FEF3FEF17C09093F100C90171
:100A400001968F739070892B11F46093E8002F5FEB
:100A50003F4F309333022093320211973196109713
:100A6000A9F6812F902F9C01C9011F910F91FF9032
:100A700008959C018091E80082FFFCCFF901260FC8
:100A8000311D03C08091F1008193E217F307D1F784
:100A9000289884E6809330028BEF8093E800CB01A6
:100AA00008958093E9008091F200882319F08AE389
:100AB0008093E800089508951092310281E08093B8
:100AC000D70080EA8093D80082E189BD09B400FE96
:100AD000FDCF61E070E080E090E00E94370880E99F
:100AE0008093D8008CE08093E2001092E000559A49
:100AF000209A08955F926F927F928F929F92AF9209
:100B0000BF92CF92DF92EF92FF920F931F93CF93FA
:100B1000DF93E82E842E752E80913102882371F1A7
:100B20008B01242F352FC901EC017AEFF72E67E0F6
:100B3000962E9E2050E4552E8E2D90E040E2A42E5D
:100B4000B12CA822B9223AE3632E20E4C22ED12C84
:100B5000C822D92258C09FB7F8949092E90080919A
:100B6000E80085FD02C020E004C08091F200252D40
:100B7000281B9FBF222361F4FA9419F42FEF3FEF53
:100B80004DC061E070E080E090E00E9437083BC01B
:100B9000822F90E0C817D9070CF42C2FC21BD10963
:100BA0004FB7F8949092E900A114B10421F406C063
:100BB0001092F10021502223D9F719C0E7FC03C09D
:100BC000F801922F10C0C801322F06C0FC01019617
:100BD000E491E093F10031503323C1F706C08191D5
:100BE0008093F10091509923D1F7020F111D80914C
:100BF000E80085FF05C0209729F4C114D10411F045
:100C00006092E8004FBF209709F0A5CF5D9884E679
:100C100080932F02282D372DC9019C01C901DF9136
:100C2000CF911F910F91FF90EF90DF90CF90BF90E9
:100C3000AF909F908F907F906F905F9008951F92DC
:100C40000F920FB60F9211242F933F934F935F9300
:100C50006F937F938F939F93AF93BF93EF93FF9384
:100C60008091E1001092E100982F83FF0FC0109255
:100C7000E90081E08093EB001092EC0082E3809326
:100C8000ED001092310288E08093F00092FF34C0B2
:100C900083E08093E9008091F200882319F08AE3D1
:100CA0008093E8008FB7F89492E09093E9009091D8
:100CB000F2008FBF992321F081E292E00E94BC03F1
:100CC00080912F02882351F080912F0281508093D0
:100CD0002F0280912F02882309F45D9A80913002BF
:100CE000882351F0809130028150809330028091AE
:100CF0003002882309F4289AFF91EF91BF91AF91B8
:100D00009F918F917F916F915F914F913F912F9123
:100D10000F900FBE0F901F9018950F931F93DF93A6
:100D2000CF930F92CDB7DEB719828E010F5F1F4FA1
:100D3000C8010E94E203C8010E941D0A898190E057
:100D40000F90CF91DF911F910F9108951F920F92F5
:100D50000FB60F921124EF92FF921F932F933F93A0
:100D60004F935F936F937F938F939F93AF93BF93B3
:100D7000EF93FF93DF93CF93CDB7DEB76197DEBFDD
:100D8000CDBF1092E9008091E80083FF0FC1FE0102
:100D900031969E01275F3F4F03C08091F100819300
:100DA000E217F307D1F7289884E68093300282EFA8
:100DB0008093E800998197FF05C08091E80080FF4B
:100DC000FCCF03C08EEF8093E800292F30E0C901EB
:100DD00080769070892B09F0C2C08A81882329F41B
:100DE0001092F1001092F100D6C0813009F4D3C006
:100DF000833009F4D0C0853049F48091E80080FF49
:100E0000FCCF8B8180688093E300C5C0863009F0F9
:100E10007CC01C81EF80F8841230C1F51092E9008B
:100E20001092330210923202109235021092340264
:100E30000E948D0699E0FE013996DF01292F1D924F
:100E40002A95E9F799871A8791E09E8790E8988B11
:100E50009AEF998B2091320230913302275F3F4FF6
:100E60003C872B878D871092E900109233021092F5
:100E70003202F0923502E092340280E0BF0149E094
:100E800050E00E94F5040E948D0685C01092E90092
:100E90001092330210923202F0923502E092340244
:100EA000123241F482E290E00E94150A892B09F483
:100EB00076C071C0113079F488E0E816F10419F4B5
:100EC00081E08093360280913602882309F06BC05E
:100ED000ECE2F1E013C0133009F061C08B8188238C
:100EE00019F4EEEEF0E00AC0823019F4E2EFF0E01F
:100EF00005C0813009F053C0E4E1F1E0449180E89D
:100F0000BF0150E00E94F50446C0873009F447C095
:100F1000883021F481E08093F1003DC08930D9F51B
:100F200023703070232BD9F5E1E5F1E091E031E059
:100F300026E39093E9003093EB0084918093EC00DA
:100F40002093ED009F5F3196953099F78EE780935F
:100F5000EA001092EA008B81809331021CC08F81DD
:100F600098851092E9001092330210923202909309
:100F70003502809334028D81882329F4CE010196B5
:100F80000E94EE0306C0823051F4CE0101960E9409
:100F9000E608882321F08EEF8093E80007C081E205
:100FA0008093EB0003C0EEE3F1E0A8CF6196DEBFD3
:100FB000CDBFCF91DF91FF91EF91BF91AF919F9105
:100FC0008F917F916F915F914F913F912F911F91E1
:100FD000FF90EF900F900FBE0F901F9018951F92EB
:100FE0000F920FB60F9211242F933F938F939F93DD
:100FF000AF93BF9380913C0290913D02A0913E023D
:10100000B0913F02309140020196A11DB11D232FE6
:101010002D5F2D3720F02D570196A11DB11D209376
:10102000400280933C0290933D02A0933E02B09315
:101030003F028091380290913902A0913A02B0911A
:101040003B020196A11DB11D809338029093390295
:10105000A0933A02B0933B02BF91AF919F918F91C1
:101060003F912F910F900FBE0F901F9018959B01ED
:10107000AC017FB7F8948091380290913902A09129
:101080003A02B0913B0266B5A89B05C06F3F19F0CC
:101090000196A11DB11D7FBFBA2FA92F982F8827B8
:1010A000860F911DA11DB11D62E0880F991FAA1F17
:1010B000BB1F6A95D1F7BC012DC0FFB7F894809192
:1010C000380290913902A0913A02B0913B02E6B504
:1010D000A89B05C0EF3F19F00196A11DB11DFFBFF0
:1010E000BA2FA92F982F88278E0F911DA11DB11DF2
:1010F000E2E0880F991FAA1FBB1FEA95D1F7861B54
:10110000970B885E9340C8F22150304040405040D9
:1011100068517C4F211531054105510571F608953F
:10112000789484B5826084BD84B5816084BD85B5C2
:10113000826085BD85B5816085BDEEE6F0E0808189
:1011400081608083E1E8F0E01082808182608083AA
:10115000808181608083E0E8F0E08081816080832D
:10116000E1E9F0E08081826080838081816080831A
:10117000E0E9F0E0808181608083E1ECF0E0808153
:1011800084608083808182608083808181608083AD
:10119000E3ECF0E0808181608083E0ECF0E080812E
:1011A00082608083E2ECF0E0808181608083EAE706
:1011B000F0E0808184608083808182608083808190
:1011C000816080838081806880830895FC019181A3
:1011D0008081813A31F4913089F080E0933089F454
:1011E0000DC0813269F49B3021F482818093270104
:1011F00005C09A3029F482818093280181E0089506
:1012000080E00895EF92FF920F931F938C01E62EDA
:10121000DC01ED91FC910480F581E02D0995F82E1B
:10122000D801ED91FC910680F781E02DC8016E2D6B
:1012300009958F2D90E01F910F91FF90EF900895E9
:101240001092410210924502109244028AE491E009
:1012500090934302809342020895EF92FF920F937E
:101260001F93DF93CF930F92CDB7DEB789838B01A6
:101270007A0184E0BE016F5F7F4F41E050E00E9441
:101280007A0584E4B801A7010E947A050F90CF91F6
:10129000DF911F910F91FF90EF90089582E048E059
:1012A00050E00E942D090895FC01168217821086D5
:1012B00011861286138614823496BF010E944E094D
:1012C0000895DC01683810F0685829C0E62FF0E076
:1012D00067FF13C0E058F04081E090E002C0880F43
:1012E000991FEA95E2F7809514962C91149728237C
:1012F00014962C93149760E012C0ED52FE4F649147
:10130000662319F420E030E01DC067FF08C0149682
:101310008C9114978D7F14968C9314976F77FD01A1
:1013200090E0662321F08681861709F416829F5F7C
:1013300031969630B1F7CD011496BD010E944E0949
:1013400021E030E0C9010895CF93DF93DC016838D4
:1013500010F0685825C0E62FF0E067FF12C0E05893
:10136000F04081E090E002C0880F991FEA95E2F713
:1013700014962C911497282B14962C93149760E0B4
:101380000FC0ED52FE4F64916623D9F167FF08C08C
:1013900014968C911497826014968C9314976F779F
:1013A00016968C9116978617A9F117968C91179718
:1013B000861781F118968C911897861759F119960E
:1013C0008C911997861731F11A968C911A97861776
:1013D00009F11B968C911B978617E1F0ED01E0E077
:1013E000F0E09E2F8E81882321F4EA0FFB1F668395
:1013F00006C09F5F31962196E630F10591F7963051
:1014000049F481E090E013969C938E93129720E02C
:1014100030E007C0CD011496BD010E944E0921E0C5
:1014200030E0C901DF91CF91089580E865E571E072
:1014300045E650E00E94F5040895FC0180818F5F2D
:10144000808380E86AEB71E049E150E00E94F50496
:10145000089587FB082E062687FD819567FD619517
:1014600005D00EF4919507FC81950895991B79E0BC
:1014700004C0991F961708F0961B881F7A95C9F724
:1014800080950895EE0FFF1F0590F491E02D0994CB
:04149000F894FFCFFE
:101494000D0A001B5B44201B5B44001B5B306D008A
:1014A4001B5B346D001B5B32346D000D0A28000099
:1014B400E1000000000000010140726B21001B5B91
:1014C40033306D0000000000900357042F035603CF
:1014D4003D03B803BC030000000002095704A4093B
:0414E400610954093D
:00000001FF
