:100000000C942D010C9455010C9455010C94550140
:100010000C9455010C9455010C9455010C94550108
:100020000C9455010C9455010C9445060C94CC0687
:100030000C9455010C9455010C9455010C945501E8
:100040000C9455010C9455010C9455010C945501D8
:100050000C9455010C9455010C9455010C94150801
:100060000C9455010C9455010C9455010C945501B8
:100070000C9455010C9455010C9455010C945501A8
:100080000C9455010C9455010C9455010C94550198
:100090000C9455010C9455010C9455010C94550188
:1000A0000C9455010C9455010C945501080B000259
:1000B0000202010009040000010202000005240000
:1000C0001001052401010104240206052406000193
:1000D0000705810310004009040100020A00000026
:1000E00007050202400000070583024000000403E8
:1000F00009042203410072006400750069006E006B
:100100006F0020004C0065006F006E0061007200FF
:1001100064006F00180341007200640075006900FC
:100120006E006F0020004C004C00430012010002E2
:10013000000000404123368000010102000112014D
:10014000000202000040412336800001010200014C
:1001500000C18081C105010902A1010901A1008539
:100160000105091901290315002501950375018170
:10017000029501750581030501093009310938151A
:1001800081257F750895038106C0C005010906A178
:10019000018502050719E029E7150025017501957C
:1001A00008810295017508810395067508150025DB
:1001B000650507190029658100C0090402000103D3
:1001C00000000009210101000122650007058403E8
:1001D00040000100000000000000002A2B28000061
:1001E000000000000000000000000000000000000F
:1001F0000000002C9EB4A0A1A2A434A6A7A5AE36F0
:100200002D3738271E1F20212223242526B333B65D
:100210002EB7B89F8485868788898A8B8C8D8E8F30
:10022000909192939495969798999A9B9C9D2F3133
:1002300030A3AD350405060708090A0B0C0D0E0F97
:10024000101112131415161718191A1B1C1DAFB113
:10025000B0B500009F038105460911241FBECFEFF2
:10026000DAE0DEBFCDBF11E0A0E0B1E0EEEAF4E1FC
:1002700002C005900D92A437B107D9F712E0A4E7A8
:10028000B1E001C01D92AB36B107E1F712E0CAE55B
:10029000D2E004C02297FE010E94510AC435D10762
:1002A000C9F70E946A040C94550A0C940000FB01E3
:1002B000DC0101900D920020E1F7089588E280931F
:1002C00077018093B701109275018EE392E060E8A8
:1002D00075E20E9454030895EF92FF921F93DF93FB
:1002E000CF93CDB7DEB727970FB6F894DEBF0FBE1A
:1002F000CDBF182F7E010894E11CF11CC7016DE4ED
:1003000071E00E945701105D1C838EE392E0B701FB
:100310000E94CB0427960FB6F894DEBF0FBECDBF68
:10032000CF91DF911F91FF90EF9008950F931F934E
:1003300001E08EE392E00E945503892B09F45DC130
:100340008EE392E00E947C03982F882309F455C124
:10035000E091F701EF3354F4EF5FE093F701FF27EB
:10036000E7FDF095E958FE4F808308C00093F70140
:100370008091B60180937701909378013091760156
:1003800020913D01223119F4B2C021E106C024318F
:1003900009F4B8C0213109F0AFC0892F80538A30E9
:1003A00010F010E003C014E030E022E1892F815208
:1003B0008F3018F48750823050F4892F8B55863057
:1003C00030F08F5D873018F08154843008F412E0EB
:1003D000892F81548A3318F4123009F011E09832D1
:1003E000A1F099322CF49D3071F1923249F405C09C
:1003F0009932D1F09F3721F455C030E024E182C01A
:100400003093760120933D0182C020933D018CE022
:1004100080933C0181E080937601809174018F5F2D
:100420008093740113E073C03093760120933D01F3
:100430008091740187FD02C0815001C08FEF8093CD
:10044000740115E064C03093760120933D018EE382
:1004500092E06BE071E00E94CB048EE392E060E1F9
:1004600071E00E94CB0410E008C0E958FE4F8EE313
:1004700092E060810E94A7041F5FE12FF0E080916D
:10048000F701992787FD9095E817F90774F38FEF27
:100490008093F7018EE392E063E171E00E94CB0468
:1004A00016E035C03093760120933D019091F7011D
:1004B0009150E92FFF27E7FDF095E958FE4FE081C5
:1004C000E83221F480917401815005C0E93229F4A9
:1004D000809174018F5F8093740191509093F70124
:1004E0008EE392E068E171E00E94CB0422CF892F75
:1004F00080538A3008F049CF3093760120933D0134
:1005000010E005C03093760120933D0117E0809103
:100510003D01813179F4812F8150823070F48091D6
:100520007601882319F01092760107C081E080934C
:10053000760103C08EE080933C011430F1F0153059
:100540003CF4123071F0133074F4113039F507C0F7
:100550001630F1F01630ACF0173001F510C087E01E
:1005600007C082E005C080917401181624F089E06C
:100570000E946C0113C08770FBCF86E0F9CF83E047
:10058000F7CF8091740187FDF2CF87708F5FF0CF36
:100590008EE392E06BE071E00E94CB0480913C011D
:1005A0008C3019F08E3061F405C08EE392E060E289
:1005B00071E004C08EE392E066E271E00E94CB0439
:1005C00080917601882329F08EE392E06CE271E05D
:1005D00004C08EE392E061E371E00E94CB041093CB
:1005E000F801E091F701FF27E7FDF095E958FE4F8C
:1005F0008EE392E060810E94A7041F910F910895FD
:10060000809175018430ACF58091F901882389F5DA
:100610008EE392E00E945503892B59F18EE392E01C
:100620000E947C03882329F1873551F088352CF40A
:100630008132B1F08034D9F405C08736C1F40AC0E4
:1006400081E005C080917501813089F482E080935A
:1006500075010FC080917501823049F483E0F7CFB6
:1006600080917501833019F481E08093F901109233
:1006700075018091F9018823B1F08091750188237B
:1006800081F48EE392E068E471E00E94CB048EE393
:1006900092E067E371E00E94CB048CE080937501E7
:1006A00008950E9496010895089520913A0230918C
:1006B0003B0280913C0290913D02281B390B2F7325
:1006C0003070C901089520913A0230913B02809127
:1006D0003C0290913D022817390719F42FEF3FEFA4
:1006E00009C0E0913C02F0913D02E650FE4F80814E
:1006F000282F30E0C901089520913A0230913B0241
:1007000080913C0290913D022817390719F42FEF90
:100710003FEF13C0E0913C02F0913D02E650FE4FE6
:10072000208180913C0290913D0201968F739070E0
:1007300090933D0280933C0230E0C90108951092ED
:1007400041021092400288EE93E0A0E0B0E0809376
:10075000420290934302A0934402B093450287E57E
:1007600091E090933F0280933E0208950F931F9370
:10077000DF93CF930F92CDB7DEB78C016983809161
:100780004501882369F083E0BE016F5F7F4F41E040
:1007900050E00E94A0051816190614F49C0107C029
:1007A00081E090E0F8019383828320E030E0C9018A
:1007B0000F90CF91DF911F910F91089583E00E94D8
:1007C00077050895CF93DF9312C082E00E9402055F
:1007D0002FEF8F3F9207C9F0E0913A02F0913B0270
:1007E000E650FE4F8083D0933B02C0933A02C09103
:1007F0003A02D0913B022196CF73D07080913C0297
:1008000090913D02C817D90701F7DF91CF91089564
:10081000FC0180818E5F808380E86CEA70E042E4B6
:1008200050E00E941B050895FC0181819081913A5E
:1008300059F4813209F04CC080E06EE371E047E08A
:1008400050E00E941B0542C0913209F041C0803245
:1008500039F48EE391E067E070E00E945F0536C0F6
:10086000823209F035C082818093450180913E013A
:1008700090913F01A0914001B0914101805B944073
:10088000A040B04019F58091450180FD12C087E776
:1008900097E790930108809300082BE088E190E0AF
:1008A0000FB6F894A895809360000FBE2093600067
:1008B0000DC088E10FB6F89480936000109260003C
:1008C0000FBEA895109201081092000881E00895CB
:1008D00080E00895CF93DF930E94B60884E592E00C
:1008E0000E9482050E945E01C0E0D0E00E940003E9
:1008F0002097E1F30E940000F9CFCF92DF92EF92B0
:10090000FF920F931F93CF93DF937C016B018A01BA
:10091000C0E0D0E00FC0D6016D916D01D701ED911F
:10092000FC910190F081E02DC7010995C80FD91FF6
:10093000015010400115110571F7CE01DF91CF91E3
:100940001F910F91FF90EF90DF90CF900895DC0101
:10095000ED91FC910190F081E02D09950895CF93E0
:10096000DF93EC016115710519F420E030E00FC050
:10097000DB010D900020E9F71197A61BB70BE8816A
:10098000F9810280F381E02DAD0109959C01C90137
:10099000DF91CF9108950E94AF040895282F809190
:1009A0004E028823C1F057FF1AC015C028989093B3
:1009B0004D028091F1008193E217F307B9F74115D9
:1009C000510539F08091F200882319F48BE6809369
:1009D000E800AFBF02C04FEF5FEFCA010895AFB7A5
:1009E000F89427702093E9008091F200282F30E0DE
:1009F000241735070CF4A901FB019B01240F311DBD
:100A000094E6DACFDF93CF930F92CDB7DEB7BE0176
:100A10006F5F7F4F41E050E00E94CE04019719F0D4
:100A20002FEF3FEF03C08981282F30E0C9010F90DD
:100A3000CF91DF910895FF920F931F93F82E142FFB
:100A4000052F4091510250915202212F302FC901A0
:100A5000DC01FB016EEF29C0F7FE02C0949101C0DA
:100A6000908120914F023091500224173507ACF449
:100A70008091E8008570E1F38091E80082FF03C077
:100A80002FEF3FEF17C09093F100C90101968F73CC
:100A90009070892B11F46093E8002F5F3F4F3093E3
:100AA000500220934F02119731961097A9F6812F8B
:100AB000902F9C01C9011F910F91FF9008959C01F7
:100AC0008091E80082FFFCCFF901260F311D03C0A1
:100AD0008091F1008193E217F307D1F7289884E61B
:100AE00080934D028BEF8093E800CB0108958093B3
:100AF000E9008091F200882319F08AE38093E800EE
:100B00000895089510924E0281E08093D70080EA04
:100B10008093D80082E189BD09B400FEFDCF61E079
:100B200070E080E090E00E945D0880E98093D8004A
:100B30008CE08093E2001092E000559A209A08958C
:100B40005F926F927F928F929F92AF92BF92CF925D
:100B5000DF92EF92FF920F931F93CF93DF93E82ED4
:100B6000842E752E80914E02882371F18B01242FE3
:100B7000352FC901EC017AEFF72E67E0962E9E2003
:100B800050E4552E8E2D90E040E2A42EB12CA822E8
:100B9000B9223AE3632E20E4C22ED12CC822D922F6
:100BA00058C09FB7F8949092E9008091E80085FDC5
:100BB00002C020E004C08091F200252D281B9FBFB9
:100BC000222361F4FA9419F42FEF3FEF4DC061E056
:100BD00070E080E090E00E945D083BC0822F90E0D2
:100BE000C817D9070CF42C2FC21BD1094FB7F894A2
:100BF0009092E900A114B10421F406C01092F10012
:100C000021502223D9F719C0E7FC03C0F801922F25
:100C100010C0C801322F06C0FC010196E491E09398
:100C2000F10031503323C1F706C081918093F10068
:100C300091509923D1F7020F111D8091E80085FF93
:100C400005C0209729F4C114D10411F06092E80086
:100C50004FBF209709F0A5CF5D9884E680934C02A2
:100C6000282D372DC9019C01C901DF91CF911F911A
:100C70000F91FF90EF90DF90CF90BF90AF909F903B
:100C80008F907F906F905F9008951F920F920FB694
:100C90000F9211242F933F934F935F936F937F9302
:100CA0008F939F93AF93BF93EF93FF938091E10056
:100CB0001092E100982F83FF0FC01092E90081E0AD
:100CC0008093EB001092EC0082E38093ED00109291
:100CD0004E0288E08093F00092FF34C083E080935E
:100CE000E9008091F200882319F08AE38093E800FC
:100CF0008FB7F89492E09093E9009091F2008FBF43
:100D0000992321F08EE392E00E94E20380914C024D
:100D1000882351F080914C02815080934C02809145
:100D20004C02882309F45D9A80914D02882351F08A
:100D300080914D02815080934D0280914D02882315
:100D400009F4289AFF91EF91BF91AF919F918F91F4
:100D50007F916F915F914F913F912F910F900FBEB7
:100D60000F901F9018950F931F93DF93CF930F92BF
:100D7000CDB7DEB719828E010F5F1F4FC8010E94E9
:100D80000804C8010E94430A898190E00F90CF9126
:100D9000DF911F910F9108951F920F920FB60F923E
:100DA0001124EF92FF921F932F933F934F935F93E2
:100DB0006F937F938F939F93AF93BF93EF93FF9323
:100DC000DF93CF93CDB7DEB76197DEBFCDBF109273
:100DD000E9008091E80083FF0FC1FE0131969E017A
:100DE000275F3F4F03C08091F1008193E217F30723
:100DF000D1F7289884E680934D0282EF8093E80033
:100E0000998197FF05C08091E80080FFFCCF03C067
:100E10008EEF8093E800292F30E0C9018076907032
:100E2000892B09F0C2C08A81882329F41092F1002D
:100E30001092F100D6C0813009F4D3C0833009F498
:100E4000D0C0853049F48091E80080FFFCCF8B81D1
:100E500080688093E300C5C0863009F07CC01C81A7
:100E6000EF80F8841230C1F51092E9001092500220
:100E700010924F0210925202109251020E94B30639
:100E800099E0FE013996DF01292F1D922A95E9F795
:100E900099871A8791E09E8790E8988B9AEF998BB3
:100EA00020914F0230915002275F3F4F3C872B87A4
:100EB0008D871092E9001092500210924F02F0922A
:100EC0005202E092510280E0BF0149E050E00E94EE
:100ED0001B050E94B30685C01092E90010925002D3
:100EE00010924F02F0925202E0925102123241F4FB
:100EF00082E290E00E943B0A892B09F476C071C01F
:100F0000113079F488E0E816F10419F481E0809357
:100F1000530280915302882309F06BC0ECE2F1E0A8
:100F200013C0133009F061C08B81882319F4EEEEF1
:100F3000F0E00AC0823019F4E2EFF0E005C0813041
:100F400009F053C0E4E1F1E0449180E8BF0150E0D2
:100F50000E941B0546C0873009F447C0883021F441
:100F600081E08093F1003DC08930D9F52370307065
:100F7000232BD9F5E1E5F1E091E031E026E3909310
:100F8000E9003093EB0084918093EC002093ED0016
:100F90009F5F3196953099F78EE78093EA00109223
:100FA000EA008B8180934E021CC08F81988510923D
:100FB000E9001092500210924F02909352028093D7
:100FC00051028D81882329F4CE0101960E941404D8
:100FD00006C0823051F4CE0101960E940C0988238C
:100FE00021F08EEF8093E80007C081E28093EB0050
:100FF00003C0EEE3F1E0A8CF6196DEBFCDBFCF9195
:10100000DF91FF91EF91BF91AF919F918F917F9170
:101010006F915F914F913F912F911F91FF90EF90B2
:101020000F900FBE0F901F9018951F920F920FB642
:101030000F9211242F933F938F939F93AF93BF935E
:101040008091590290915A02A0915B02B0915C028A
:1010500030915D020196A11DB11D232F2D5F2D370B
:1010600020F02D570196A11DB11D20935D028093A4
:10107000590290935A02A0935B02B0935C02809154
:10108000550290915602A0915702B09158020196D4
:10109000A11DB11D8093550290935602A093570253
:1010A000B0935802BF91AF919F918F913F912F9133
:1010B0000F900FBE0F901F9018959B01AC017FB74A
:1010C000F8948091550290915602A0915702B091E8
:1010D000580266B5A89B05C06F3F19F00196A11D87
:1010E000B11D7FBFBA2FA92F982F8827860F911D7A
:1010F000A11DB11D62E0880F991FAA1FBB1F6A9531
:10110000D1F7BC012DC0FFB7F894809155029091A2
:101110005602A0915702B0915802E6B5A89B05C0AF
:10112000EF3F19F00196A11DB11DFFBFBA2FA92FE6
:10113000982F88278E0F911DA11DB11DE2E0880F09
:10114000991FAA1FBB1FEA95D1F7861B970B885ED4
:101150009340C8F2215030404040504068517C4F8D
:10116000211531054105510571F60895789484B52E
:10117000826084BD84B5816084BD85B5826085BD93
:1011800085B5816085BDEEE6F0E080818160808379
:10119000E1E8F0E01082808182608083808181605C
:1011A0008083E0E8F0E0808181608083E1E9F0E025
:1011B000808182608083808181608083E0E9F0E0CB
:1011C000808181608083E1ECF0E0808184608083B5
:1011D000808182608083808181608083E3ECF0E0A5
:1011E000808181608083E0ECF0E080818260808398
:1011F000E2ECF0E0808181608083EAE7F0E08081CA
:10120000846080838081826080838081816080832C
:101210008081806880830895FC0191818081813A7A
:1012200031F4913089F080E0933089F40DC081323F
:1012300069F49B3021F482818093460105C09A3085
:1012400029F482818093470181E0089580E0089528
:10125000EF92FF920F931F938C01E62EDC01ED912C
:10126000FC910480F581E02D0995F82ED801ED91CF
:10127000FC910680F781E02DC8016E2D09958F2D18
:1012800090E01F910F91FF90EF90089510925E02F1
:10129000109262021092610289E691E090936002DE
:1012A00080935F020895EF92FF920F931F93DF9355
:1012B000CF930F92CDB7DEB789838B017A0184E09B
:1012C000BE016F5F7F4F41E050E00E94A00584E4C3
:1012D000B801A7010E94A0050F90CF91DF911F9147
:1012E0000F91FF90EF90089582E048E050E00E9457
:1012F00053090895FC011682178210861186128602
:10130000138614823496BF010E9474090895DC018B
:10131000683810F0685829C0E62FF0E067FF13C066
:10132000E058F04081E090E002C0880F991FEA95F4
:10133000E2F7809514962C911497282314962C93F9
:10134000149760E012C0ED52FE4F6491662319F4C9
:1013500020E030E01DC067FF08C014968C91149700
:101360008D7F14968C9314976F77FD0190E0662320
:1013700021F08681861709F416829F5F3196963098
:10138000B1F7CD011496BD010E94740921E030E04F
:10139000C9010895CF93DF93DC01683810F06858D5
:1013A00025C0E62FF0E067FF12C0E058F04081E072
:1013B00090E002C0880F991FEA95E2F714962C91ED
:1013C0001497282B14962C93149760E00FC0ED52BD
:1013D000FE4F64916623D9F167FF08C014968C9183
:1013E0001497826014968C9314976F7716968C914D
:1013F00016978617A9F117968C911797861781F182
:1014000018968C911897861759F119968C911997FF
:10141000861731F11A968C911A97861709F11B9647
:101420008C911B978617E1F0ED01E0E0F0E09E2F34
:101430008E81882321F4EA0FFB1F668306C09F5F1D
:1014400031962196E630F10591F7963049F481E026
:1014500090E013969C938E93129720E030E007C0A3
:10146000CD011496BD010E94740921E030E0C9014C
:10147000DF91CF91089580E865E571E045E650E0A1
:101480000E941B050895FC0180818F5F808380E8A6
:101490006AEB71E049E150E00E941B050895EE0FF0
:0E14A000FF1F0590F491E02D0994F894FFCF02
:1014AE001B5B41001B5B441B5B42001B5B306D00F2
:1014BE000D0A000D0A0D0A001B5B44201B5B440045
:1014CE001B5B34366D001B5B34396D001B5B346D5A
:1014DE00001B5B32346D000D0A0A28000C1100E16E
:1014EE00000000000000010140726B21001B5B3305
:1014FE00306D0000000000B6037D0455037C0363CD
:10150E0003DE03E2030000000028097D04CA0987F8
:04151E00097A09003D
:00000001FF
