:100000000C942D010C9455010C9455010C94550140
:100010000C9455010C9455010C9455010C94550108
:100020000C9455010C9455010C943B060C94C2069B
:100030000C9455010C9455010C9455010C945501E8
:100040000C9455010C9455010C9455010C945501D8
:100050000C9455010C9455010C9455010C940B080B
:100060000C9455010C9455010C9455010C945501B8
:100070000C9455010C9455010C9455010C945501A8
:100080000C9455010C9455010C9455010C94550198
:100090000C9455010C9455010C9455010C94550188
:1000A0000C9455010C9455010C945501080B000259
:1000B0000202010009040000010202000005240000
:1000C0001001052401010104240206052406000193
:1000D0000705810310004009040100020A00000026
:1000E00007050202400000070583024000000403E8
:1000F00009042203410072006400750069006E006B
:100100006F0020004C0065006F006E0061007200FF
:1001100064006F00180341007200640075006900FC
:100120006E006F0020004C004C00430012010002E2
:10013000000000404123368000010102000112014D
:10014000000202000040412336800001010200014C
:1001500000C18081C105010902A1010901A1008539
:100160000105091901290315002501950375018170
:10017000029501750581030501093009310938151A
:1001800081257F750895038106C0C005010906A178
:10019000018502050719E029E7150025017501957C
:1001A00008810295017508810395067508150025DB
:1001B000650507190029658100C0090402000103D3
:1001C00000000009210101000122650007058403E8
:1001D00040000100000000000000002A2B28000061
:1001E000000000000000000000000000000000000F
:1001F0000000002C9EB4A0A1A2A434A6A7A5AE36F0
:100200002D3738271E1F20212223242526B333B65D
:100210002EB7B89F8485868788898A8B8C8D8E8F30
:10022000909192939495969798999A9B9C9D2F3133
:1002300030A3AD350405060708090A0B0C0D0E0F97
:10024000101112131415161718191A1B1C1DAFB113
:10025000B0B50000950377053C0911241FBECFEF10
:10026000DAE0DEBFCDBF11E0A0E0B1E0EAE9F4E101
:1002700002C005900D92A035B107D9F712E0A0E5B4
:10028000B1E001C01D92A734B107E1F712E0CAE561
:10029000D2E004C02297FE010E94470AC435D1076C
:1002A000C9F70E9460040C944B0A0C940000FB01F7
:1002B000DC0101900D920020E1F7089588E280931F
:1002C000520180939201109251018AE192E060E81C
:1002D00075E20E944A030895EF92FF921F93DF9305
:1002E000CF93CDB7DEB727970FB6F894DEBF0FBE1A
:1002F000CDBF182F7E010894E11CF11CC7016AE2F2
:1003000071E00E945701105D1C838AE192E0B70101
:100310000E94C10427960FB6F894DEBF0FBECDBF72
:10032000CF91DF911F91FF90EF900895FF920F936F
:100330001F938AE192E00E944B03892B09F452C17A
:100340008AE192E00E947203182F882309F44AC1BF
:10035000E091D201EF3354F4EF5FE093D201FF2735
:10036000E7FDF095EE5AFE4F808309C081E080934F
:10037000D201809191018093520110935301E09139
:10038000D301EF3354F4EF5FE093D301FF27E7FD90
:10039000F095EE56FE4F108309C081E08093D301A3
:1003A0008091D1018093920110939301103221F03A
:1003B0001C3211F000E001C006E0812F80538A302A
:1003C00020F486E00E946C0102E1812F81528F307F
:1003D00018F48750823068F4812F8B55863048F0AE
:1003E0008F5D873030F08154843018F0FF24F3940F
:1003F00005C0F0901A0181E0F82602E0812F8154B7
:100400008A3358F40230A9F0F0901A0181E0F826FE
:1004100089E00E946C0101E002C0023051F080913D
:10042000D401823049F4013039F480911A018823D3
:1004300019F482E00E946C01183261F0193224F440
:100440001D3009F06AC02BC01932A1F0173509F030
:1004500064C04FC080E180935101809150018F5F53
:100460008093500118160CF0BBC087708F5F0E94FC
:100470006C01B6C080915001181654F487708F5FDC
:100480000E946C018091500181508093500105C001
:1004900089E00E946C011092500105E05DC080E18E
:1004A000809351018AE192E060E071E00E94C10412
:1004B00010E008C0EE5AFE4F8AE192E060810E948F
:1004C0009D041F5FE12FF0E08091D201992787FD05
:1004D0009095E817F90774F31092D20188E280939F
:1004E00052018AE192E060E071E00E94C10406E0FE
:1004F00033C0E091D201E150E093D201FF27E7FD44
:10050000F095EE5AFE4F008180E1809351018AE11F
:1005100092E063E071E00E94C1040230E9F480914E
:10052000D4018130C9F480911A018823A9F48AE1A9
:1005300092E068E071E00E94C10482E00E946C01D8
:10054000E091D201FF27E7FDF095EF5AFE4F8AE1D7
:1005500092E060810E949D0480915101803159F4A4
:10056000033049F08AE192E06CE071E00E94C1043E
:1005700081E1809351018091D401823179F402317B
:1005800069F080911A01882349F48AE192E061E1DF
:1005900071E00E94C10481E180935101E091D20198
:1005A000FF27E7FDF095EE5AFE4F8AE192E0608169
:1005B0000E949D0480915101803169F480911A015B
:1005C000882349F48AE192E061E171E00E94C1046C
:1005D00081E1809351010093D401F0921A0102C08D
:1005E00003E0BACF1F910F91FF90089580915101C0
:1005F0008430ACF58091D501882389F58AE192E0B9
:100600000E944B03892B59F18AE192E00E94720308
:10061000882329F1873551F088352CF48132B1F0E7
:100620008034D9F405C08736C1F40AC081E005C022
:1006300080915101813089F482E0809351010FC093
:1006400080915101823049F483E0F7CF80915101CC
:10065000833019F481E08093D5011092510180918B
:10066000D5018823B1F080915101882381F48AE17A
:1006700092E065E271E00E94C1048AE192E066E1E5
:1006800071E00E94C10480E18093510108950E94AD
:1006900096010895089520911602309117028091D5
:1006A000180290911902281B390B2F733070C90161
:1006B00008952091160230911702809118029091AE
:1006C00019022817390719F42FEF3FEF09C0E091FD
:1006D0001802F0911902EA52FE4F8081282F30E073
:1006E000C9010895209116023091170280911802D5
:1006F000909119022817390719F42FEF3FEF13C013
:10070000E0911802F0911902EA52FE4F2081809187
:1007100018029091190201968F73907090931902AC
:100720008093180230E0C901089510921D021092C2
:100730001C0288EE93E0A0E0B0E080931E0290934C
:100740001F02A0932002B093210284E391E09093D2
:100750001B0280931A0208950F931F93DF93CF9388
:100760000F92CDB7DEB78C01698380912201882377
:1007700069F083E0BE016F5F7F4F41E050E00E946F
:1007800096051816190614F49C0107C081E090E044
:10079000F8019383828320E030E0C9010F90CF916C
:1007A000DF911F910F91089583E00E946D050895D8
:1007B000CF93DF9312C082E00E94F8042FEF8F3FA7
:1007C0009207C9F0E0911602F0911702EA52FE4F2B
:1007D0008083D0931702C0931602C0911602D09165
:1007E00017022196CF73D070809118029091190250
:1007F000C817D90701F7DF91CF910895FC018081D7
:100800008E5F808380E86CEA70E042E450E00E94F2
:1008100011050895FC0181819081913A59F481324A
:1008200009F04CC080E06BE171E047E050E00E94CD
:10083000110542C0913209F041C0803239F48BE198
:1008400091E067E070E00E94550536C0823209F001
:1008500035C082818093220180911B0190911C01FF
:10086000A0911D01B0911E01805B9440A040B0405A
:1008700019F58091220180FD12C087E797E79093D8
:100880000108809300082BE088E190E00FB6F8940F
:10089000A895809360000FBE209360000DC088E192
:1008A0000FB6F89480936000109260000FBEA89578
:1008B000109201081092000881E0089580E00895E8
:1008C000CF93DF930E94AC0880E392E00E9478050A
:1008D0000E945E01C0E0D0E00E94F6022097E1F3A2
:1008E0000E940000F9CFCF92DF92EF92FF920F9318
:1008F0001F93CF93DF937C016B018A01C0E0D0E0AE
:100900000FC0D6016D916D01D701ED91FC91019061
:10091000F081E02DC7010995C80FD91F0150104083
:100920000115110571F7CE01DF91CF911F910F9144
:10093000FF90EF90DF90CF900895DC01ED91FC9156
:100940000190F081E02D09950895CF93DF93EC019C
:100950006115710519F420E030E00FC0DB010D9046
:100960000020E9F71197A61BB70BE881F9810280F7
:10097000F381E02DAD0109959C01C901DF91CF9173
:1009800008950E94A5040895282F80912A028823A3
:10099000C1F057FF1AC015C0289890932902809182
:1009A000F1008193E217F307B9F74115510539F0CA
:1009B0008091F200882319F48BE68093E800AFBFA2
:1009C00002C04FEF5FEFCA010895AFB7F8942770E8
:1009D0002093E9008091F200282F30E0241735079A
:1009E0000CF4A901FB019B01240F311D94E6DACF21
:1009F000DF93CF930F92CDB7DEB7BE016F5F7F4F0E
:100A000041E050E00E94C404019719F02FEF3FEF3E
:100A100003C08981282F30E0C9010F90CF91DF9169
:100A20000895FF920F931F93F82E142F052F4091D6
:100A30002D0250912E02212F302FC901DC01FB0124
:100A40006EEF29C0F7FE02C0949101C09081209101
:100A50002B0230912C0224173507ACF48091E8006A
:100A60008570E1F38091E80082FF03C02FEF3FEF34
:100A700017C09093F100C90101968F739070892B74
:100A800011F46093E8002F5F3F4F30932C022093C6
:100A90002B02119731961097A9F6812F902F9C0168
:100AA000C9011F910F91FF9008959C018091E8006A
:100AB00082FFFCCFF901260F311D03C08091F100A8
:100AC0008193E217F307D1F7289884E680932902EF
:100AD0008BEF8093E800CB0108958093E90080912B
:100AE000F200882319F08AE38093E80008950895BE
:100AF00010922A0281E08093D70080EA8093D80088
:100B000082E189BD09B400FEFDCF61E070E080E0C4
:100B100090E00E94530880E98093D8008CE0809395
:100B2000E2001092E000559A209A08955F926F9229
:100B30007F928F929F92AF92BF92CF92DF92EF926D
:100B4000FF920F931F93CF93DF93E82E842E752E81
:100B500080912A02882371F18B01242F352FC9013E
:100B6000EC017AEFF72E67E0962E9E2050E4552E8A
:100B70008E2D90E040E2A42EB12CA822B9223AE3B7
:100B8000632E20E4C22ED12CC822D92258C09FB790
:100B9000F8949092E9008091E80085FD02C020E081
:100BA00004C08091F200252D281B9FBF222361F4F1
:100BB000FA9419F42FEF3FEF4DC061E070E080E050
:100BC00090E00E9453083BC0822F90E0C817D907DD
:100BD0000CF42C2FC21BD1094FB7F8949092E90066
:100BE000A114B10421F406C01092F1002150222377
:100BF000D9F719C0E7FC03C0F801922F10C0C80153
:100C0000322F06C0FC010196E491E093F1003150CF
:100C10003323C1F706C081918093F100915099234D
:100C2000D1F7020F111D8091E80085FF05C02097C4
:100C300029F4C114D10411F06092E8004FBF20974D
:100C400009F0A5CF5D9884E680932802282D372DE2
:100C5000C9019C01C901DF91CF911F910F91FF90B4
:100C6000EF90DF90CF90BF90AF909F908F907F904C
:100C70006F905F9008951F920F920FB60F921124FC
:100C80002F933F934F935F936F937F938F939F9394
:100C9000AF93BF93EF93FF938091E1001092E10037
:100CA000982F83FF0FC01092E90081E08093EB0042
:100CB0001092EC0082E38093ED0010922A0288E00B
:100CC0008093F00092FF34C083E08093E90080912C
:100CD000F200882319F08AE38093E8008FB7F89434
:100CE00092E09093E9009091F2008FBF992321F058
:100CF0008AE192E00E94D80380912802882351F073
:100D000080912802815080932802809128028823B4
:100D100009F45D9A80912902882351F0809129027B
:100D200081508093290280912902882309F4289A0E
:100D3000FF91EF91BF91AF919F918F917F916F91B3
:100D40005F914F913F912F910F900FBE0F901F9089
:100D500018950F931F93DF93CF930F92CDB7DEB704
:100D600019828E010F5F1F4FC8010E94FE03C80148
:100D70000E94390A898190E00F90CF91DF911F91F5
:100D80000F9108951F920F920FB60F921124EF92B8
:100D9000FF921F932F933F934F935F936F937F9394
:100DA0008F939F93AF93BF93EF93FF93DF93CF9373
:100DB000CDB7DEB76197DEBFCDBF1092E90080915D
:100DC000E80083FF0FC1FE0131969E01275F3F4F70
:100DD00003C08091F1008193E217F307D1F72898BF
:100DE00084E68093290282EF8093E800998197FF3F
:100DF00005C08091E80080FFFCCF03C08EEF809398
:100E0000E800292F30E0C90180769070892B09F025
:100E1000C2C08A81882329F41092F1001092F10057
:100E2000D6C0813009F4D3C0833009F4D0C08530F6
:100E300049F48091E80080FFFCCF8B81806880932B
:100E4000E300C5C0863009F07CC01C81EF80F884C7
:100E50001230C1F51092E90010922C0210922B0270
:100E600010922E0210922D020E94A90699E0FE0116
:100E70003996DF01292F1D922A95E9F799871A875C
:100E800091E09E8790E8988B9AEF998B20912B02A6
:100E900030912C02275F3F4F3C872B878D87109224
:100EA000E90010922C0210922B02F0922E02E09296
:100EB0002D0280E0BF0149E050E00E9411050E9430
:100EC000A90685C01092E90010922C0210922B0204
:100ED000F0922E02E0922D02123241F482E290E072
:100EE0000E94310A892B09F476C071C0113079F45F
:100EF00088E0E816F10419F481E080932F028091D4
:100F00002F02882309F06BC0ECE2F1E013C013302C
:100F100009F061C08B81882319F4EEEEF0E00AC07D
:100F2000823019F4E2EFF0E005C0813009F053C0DF
:100F3000E4E1F1E0449180E8BF0150E00E94110536
:100F400046C0873009F447C0883021F481E080939F
:100F5000F1003DC08930D9F523703070232BD9F5CD
:100F6000E1E5F1E091E031E026E39093E900309390
:100F7000EB0084918093EC002093ED009F5F31960D
:100F8000953099F78EE78093EA001092EA008B8102
:100F900080932A021CC08F8198851092E9001092DC
:100FA0002C0210922B0290932E0280932D028D81A1
:100FB000882329F4CE0101960E940A0406C08230DB
:100FC00051F4CE0101960E940209882321F08EEF90
:100FD0008093E80007C081E28093EB0003C0EEE35A
:100FE000F1E0A8CF6196DEBFCDBFCF91DF91FF9139
:100FF000EF91BF91AF919F918F917F916F915F9191
:101000004F913F912F911F91FF90EF900F900FBE46
:101010000F901F9018951F920F920FB60F921124E8
:101020002F933F938F939F93AF93BF9380913502FC
:1010300090913602A0913702B09138023091390276
:101040000196A11DB11D232F2D5F2D3720F02D57A7
:101050000196A11DB11D2093390280933502909312
:101060003602A0933702B0933802809131029091FA
:101070003202A0913302B09134020196A11DB11D3C
:101080008093310290933202A0933302B0933402E2
:10109000BF91AF919F918F913F912F910F900FBE74
:1010A0000F901F9018959B01AC017FB7F894809129
:1010B000310290913202A0913302B091340266B5B0
:1010C000A89B05C06F3F19F00196A11DB11D7FBF00
:1010D000BA2FA92F982F8827860F911DA11DB11D0A
:1010E00062E0880F991FAA1FBB1F6A95D1F7BC0148
:1010F0002DC0FFB7F8948091310290913202A091F7
:101100003302B0913402E6B5A89B05C0EF3F19F059
:101110000196A11DB11DFFBFBA2FA92F982F8827B7
:101120008E0F911DA11DB11DE2E0880F991FAA1F0E
:10113000BB1FEA95D1F7861B970B885E9340C8F2D8
:10114000215030404040504068517C4F21153105BE
:101150004105510571F60895789484B5826084BD87
:1011600084B5816084BD85B5826085BD85B58160AB
:1011700085BDEEE6F0E0808181608083E1E8F0E00B
:101180001082808182608083808181608083E0E83A
:10119000F0E0808181608083E1E9F0E0808182601D
:1011A0008083808181608083E0E9F0E080818160DC
:1011B0008083E1ECF0E080818460808380818260C4
:1011C0008083808181608083E3ECF0E080818160B6
:1011D0008083E0ECF0E0808182608083E2ECF0E0EC
:1011E000808181608083EAE7F0E080818460808391
:1011F000808182608083808181608083808180683B
:1012000080830895FC0191818081813A31F491308D
:1012100089F080E0933089F40DC0813269F49B300D
:1012200021F482818093230105C09A3029F48281C0
:101230008093240181E0089580E00895EF92FF9269
:101240000F931F938C01E62EDC01ED91FC9104803D
:10125000F581E02D0995F82ED801ED91FC910680DD
:10126000F781E02DC8016E2D09958F2D90E01F911B
:101270000F91FF90EF90089510923A0210923E0263
:1012800010923D0286E491E090933C0280933B02F1
:101290000895EF92FF920F931F93DF93CF930F92D6
:1012A000CDB7DEB789838B017A0184E0BE016F5F21
:1012B0007F4F41E050E00E94960584E4B801A70109
:1012C0000E9496050F90CF91DF911F910F91FF9093
:1012D000EF90089582E048E050E00E9449090895A7
:1012E000FC011682178210861186128613861482DC
:1012F0003496BF010E946A090895DC01683810F035
:10130000685829C0E62FF0E067FF13C0E058F040AE
:1013100081E090E002C0880F991FEA95E2F780957E
:1013200014962C911497282314962C93149760E00C
:1013300012C0ED52FE4F6491662319F420E030E0B4
:101340001DC067FF08C014968C9114978D7F14966A
:101350008C9314976F77FD0190E0662321F08681CE
:10136000861709F416829F5F31969630B1F7CD014A
:101370001496BD010E946A0921E030E0C901089578
:10138000CF93DF93DC01683810F0685825C0E62F52
:10139000F0E067FF12C0E058F04081E090E002C04A
:1013A000880F991FEA95E2F714962C911497282B31
:1013B00014962C93149760E00FC0ED52FE4F649189
:1013C0006623D9F167FF08C014968C911497826048
:1013D00014968C9314976F7716968C9116978617A0
:1013E000A9F117968C911797861781F118968C9111
:1013F0001897861759F119968C911997861731F11C
:101400001A968C911A97861709F11B968C911B9747
:101410008617E1F0ED01E0E0F0E09E2F8E81882359
:1014200021F4EA0FFB1F668306C09F5F3196219669
:10143000E630F10591F7963049F481E090E013969B
:101440009C938E93129720E030E007C0CD01149654
:10145000BD010E946A0921E030E0C901DF91CF910E
:10146000089580E865E571E045E650E00E941105C9
:101470000895FC0180818F5F808380E86AEB71E0D2
:1014800049E150E00E9411050895EE0FFF1F0590FD
:0A149000F491E02D0994F894FFCFC9
:10149A000D0A003E3E3E3E001B5B44001B5B346D62
:1014AA00001B5B306D000D0A28000100E1000000FE
:1014BA00000000010140726B21001B5B33306D009C
:1014CA0000000000AC0373044B0372035903D403F6
:1014DA00D803000000001E097304C0097D097009C1
:00000001FF
