:100000000C942D010C9455010C9455010C94550140
:100010000C9455010C9455010C9455010C94550108
:100020000C9455010C9455010C940C070C949307F7
:100030000C9455010C9455010C9455010C945501E8
:100040000C9455010C9455010C9455010C945501D8
:100050000C9455010C9455010C9455010C94DC083A
:100060000C9455010C9455010C9455010C945501B8
:100070000C9455010C9455010C9455010C945501A8
:100080000C9455010C9455010C9455010C94550198
:100090000C9455010C9455010C9455010C94550188
:1000A0000C9455010C9455010C945501080B000259
:1000B0000202010009040000010202000005240000
:1000C0001001052401010104240206052406000193
:1000D0000705810310004009040100020A00000026
:1000E00007050202400000070583024000000403E8
:1000F00009042203410072006400750069006E006B
:100100006F0020004C0065006F006E0061007200FF
:1001100064006F00180341007200640075006900FC
:100120006E006F0020004C004C00430012010002E2
:10013000000000404123368000010102000112014D
:10014000000202000040412336800001010200014C
:1001500000C18081C105010902A1010901A1008539
:100160000105091901290315002501950375018170
:10017000029501750581030501093009310938151A
:1001800081257F750895038106C0C005010906A178
:10019000018502050719E029E7150025017501957C
:1001A00008810295017508810395067508150025DB
:1001B000650507190029658100C0090402000103D3
:1001C00000000009210101000122650007058403E8
:1001D00040000100000000000000002A2B28000061
:1001E000000000000000000000000000000000000F
:1001F0000000002C9EB4A0A1A2A434A6A7A5AE36F0
:100200002D3738271E1F20212223242526B333B65D
:100210002EB7B89F8485868788898A8B8C8D8E8F30
:10022000909192939495969798999A9B9C9D2F3133
:1002300030A3AD350405060708090A0B0C0D0E0F97
:10024000101112131415161718191A1B1C1DAFB113
:10025000B0B50000660448060D0A11241FBECFEF9A
:10026000DAE0DEBFCDBF11E0A0E0B1E0ECE3F6E103
:1002700002C005900D92AE36B107D9F712E0AEE696
:10028000B1E001C01D92AF36B107E1F712E0CAE557
:10029000D2E004C02297FE010E94180BC435D1079A
:1002A000C9F70E9431050C941C0B0C940000FB0153
:1002B000DC0101900D920020E1F7089588E280931F
:1002C0007C018093BC0110926F011092750181E056
:1002D000809377019CE0909378018093790110924C
:1002E0007A0110927B0110926E01809370019093BD
:1002F000710180937201109273011092740182E473
:1003000092E060E875E20E941B040895EF92FF926C
:100310001F93DF93CF93CDB7DEB727970FB6F8942F
:10032000DEBF0FBECDBF182F7E010894E11CF11C6B
:10033000C70168E471E00E945701105D1C8382E4EC
:1003400092E0B7010E94920527960FB6F894DEBF9F
:100350000FBECDBFCF91DF911F91FF90EF90089519
:100360000F931F93082F1092730110917001E09169
:10037000FC01113001F5EF3354F4EF5FE093FC0121
:10038000FF27E7FDF095E458FE4F808317C081E01A
:100390000E94860182E492E06AE20E946E0589E092
:1003A0000E9486011093FC018091BB0180937C0127
:1003B00000937D0103C0EF5FE093FC010F3709F06C
:1003C00044C004C030E022E094E0FCC00091700121
:1003D0008091750180936E01809178018093710105
:1003E000809179018093720180917A0180937301E9
:1003F00080917B018093740184E08093700182E49A
:1004000092E06BE071E00E9492058091FC0187FD13
:10041000B1C1182F11501092FC01111674F4E09123
:10042000FC01FF27E7FDF095E458FE4F80810E9414
:10043000B0018091FC01811794F38091FC018150FF
:100440008093FC010093700195C13091740120915B
:10045000730190917201923009F4AEC0933024F48C
:10046000913009F0D1C007C0943009F4ABC0983086
:1004700009F0CAC0BAC0802F80538A3010F091E0D2
:1004800003C030E028E092E0802F81528F3018F4D2
:100490008750823050F4802F8B55863030F08F5D3E
:1004A000873018F08154843008F422E0802F815482
:1004B0008A3318F4223009F021E0023209F482CFA5
:1004C000033234F40D3071F1003209F09DC06DC07B
:1004D0000932A1F00B3319F1083209F095C090935D
:1004E000720184E0809373018CE08093710181E05C
:1004F0008093740180916E018F5F0EC03093740100
:100500009093720180E18093730180916E0187FD69
:1005100002C0815001C08FEF80936E017BC030E03C
:1005200098E066C0309374019093720180916E01DF
:1005300080937501809170018093770180917101A2
:10054000809378019093790120937A0130937B0115
:1005500080E28093730182E492E060E171E00E94A6
:10056000920582E492E065E171E00E94920510E05C
:1005700008C0E458FE4F82E492E060810E946E055C
:100580001F5FE12FF0E08091FC01992787FD909596
:10059000E817F90774F38FEF8093FC0182E492E08F
:1005A00065E171E00E94920535C09093720100935D
:1005B0007301109274012EC0802F80538A3008F08E
:1005C0005ACF22C03093740120937301909372012B
:1005D000223039F0023229F481E08093720183E005
:1005E00010C080E48093730115C00D3009F443CF2F
:1005F0003093740120937301909372010B3351F483
:1006000080E00E9486018FC03093740120937301B3
:100610009093720120917301822F992787FD909505
:1006200083709070892B89F08091FD01992787FD57
:10063000909583709070892B29F08091740191E0DE
:10064000892701C081E0809374012230E9F4809110
:10065000FD018130C9F4809174018823A9F482E4FA
:1006600092E068E171E00E94920582E00E948601BA
:10067000E091FC01FF27E7FDF095E558FE4F82E48D
:1006800092E060810E946E0580917201813021F4B8
:1006900080917301803219F48EE080937101809112
:1006A00073018430D1F085302CF4813051F08230E8
:1006B00041F511C08031D9F08034B9F0883009F5A6
:1006C00012C08091FD01823021F480917401882351
:1006D00011F087E014C082E012C080916E011816FC
:1006E00054F487700CC086E00AC083E008C0809193
:1006F0006E0187FF02C089E002C087708F5F0E9491
:100700008601809171018C3019F08E3061F405C042
:1007100082E492E06CE171E004C082E492E062E283
:1007200071E00E94920580917401882329F082E48F
:1007300092E068E271E004C082E492E06DE271E070
:100740000E94920582E492E0602F0E946E059091D3
:1007500073019093FD0180917401882359F4892FCE
:10076000992787FD909583709070892B19F08EE002
:10077000809371011F910F91089580916F018430D2
:10078000ACF580913801882389F582E492E00E94DB
:100790001C04892B59F182E492E00E9443048823CF
:1007A00029F1873551F088352CF48132B1F080344D
:1007B000D9F405C08736C1F40AC081E005C0809134
:1007C0006F01813089F482E080936F010FC08091C6
:1007D0006F01823049F483E0F7CF80916F0183305D
:1007E00019F481E08093380110926F0180913801F3
:1007F000882301F180916F01882381F482E492E0E3
:1008000063E471E00E94920582E492E063E371E0A8
:100810000E9492058CE080936F01089582E492E03B
:100820000E941C04892B31F082E492E00E94430470
:100830000E94B0010895089520913E0230913F0238
:100840008091400290914102281B390B2F73307028
:10085000C901089520913E0230913F0280914002EB
:10086000909141022817390719F42FEF3FEF09C083
:10087000E0914002F0914102E250FE4F8081282F2A
:1008800030E0C901089520913E0230913F028091ED
:100890004002909141022817390719F42FEF3FEFDA
:1008A00013C0E0914002F0914102E250FE4F2081DE
:1008B000809140029091410201968F7390709093C5
:1008C00041028093400230E0C90108951092450230
:1008D0001092440288EE93E0A0E0B0E080934602DC
:1008E00090934702A0934802B093490282E591E0B9
:1008F000909343028093420208950F931F93DF93D6
:10090000CF930F92CDB7DEB78C0169838091400100
:10091000882369F083E0BE016F5F7F4F41E050E0C4
:100920000E9467061816190614F49C0107C081E09E
:1009300090E0F8019383828320E030E0C9010F90BA
:10094000CF91DF911F910F91089583E00E943E06A1
:100950000895CF93DF9312C082E00E94C9052FEF64
:100960008F3F9207C9F0E0913E02F0913F02E250C2
:10097000FE4F8083D0933F02C0933E02C0913E025F
:10098000D0913F022196CF73D07080914002909118
:100990004102C817D90701F7DF91CF910895FC01F3
:1009A00080818E5F808380E86CEA70E042E450E0F2
:1009B0000E94E2050895FC0181819081913A59F4E9
:1009C000813209F04CC080E069E371E047E050E01B
:1009D0000E94E20542C0913209F041C0803239F4F0
:1009E00089E391E067E070E00E94260636C082321B
:1009F00009F035C082818093400180913901909146
:100A00003A01A0913B01B0913C01805B9440A04031
:100A1000B04019F58091400180FD12C087E797E74B
:100A200090930108809300082BE088E190E00FB6D6
:100A3000F894A895809360000FBE209360000DC0CD
:100A400088E10FB6F89480936000109260000FBEAA
:100A5000A895109201081092000881E0089580E0A6
:100A60000895CF93DF930E947D0988E592E00E946C
:100A700049060E945E01C0E0D0E00E94BD032097BD
:100A8000E1F30E940000F9CFCF92DF92EF92FF9244
:100A90000F931F93CF93DF937C016B018A01C0E01A
:100AA000D0E00FC0D6016D916D01D701ED91FC91A1
:100AB0000190F081E02DC7010995C80FD91F0150A1
:100AC00010400115110571F7CE01DF91CF911F91F3
:100AD0000F91FF90EF90DF90CF900895DC01ED91A2
:100AE000FC910190F081E02D09950895CF93DF935B
:100AF000EC016115710519F420E030E00FC0DB0155
:100B00000D900020E9F71197A61BB70BE881F9813A
:100B10000280F381E02DAD0109959C01C901DF91AF
:100B2000CF9108950E9476050895282F8091520252
:100B30008823C1F057FF1AC015C02898909351021E
:100B40008091F1008193E217F307B9F74115510540
:100B500039F08091F200882319F48BE68093E80045
:100B6000AFBF02C04FEF5FEFCA010895AFB7F8946F
:100B700027702093E9008091F200282F30E024179D
:100B800035070CF4A901FB019B01240F311D94E6EC
:100B9000DACFDF93CF930F92CDB7DEB7BE016F5F91
:100BA0007F4F41E050E00E949505019719F02FEF2B
:100BB0003FEF03C08981282F30E0C9010F90CF910A
:100BC000DF910895FF920F931F93F82E142F052F96
:100BD0004091550250915602212F302FC901DC015E
:100BE000FB016EEF29C0F7FE02C0949101C0908115
:100BF000209153023091540224173507ACF48091B0
:100C0000E8008570E1F38091E80082FF03C02FEFD8
:100C10003FEF17C09093F100C90101968F73907058
:100C2000892B11F46093E8002F5F3F4F30935402FB
:100C300020935302119731961097A9F6812F902F88
:100C40009C01C9011F910F91FF9008959C01809113
:100C5000E80082FFFCCFF901260F311D03C080910F
:100C6000F1008193E217F307D1F7289884E6809387
:100C700051028BEF8093E800CB0108958093E90047
:100C80008091F200882319F08AE38093E8000895A8
:100C900008951092520281E08093D70080EA8093F9
:100CA000D80082E189BD09B400FEFDCF61E070E0AB
:100CB00080E090E00E94240980E98093D8008CE0D5
:100CC0008093E2001092E000559A209A08955F9276
:100CD0006F927F928F929F92AF92BF92CF92DF924C
:100CE000EF92FF920F931F93CF93DF93E82E842E02
:100CF000752E80915202882371F18B01242F352F9C
:100D0000C901EC017AEFF72E67E0962E9E2050E4A1
:100D1000552E8E2D90E040E2A42EB12CA822B922AF
:100D20003AE3632E20E4C22ED12CC822D92258C027
:100D30009FB7F8949092E9008091E80085FD02C089
:100D400020E004C08091F200252D281B9FBF2223A4
:100D500061F4FA9419F42FEF3FEF4DC061E070E0B9
:100D600080E090E00E9424093BC0822F90E0C817E9
:100D7000D9070CF42C2FC21BD1094FB7F8949092CD
:100D8000E900A114B10421F406C01092F100215031
:100D90002223D9F719C0E7FC03C0F801922F10C035
:100DA000C801322F06C0FC010196E491E093F100E6
:100DB00031503323C1F706C081918093F1009150E7
:100DC0009923D1F7020F111D8091E80085FF05C01E
:100DD000209729F4C114D10411F06092E8004FBFAC
:100DE000209709F0A5CF5D9884E680935002282DC6
:100DF000372DC9019C01C901DF91CF911F910F913E
:100E0000FF90EF90DF90CF90BF90AF909F908F902A
:100E10007F906F905F9008951F920F920FB60F9280
:100E200011242F933F934F935F936F937F938F93EF
:100E30009F93AF93BF93EF93FF938091E100109244
:100E4000E100982F83FF0FC01092E90081E08093AA
:100E5000EB001092EC0082E38093ED0010925202BE
:100E600088E08093F00092FF34C083E08093E90033
:100E70008091F200882319F08AE38093E8008FB70D
:100E8000F89492E09093E9009091F2008FBF99233B
:100E900021F082E492E00E94A9048091500288230C
:100EA00051F0809150028150809350028091500205
:100EB000882309F45D9A80915102882351F0809132
:100EC000510281508093510280915102882309F48C
:100ED000289AFF91EF91BF91AF919F918F917F9150
:100EE0006F915F914F913F912F910F900FBE0F9097
:100EF0001F9018950F931F93DF93CF930F92CDB749
:100F0000DEB719828E010F5F1F4FC8010E94CF0408
:100F1000C8010E940A0B898190E00F90CF91DF9168
:100F20001F910F9108951F920F920FB60F921124E7
:100F3000EF92FF921F932F933F934F935F936F9383
:100F40007F938F939F93AF93BF93EF93FF93DF9321
:100F5000CF93CDB7DEB76197DEBFCDBF1092E9006A
:100F60008091E80083FF0FC1FE0131969E01275F4B
:100F70003F4F03C08091F1008193E217F307D1F74F
:100F8000289884E68093510282EF8093E80099814B
:100F900097FF05C08091E80080FFFCCF03C08EEF73
:100FA0008093E800292F30E0C90180769070892B6A
:100FB00009F0C2C08A81882329F41092F1001092AE
:100FC000F100D6C0813009F4D3C0833009F4D0C019
:100FD000853049F48091E80080FFFCCF8B818068E8
:100FE0008093E300C5C0863009F07CC01C81EF808F
:100FF000F8841230C1F51092E90010925402109258
:10100000530210925602109255020E947A0799E0FC
:10101000FE013996DF01292F1D922A95E9F799875C
:101020001A8791E09E8790E8988B9AEF998B209190
:10103000530230915402275F3F4F3C872B878D87A7
:101040001092E9001092540210925302F09256024C
:10105000E092550280E0BF0149E050E00E94E205C5
:101060000E947A0785C01092E900109254021092F3
:101070005302F0925602E0925502123241F482E29B
:1010800090E00E94020B892B09F476C071C01130E8
:1010900079F488E0E816F10419F481E080935702AE
:1010A00080915702882309F06BC0ECE2F1E013C095
:1010B000133009F061C08B81882319F4EEEEF0E063
:1010C0000AC0823019F4E2EFF0E005C0813009F087
:1010D00053C0E4E1F1E0449180E8BF0150E00E9498
:1010E000E20546C0873009F447C0883021F481E02A
:1010F0008093F1003DC08930D9F523703070232BE7
:10110000D9F5E1E5F1E091E031E026E39093E900E3
:101110003093EB0084918093EC002093ED009F5F6F
:101120003196953099F78EE78093EA001092EA00A5
:101130008B81809352021CC08F8198851092E900A8
:1011400010925402109253029093560280935502CB
:101150008D81882329F4CE0101960E94DB0406C00C
:10116000823051F4CE0101960E94D309882321F0E8
:101170008EEF8093E80007C081E28093EB0003C00C
:10118000EEE3F1E0A8CF6196DEBFCDBFCF91DF9156
:10119000FF91EF91BF91AF919F918F917F916F914F
:1011A0005F914F913F912F911F91FF90EF900F9082
:1011B0000FBE0F901F9018951F920F920FB60F92AF
:1011C00011242F933F938F939F93AF93BF9380915D
:1011D0005D0290915E02A0915F02B0916002309139
:1011E00061020196A11DB11D232F2D5F2D3720F027
:1011F0002D570196A11DB11D2093610280935D02C0
:1012000090935E02A0935F02B093600280915902B6
:1012100090915A02A0915B02B0915C020196A11DCF
:10122000B11D8093590290935A02A0935B02B09330
:101230005C02BF91AF919F918F913F912F910F9041
:101240000FBE0F901F9018959B01AC017FB7F894CB
:101250008091590290915A02A0915B02B0915C0278
:1012600066B5A89B05C06F3F19F00196A11DB11D81
:101270007FBFBA2FA92F982F8827860F911DA11DF8
:10128000B11D62E0880F991FAA1FBB1F6A95D1F795
:10129000BC012DC0FFB7F8948091590290915A0279
:1012A000A0915B02B0915C02E6B5A89B05C0EF3F40
:1012B00019F00196A11DB11DFFBFBA2FA92F982FBC
:1012C00088278E0F911DA11DB11DE2E0880F991F87
:1012D000AA1FBB1FEA95D1F7861B970B885E934028
:1012E000C8F2215030404040504068517C4F211599
:1012F00031054105510571F60895789484B58260F1
:1013000084BD84B5816084BD85B5826085BD85B5A9
:10131000816085BDEEE6F0E0808181608083E1E858
:10132000F0E0108280818260808380818160808390
:10133000E0E8F0E0808181608083E1E9F0E0808195
:1013400082608083808181608083E0E9F0E0808139
:1013500081608083E1ECF0E0808184608083808123
:1013600082608083808181608083E3ECF0E0808113
:1013700081608083E0ECF0E0808182608083E2EC39
:10138000F0E0808181608083EAE7F0E08081846022
:10139000808380818260808380818160808380817E
:1013A000806880830895FC0191818081813A31F4C5
:1013B000913089F080E0933089F40DC0813269F476
:1013C0009B3021F482818093410105C09A3029F439
:1013D00082818093420181E0089580E00895EF9238
:1013E000FF920F931F938C01E62EDC01ED91FC918F
:1013F0000480F581E02D0995F82ED801ED91FC913E
:101400000680F781E02DC8016E2D09958F2D90E0A3
:101410001F910F91FF90EF90089510926202109229
:1014200066021092650284E691E0909364028093D4
:1014300063020895EF92FF920F931F93DF93CF9370
:101440000F92CDB7DEB789838B017A0184E0BE01AC
:101450006F5F7F4F41E050E00E94670684E4B8016F
:10146000A7010E9467060F90CF91DF911F910F9106
:10147000FF90EF90089582E048E050E00E941A0A41
:101480000895FC0116821782108611861286138633
:1014900014823496BF010E943B0A0895DC0168382B
:1014A00010F0685829C0E62FF0E067FF13C0E0583D
:1014B000F04081E090E002C0880F991FEA95E2F7C2
:1014C000809514962C911497282314962C93149796
:1014D00060E012C0ED52FE4F6491662319F420E0E3
:1014E00030E01DC067FF08C014968C9114978D7F63
:1014F00014968C9314976F77FD0190E0662321F08A
:101500008681861709F416829F5F31969630B1F76F
:10151000CD011496BD010E943B0A21E030E0C901D3
:101520000895CF93DF93DC01683810F0685825C028
:10153000E62FF0E067FF12C0E058F04081E090E055
:1015400002C0880F991FEA95E2F714962C91149720
:10155000282B14962C93149760E00FC0ED52FE4F89
:1015600064916623D9F167FF08C014968C91149793
:10157000826014968C9314976F7716968C911697B9
:101580008617A9F117968C911797861781F11896EF
:101590008C911897861759F119968C91199786177F
:1015A00031F11A968C911A97861709F11B968C9136
:1015B0001B978617E1F0ED01E0E0F0E09E2F8E81B1
:1015C000882321F4EA0FFB1F668306C09F5F3196D4
:1015D0002196E630F10591F7963049F481E090E0EC
:1015E00013969C938E93129720E030E007C0CD01B4
:1015F0001496BD010E943B0A21E030E0C901DF9151
:10160000CF91089580E865E571E045E650E00E94DD
:10161000E2050895FC0180818F5F808380E86AEB9A
:1016200071E049E150E00E94E2050895EE0FFF1FCE
:0C1630000590F491E02D0994F894FFCF90
:10163C001B5B41001B5B441B5B42000D1B5B4B00A7
:10164C001B5B306D000D0A001B5B44001B5B3430D0
:10165C006D001B5B34396D001B5B346D001B5B3202
:10166C00346D000D0A0A28000100E10000000000A2
:10167C0000010140726B21001B5B33306D000000D8
:10168C0000007D0444051C0443042A04A504A90499
:0E169C0000000000EF094405910A4E0A410AC1
:00000001FF
