:100000000C942D010C9455010C9455010C94550140
:100010000C9455010C9455010C9455010C94550108
:100020000C9455010C9455010C947D060C94040716
:100030000C9455010C9455010C9455010C945501E8
:100040000C9455010C9455010C9455010C945501D8
:100050000C9455010C9455010C9455010C944D08C9
:100060000C9455010C9455010C9455010C945501B8
:100070000C9455010C9455010C9455010C945501A8
:100080000C9455010C9455010C9455010C94550198
:100090000C9455010C9455010C9455010C94550188
:1000A0000C9455010C9455010C945501080B000259
:1000B0000202010009040000010202000005240000
:1000C0001001052401010104240206052406000193
:1000D0000705810310004009040100020A00000026
:1000E00007050202400000070583024000000403E8
:1000F00009042203410072006400750069006E006B
:100100006F0020004C0065006F006E0061007200FF
:1001100064006F00180341007200640075006900FC
:100120006E006F0020004C004C00430012010002E2
:10013000000000404123368000010102000112014D
:10014000000202000040412336800001010200014C
:1001500000C18081C105010902A1010901A1008539
:100160000105091901290315002501950375018170
:10017000029501750581030501093009310938151A
:1001800081257F750895038106C0C005010906A178
:10019000018502050719E029E7150025017501957C
:1001A00008810295017508810395067508150025DB
:1001B000650507190029658100C0090402000103D3
:1001C00000000009210101000122650007058403E8
:1001D00040000100000000000000002A2B28000061
:1001E000000000000000000000000000000000000F
:1001F0000000002C9EB4A0A1A2A434A6A7A5AE36F0
:100200002D3738271E1F20212223242526B333B65D
:100210002EB7B89F8485868788898A8B8C8D8E8F30
:10022000909192939495969798999A9B9C9D2F3133
:1002300030A3AD350405060708090A0B0C0D0E0F97
:10024000101112131415161718191A1B1C1DAFB113
:10025000B0B50000D703B9057E0911241FBECFEF4A
:10026000DAE0DEBFCDBF11E0A0E0B1E0EEE1F5E104
:1002700002C005900D92AE35B107D9F712E0AEE598
:10028000B1E001C01D92A535B107E1F712E0CAE562
:10029000D2E004C02297FE010E94890AC435D1072A
:1002A000C9F70E94A2040C948D0A0C940000FB0173
:1002B000DC0101900D920020E1F7089588E280931F
:1002C00061018093A10110925F0188E292E060E8F1
:1002D00075E20E948C030895EF92FF921F93DF93C3
:1002E000CF93CDB7DEB727970FB6F894DEBF0FBE1A
:1002F000CDBF182F7E010894E11CF11CC70167E3F4
:1003000071E00E945701105D1C8388E292E0B70102
:100310000E94030527960FB6F894DEBF0FBECDBF2F
:10032000CF91DF911F91FF90EF9008950F931F934E
:1003300080912701882319F48EE08093250101E044
:1003400088E292E00E948D03892B09F48EC188E235
:1003500092E00E94B403982F882309F486C1E091AB
:10036000E101EF3354F4EF5FE093E101FF27E7FD94
:10037000F095EF59FE4F808308C00093E101809112
:10038000A001809361019093620140912701309117
:100390006001509125012091260110E0223121F4C5
:1003A000C3C05EE021E106C0233109F4C3C021319E
:1003B00009F0DAC0892F80538A3010F061E104C05F
:1003C00012E140E034E062E1892F81528F3018F46D
:1003D0008750823050F4892F8B55863030F08F5DF6
:1003E000873018F08154843018F461E112E032E073
:1003F000892F81548A3328F4123019F011E031E04A
:1004000001C0262F983291F0993234F49D30A1F139
:10041000923209F0A9C006C09932C9F09F3709F09D
:10042000A3C059C040E030E023E184C040932701DD
:100430002093260183E0809360018CE08093250166
:1004400080915E018F5F80935E0113E095C04093C1
:1004500027015093250185E08093600181E180931D
:10046000260180915E0187FD02C0815001C08FEF9F
:1004700080935E0115E080C04093270150932501D1
:1004800086E08093600181E18093260188E292E01A
:1004900060E071E00E94030510E008C0EF59FE4FD4
:1004A00088E292E060810E94DF041F5FE12FF0E0AC
:1004B0008091E101992787FD9095E817F90774F37A
:1004C0008FEF8093E10188E292E060E071E00E94AA
:1004D000030516E051C0409327013093600150930B
:1004E0002501209326019091E1019150E92FFF27EA
:1004F000E7FDF095EF59FE4FE081E83221F480915D
:100500005E01815005C0E93229F480915E018F5F60
:1005100080935E0191509093E10188E292E063E064
:1005200071E00E9403050CCF892F80538A3008F0B8
:1005300038CF1AC0409327013093600150932501B2
:1005400020932601332321F487E08093600114C0B7
:10055000923291F481E18093260183E00E946C0144
:100560008EE0809325015EC04093270130936001A7
:10057000509325012093260180912601813179F441
:10058000809160018150823050F48091270188234E
:1005900019F01092270103C081E080932701809118
:1005A00060018430C1F085303CF4823061F08330EA
:1005B00064F4813029F517C08630E1F086307CF094
:1005C0008730F1F40AC082E012C080915E011816F3
:1005D00054F487700CC086E00AC083E008C08091A4
:1005E0005E0187FF02C089E002C087708F5F0E94B2
:1005F0006C0106C088E292E06BE071E00E940305A6
:10060000809125018C3019F08E3061F405C088E2AC
:1006100092E060E171E004C088E292E063E171E0A1
:100620000E940305812F8150823010F01092270123
:1006300080912701882329F088E292E066E171E049
:1006400004C088E292E06BE171E00E940305109320
:10065000E201E091E101FF27E7FDF095EF59FE4F40
:1006600088E292E060810E94DF041F910F9108955B
:1006700080915F018430ACF58091E301882389F596
:1006800088E292E00E948D03892B59F188E292E082
:100690000E94B403882329F1873551F088352CF462
:1006A0008132B1F08034D9F405C08736C1F40AC074
:1006B00081E005C080915F01813089F482E0809300
:1006C0005F010FC080915F01823049F483E0F7CF72
:1006D00080915F01833019F481E08093E3011092EF
:1006E0005F018091E3018823B1F080915F0188234D
:1006F00081F488E292E062E371E00E94030588E2FF
:1007000092E061E271E00E9403058CE080935F015A
:1007100008950E9496010895089520912402309131
:1007200025028091260290912702281B390B2F73F6
:100730003070C901089520912402309125028091E2
:100740002602909127022817390719F42FEF3FEF5F
:1007500009C0E0912602F0912702EC51FE4F808102
:10076000282F30E0C90108952091240230912502FC
:1007700080912602909127022817390719F42FEF4C
:100780003FEF13C0E0912602F0912702EC51FE4F9B
:100790002081809126029091270201968F7390709C
:1007A000909327028093260230E0C90108951092A9
:1007B0002B0210922A0288EE93E0A0E0B0E0809332
:1007C0002C0290932D02A0932E02B0932F0281E46D
:1007D00091E0909329028093280208950F931F932C
:1007E000DF93CF930F92CDB7DEB78C0169838091F1
:1007F0002F01882369F083E0BE016F5F7F4F41E0E6
:1008000050E00E94D8051816190614F49C0107C080
:1008100081E090E0F8019383828320E030E0C90119
:100820000F90CF91DF911F910F91089583E00E9467
:10083000AF050895CF93DF9312C082E00E943A057E
:100840002FEF8F3F9207C9F0E0912402F09125022B
:10085000EC51FE4F8083D0932502C0932402C091B7
:100860002402D09125022196CF73D0708091260268
:1008700090912702C817D90701F7DF91CF9108950A
:10088000FC0180818E5F808380E86CEA70E042E446
:1008900050E00E9453050895FC0181819081913AB6
:1008A00059F4813209F04CC080E068E271E047E021
:1008B00050E00E94530542C0913209F041C080329D
:1008C00039F488E291E067E070E00E94970536C055
:1008D000823209F035C0828180932F0180912801F6
:1008E00090912901A0912A01B0912B01805B944045
:1008F000A040B04019F580912F0180FD12C087E71C
:1009000097E790930108809300082BE088E190E03E
:100910000FB6F894A895809360000FBE20936000F6
:100920000DC088E10FB6F8948093600010926000CB
:100930000FBEA895109201081092000881E008955A
:1009400080E00895CF93DF930E94EE088EE392E05B
:100950000E94BA050E945E01C0E0D0E00E94380308
:100960002097E1F30E940000F9CFCF92DF92EF923F
:10097000FF920F931F93CF93DF937C016B018A014A
:10098000C0E0D0E00FC0D6016D916D01D701ED91AF
:10099000FC910190F081E02DC7010995C80FD91F86
:1009A000015010400115110571F7CE01DF91CF9173
:1009B0001F910F91FF90EF90DF90CF900895DC0191
:1009C000ED91FC910190F081E02D09950895CF9370
:1009D000DF93EC016115710519F420E030E00FC0E0
:1009E000DB010D900020E9F71197A61BB70BE881FA
:1009F000F9810280F381E02DAD0109959C01C901C7
:100A0000DF91CF9108950E94E7040895282F8091E7
:100A100038028823C1F057FF1AC015C02898909358
:100A200037028091F1008193E217F307B9F741157E
:100A3000510539F08091F200882319F48BE68093F8
:100A4000E800AFBF02C04FEF5FEFCA010895AFB734
:100A5000F89427702093E9008091F200282F30E06D
:100A6000241735070CF4A901FB019B01240F311D4C
:100A700094E6DACFDF93CF930F92CDB7DEB7BE0106
:100A80006F5F7F4F41E050E00E940605019719F02B
:100A90002FEF3FEF03C08981282F30E0C9010F906D
:100AA000CF91DF910895FF920F931F93F82E142F8B
:100AB000052F40913B0250913C02212F302FC9015C
:100AC000DC01FB016EEF29C0F7FE02C0949101C06A
:100AD00090812091390230913A0224173507ACF405
:100AE0008091E8008570E1F38091E80082FF03C007
:100AF0002FEF3FEF17C09093F100C90101968F735C
:100B00009070892B11F46093E8002F5F3F4F309372
:100B10003A0220933902119731961097A9F6812F46
:100B2000902F9C01C9011F910F91FF9008959C0186
:100B30008091E80082FFFCCFF901260F311D03C030
:100B40008091F1008193E217F307D1F7289884E6AA
:100B5000809337028BEF8093E800CB010895809358
:100B6000E9008091F200882319F08AE38093E8007D
:100B7000089508951092380281E08093D70080EAAA
:100B80008093D80082E189BD09B400FEFDCF61E009
:100B900070E080E090E00E94950880E98093D800A2
:100BA0008CE08093E2001092E000559A209A08951C
:100BB0005F926F927F928F929F92AF92BF92CF92ED
:100BC000DF92EF92FF920F931F93CF93DF93E82E64
:100BD000842E752E80913802882371F18B01242F89
:100BE000352FC901EC017AEFF72E67E0962E9E2093
:100BF00050E4552E8E2D90E040E2A42EB12CA82278
:100C0000B9223AE3632E20E4C22ED12CC822D92285
:100C100058C09FB7F8949092E9008091E80085FD54
:100C200002C020E004C08091F200252D281B9FBF48
:100C3000222361F4FA9419F42FEF3FEF4DC061E0E5
:100C400070E080E090E00E9495083BC0822F90E029
:100C5000C817D9070CF42C2FC21BD1094FB7F89431
:100C60009092E900A114B10421F406C01092F100A1
:100C700021502223D9F719C0E7FC03C0F801922FB5
:100C800010C0C801322F06C0FC010196E491E09328
:100C9000F10031503323C1F706C081918093F100F8
:100CA00091509923D1F7020F111D8091E80085FF23
:100CB00005C0209729F4C114D10411F06092E80016
:100CC0004FBF209709F0A5CF5D9884E68093360248
:100CD000282D372DC9019C01C901DF91CF911F91AA
:100CE0000F91FF90EF90DF90CF90BF90AF909F90CB
:100CF0008F907F906F905F9008951F920F920FB624
:100D00000F9211242F933F934F935F936F937F9391
:100D10008F939F93AF93BF93EF93FF938091E100E5
:100D20001092E100982F83FF0FC01092E90081E03C
:100D30008093EB001092EC0082E38093ED00109220
:100D4000380288E08093F00092FF34C083E0809303
:100D5000E9008091F200882319F08AE38093E8008B
:100D60008FB7F89492E09093E9009091F2008FBFD2
:100D7000992321F088E292E00E941A0480913602C1
:100D8000882351F080913602815080933602809101
:100D90003602882309F45D9A80913702882351F046
:100DA00080913702815080933702809137028823E7
:100DB00009F4289AFF91EF91BF91AF919F918F9184
:100DC0007F916F915F914F913F912F910F900FBE47
:100DD0000F901F9018950F931F93DF93CF930F924F
:100DE000CDB7DEB719828E010F5F1F4FC8010E9479
:100DF0004004C8010E947B0A898190E00F90CF9146
:100E0000DF911F910F9108951F920F920FB60F92CD
:100E10001124EF92FF921F932F933F934F935F9371
:100E20006F937F938F939F93AF93BF93EF93FF93B2
:100E3000DF93CF93CDB7DEB76197DEBFCDBF109202
:100E4000E9008091E80083FF0FC1FE0131969E0109
:100E5000275F3F4F03C08091F1008193E217F307B2
:100E6000D1F7289884E68093370282EF8093E800D8
:100E7000998197FF05C08091E80080FFFCCF03C0F7
:100E80008EEF8093E800292F30E0C90180769070C2
:100E9000892B09F0C2C08A81882329F41092F100BD
:100EA0001092F100D6C0813009F4D3C0833009F428
:100EB000D0C0853049F48091E80080FFFCCF8B8161
:100EC00080688093E300C5C0863009F07CC01C8137
:100ED000EF80F8841230C1F51092E90010923A02C6
:100EE0001092390210923C0210923B020E94EB06D3
:100EF00099E0FE013996DF01292F1D922A95E9F725
:100F000099871A8791E09E8790E8988B9AEF998B42
:100F10002091390230913A02275F3F4F3C872B875F
:100F20008D871092E90010923A0210923902F092E5
:100F30003C02E0923B0280E0BF0149E050E00E94A9
:100F400053050E94EB0685C01092E90010923A0208
:100F500010923902F0923C02E0923B02123241F4CC
:100F600082E290E00E94730A892B09F476C071C076
:100F7000113079F488E0E816F10419F481E08093E7
:100F80003D0280913D02882309F06BC0ECE2F1E064
:100F900013C0133009F061C08B81882319F4EEEE81
:100FA000F0E00AC0823019F4E2EFF0E005C08130D1
:100FB00009F053C0E4E1F1E0449180E8BF0150E062
:100FC0000E94530546C0873009F447C0883021F499
:100FD00081E08093F1003DC08930D9F523703070F5
:100FE000232BD9F5E1E5F1E091E031E026E39093A0
:100FF000E9003093EB0084918093EC002093ED00A6
:101000009F5F3196953099F78EE78093EA001092B2
:10101000EA008B81809338021CC08F8198851092E2
:10102000E90010923A021092390290933C028093A8
:101030003B028D81882329F4CE0101960E944C0445
:1010400006C0823051F4CE0101960E9444098823E3
:1010500021F08EEF8093E80007C081E28093EB00DF
:1010600003C0EEE3F1E0A8CF6196DEBFCDBFCF9124
:10107000DF91FF91EF91BF91AF919F918F917F9100
:101080006F915F914F913F912F911F91FF90EF9042
:101090000F900FBE0F901F9018951F920F920FB6D2
:1010A0000F9211242F933F938F939F93AF93BF93EE
:1010B0008091430290914402A0914502B091460272
:1010C000309147020196A11DB11D232F2D5F2D37B1
:1010D00020F02D570196A11DB11D2093470280934A
:1010E000430290934402A0934502B093460280913C
:1010F0003F0290914002A0914102B09142020196BC
:10110000A11DB11D80933F0290934002A093410224
:10111000B0934202BF91AF919F918F913F912F91D8
:101120000F900FBE0F901F9018959B01AC017FB7D9
:10113000F89480913F0290914002A0914102B091B9
:10114000420266B5A89B05C06F3F19F00196A11D2C
:10115000B11D7FBFBA2FA92F982F8827860F911D09
:10116000A11DB11D62E0880F991FAA1FBB1F6A95C0
:10117000D1F7BC012DC0FFB7F89480913F02909148
:101180004002A0914102B0914202E6B5A89B05C081
:10119000EF3F19F00196A11DB11DFFBFBA2FA92F76
:1011A000982F88278E0F911DA11DB11DE2E0880F99
:1011B000991FAA1FBB1FEA95D1F7861B970B885E64
:1011C0009340C8F2215030404040504068517C4F1D
:1011D000211531054105510571F60895789484B5BE
:1011E000826084BD84B5816084BD85B5826085BD23
:1011F00085B5816085BDEEE6F0E080818160808309
:10120000E1E8F0E0108280818260808380818160EB
:101210008083E0E8F0E0808181608083E1E9F0E0B4
:10122000808182608083808181608083E0E9F0E05A
:10123000808181608083E1ECF0E080818460808344
:10124000808182608083808181608083E3ECF0E034
:10125000808181608083E0ECF0E080818260808327
:10126000E2ECF0E0808181608083EAE7F0E0808159
:1012700084608083808182608083808181608083BC
:101280008081806880830895FC0191818081813A0A
:1012900031F4913089F080E0933089F40DC08132CF
:1012A00069F49B3021F482818093300105C09A302B
:1012B00029F482818093310181E0089580E00895CE
:1012C000EF92FF920F931F938C01E62EDC01ED91BC
:1012D000FC910480F581E02D0995F82ED801ED915F
:1012E000FC910680F781E02DC8016E2D09958F2DA8
:1012F00090E01F910F91FF90EF9008951092480297
:1013000010924C0210924B0283E591E090934A02B6
:10131000809349020895EF92FF920F931F93DF93FA
:10132000CF930F92CDB7DEB789838B017A0184E02A
:10133000BE016F5F7F4F41E050E00E94D80584E41A
:10134000B801A7010E94D8050F90CF91DF911F919E
:101350000F91FF90EF90089582E048E050E00E94E6
:101360008B090895FC011682178210861186128659
:10137000138614823496BF010E94AC090895DC01E3
:10138000683810F0685829C0E62FF0E067FF13C0F6
:10139000E058F04081E090E002C0880F991FEA9584
:1013A000E2F7809514962C911497282314962C9389
:1013B000149760E012C0ED52FE4F6491662319F459
:1013C00020E030E01DC067FF08C014968C91149790
:1013D0008D7F14968C9314976F77FD0190E06623B0
:1013E00021F08681861709F416829F5F3196963028
:1013F000B1F7CD011496BD010E94AC0921E030E0A7
:10140000C9010895CF93DF93DC01683810F0685864
:1014100025C0E62FF0E067FF12C0E058F04081E001
:1014200090E002C0880F991FEA95E2F714962C917C
:101430001497282B14962C93149760E00FC0ED524C
:10144000FE4F64916623D9F167FF08C014968C9112
:101450001497826014968C9314976F7716968C91DC
:1014600016978617A9F117968C911797861781F111
:1014700018968C911897861759F119968C9119978F
:10148000861731F11A968C911A97861709F11B96D7
:101490008C911B978617E1F0ED01E0E0F0E09E2FC4
:1014A0008E81882321F4EA0FFB1F668306C09F5FAD
:1014B00031962196E630F10591F7963049F481E0B6
:1014C00090E013969C938E93129720E030E007C033
:1014D000CD011496BD010E94AC0921E030E0C901A4
:1014E000DF91CF91089580E865E571E045E650E031
:1014F0000E9453050895FC0180818F5F808380E8FE
:101500006AEB71E049E150E00E9453050895EE0F47
:0E151000FF1F0590F491E02D0994F894FFCF91
:10151E000D0A001B5B44201B5B44001B5B306D00FF
:10152E00C2BB00C2AB001B5B346D001B5B32346D63
:10153E00000D0A28000C110100E10000000000005F
:10154E00010140726B21001B5B33306D0000000007
:10155E0000EE03B5048D03B4039B0316041A0400B6
:0E156E000000006009B504020ABF09B20900BE
:00000001FF
