:100000000C942D010C9455010C9455010C94550140
:100010000C9455010C9455010C9455010C94550108
:100020000C9455010C9455010C946D060C94F40637
:100030000C9455010C9455010C9455010C945501E8
:100040000C9455010C9455010C9455010C945501D8
:100050000C9455010C9455010C9455010C943D08D9
:100060000C9455010C9455010C9455010C945501B8
:100070000C9455010C9455010C9455010C945501A8
:100080000C9455010C9455010C9455010C94550198
:100090000C9455010C9455010C9455010C94550188
:1000A0000C9455010C9455010C945501080B000259
:1000B0000202010009040000010202000005240000
:1000C0001001052401010104240206052406000193
:1000D0000705810310004009040100020A00000026
:1000E00007050202400000070583024000000403E8
:1000F00009042203410072006400750069006E006B
:100100006F0020004C0065006F006E0061007200FF
:1001100064006F00180341007200640075006900FC
:100120006E006F0020004C004C00430012010002E2
:10013000000000404123368000010102000112014D
:10014000000202000040412336800001010200014C
:1001500000C18081C105010902A1010901A1008539
:100160000105091901290315002501950375018170
:10017000029501750581030501093009310938151A
:1001800081257F750895038106C0C005010906A178
:10019000018502050719E029E7150025017501957C
:1001A00008810295017508810395067508150025DB
:1001B000650507190029658100C0090402000103D3
:1001C00000000009210101000122650007058403E8
:1001D00040000100000000000000002A2B28000061
:1001E000000000000000000000000000000000000F
:1001F0000000002C9EB4A0A1A2A434A6A7A5AE36F0
:100200002D3738271E1F20212223242526B333B65D
:100210002EB7B89F8485868788898A8B8C8D8E8F30
:10022000909192939495969798999A9B9C9D2F3133
:1002300030A3AD350405060708090A0B0C0D0E0F97
:10024000101112131415161718191A1B1C1DAFB113
:10025000B0B50000C703A9056E0911241FBECFEF7A
:10026000DAE0DEBFCDBF11E0A0E0B1E0EEEFF4E1F7
:1002700002C005900D92A836B107D9F712E0A8E6A2
:10028000B1E001C01D92A036B107E1F712E0CAE566
:10029000D2E004C02297FE010E94790AC435D1073A
:1002A000C9F70E9492040C947D0A0C940000FB0193
:1002B000DC0101900D920020E1F7089588E280931F
:1002C0006C018093AC011092690183E392E060E8D5
:1002D00075E20E947C030895FF920F931F93F82EFE
:1002E00003E312E0C80160E071E00E94F304C8017A
:1002F0006F2D0E94CF04C80164E071E00E94F304F6
:100300001F910F91FF900895EF92FF921F93DF933B
:10031000CF93CDB7DEB727970FB6F894DEBF0FBEE9
:10032000CDBF182F7E010894E11CF11CC70161E4C8
:1003300071E00E945701105D1C8383E392E0B701D6
:100340000E94F30427960FB6F894DEBF0FBECDBF10
:10035000CF91DF911F91FF90EF9008951F9311E0CF
:1003600083E392E00E947D03892B09F46FC183E34C
:1003700092E00E94A403982F882309F467C1E091BA
:10038000EC01EF3354F4EF5FE093EC01FF27E7FD5E
:10039000F095E459FE4F808308C01093EC018091E2
:1003A000AB0180936C0190936D0140916B01309192
:1003B0006A0120913101223119F4B4C021E106C053
:1003C000233109F4B5C0213109F0C7C0892F80530A
:1003D0008A3018F440E034E022E1892F81528F30D6
:1003E00018F48750823050F4892F8B55863030F0C6
:1003F0008F5D873018F08154843008F432E0892F03
:1004000081548A3318F4323009F031E0983291F097
:10041000993234F49D3071F1923209F09EC006C0D9
:100420009932B9F09F3709F098C055C040E030E0EC
:1004300023E17EC02093310183E080936A018CE048
:100440008093300181E080936B01809168018F5F20
:100450000EC040936B0185E080936A0110923101D8
:100460008091680187FD02C0815001C08FEF8093A9
:10047000680179C040936B012093310186E080933D
:100480006A0183E392E06BE071E00E94F30483E38E
:1004900092E060E171E00E94F30410E008C0E459CA
:1004A000FE4F83E392E060810E94CF041F5FE12F43
:1004B000F0E08091EC01992787FD9095E817F90706
:1004C00074F38FEF8093EC0183E392E063E171E0DA
:1004D0000E94F30448C040936B0130936A0120935B
:1004E00031019091EC019150E92FFF27E7FDF09544
:1004F000E459FE4FE081E83221F480916801815097
:1005000005C0E93229F4809168018F5F809368010A
:1005100091509093EC0183E392E068E171E00E94D6
:10052000F3041ECF892F80538A3008F047CF15C0BF
:1005300040936B0130936A0120933101332321F4FE
:1005400087E080936A010FC0923269F481E1809361
:10055000310183E00E9484015AC040936B013093C3
:100560006A012093310180913101813181F48091C0
:100570006A018150823070F480916B01882319F0F8
:1005800010926B0107C081E080936B0103C08EE085
:100590008093300180916A018430C1F085303CF451
:1005A000823061F0833064F4813029F517C08630E1
:1005B000E1F086307CF08730F1F40AC082E012C0AE
:1005C00080916801181654F487700CC086E00AC048
:1005D00083E008C08091680187FF02C089E002C003
:1005E00087708F5F0E94840106C083E392E06BE016
:1005F00071E00E94F304809130018C3019F08E304C
:1006000031F402C08EE301C08CE30E946C01809142
:100610006B01882329F083E392E060E271E004C07B
:1006200083E392E065E271E00E94F30480916A0145
:100630008093ED01E091EC01FF27E7FDF095E4598F
:10064000FE4F83E392E060810E94CF041F910895E2
:10065000809169018430ACF58091EE01882389F5A1
:1006600083E392E00E947D03892B59F183E392E0BA
:100670000E94A403882329F1873551F088352CF492
:100680008132B1F08034D9F405C08736C1F40AC094
:1006900081E005C080916901813089F482E0809316
:1006A00069010FC080916901823049F483E0F7CF7E
:1006B00080916901833019F481E08093EE011092FA
:1006C00069018091EE018823B1F08091690188234E
:1006D00081F483E392E06CE371E00E94F30483E32E
:1006E00092E06BE271E00E94F3048CE08093690178
:1006F00008950E94AE010895089520912F0230912F
:1007000030028091310290913202281B390B2F73F5
:100710003070C901089520912F02309130028091EC
:100720003102909132022817390719F42FEF3FEF69
:1007300009C0E0913102F0913202E151FE4F808117
:10074000282F30E0C901089520912F023091300206
:1007500080913102909132022817390719F42FEF56
:100760003FEF13C0E0913102F0913202E151FE4FB0
:100770002081809131029091320201968F739070A6
:10078000909332028093310230E0C90108951092B3
:1007900036021092350288EE93E0A0E0B0E080933C
:1007A000370290933802A0933902B0933A028BE457
:1007B00091E0909334028093330208950F931F9336
:1007C000DF93CF930F92CDB7DEB78C016983809111
:1007D0003901882369F083E0BE016F5F7F4F41E0FC
:1007E00050E00E94C8051816190614F49C0107C0B1
:1007F00081E090E0F8019383828320E030E0C9013A
:100800000F90CF91DF911F910F91089583E00E9487
:100810009F050895CF93DF9312C082E00E942A05BE
:100820002FEF8F3F9207C9F0E0912F02F091300235
:10083000E151FE4F8083D0933002C0932F02C091CC
:100840002F02D09130022196CF73D0708091310267
:1008500090913202C817D90701F7DF91CF9108951F
:10086000FC0180818E5F808380E86CEA70E042E466
:1008700050E00E9443050895FC0181819081913AE6
:1008800059F4813209F04CC080E062E371E047E046
:1008900050E00E94430542C0913209F041C08032CD
:1008A00039F482E391E067E070E00E94870536C08A
:1008B000823209F035C08281809339018091320102
:1008C00090913301A0913401B0913501805B944047
:1008D000A040B04019F58091390180FD12C087E732
:1008E00097E790930108809300082BE088E190E05F
:1008F0000FB6F894A895809360000FBE2093600017
:100900000DC088E10FB6F8948093600010926000EB
:100910000FBEA895109201081092000881E008957A
:1009200080E00895CF93DF930E94DE0889E492E08F
:100930000E94AA050E945E01C0E0D0E00E94280348
:100940002097E1F30E940000F9CFCF92DF92EF925F
:10095000FF920F931F93CF93DF937C016B018A016A
:10096000C0E0D0E00FC0D6016D916D01D701ED91CF
:10097000FC910190F081E02DC7010995C80FD91FA6
:10098000015010400115110571F7CE01DF91CF9193
:100990001F910F91FF90EF90DF90CF900895DC01B1
:1009A000ED91FC910190F081E02D09950895CF9390
:1009B000DF93EC016115710519F420E030E00FC000
:1009C000DB010D900020E9F71197A61BB70BE8811A
:1009D000F9810280F381E02DAD0109959C01C901E7
:1009E000DF91CF9108950E94D7040895282F809118
:1009F00043028823C1F057FF1AC015C0289890936E
:100A000042028091F1008193E217F307B9F7411593
:100A1000510539F08091F200882319F48BE6809318
:100A2000E800AFBF02C04FEF5FEFCA010895AFB754
:100A3000F89427702093E9008091F200282F30E08D
:100A4000241735070CF4A901FB019B01240F311D6C
:100A500094E6DACFDF93CF930F92CDB7DEB7BE0126
:100A60006F5F7F4F41E050E00E94F604019719F05C
:100A70002FEF3FEF03C08981282F30E0C9010F908D
:100A8000CF91DF910895FF920F931F93F82E142FAB
:100A9000052F4091460250914702212F302FC90166
:100AA000DC01FB016EEF29C0F7FE02C0949101C08A
:100AB0009081209144023091450224173507ACF40F
:100AC0008091E8008570E1F38091E80082FF03C027
:100AD0002FEF3FEF17C09093F100C90101968F737C
:100AE0009070892B11F46093E8002F5F3F4F309393
:100AF000450220934402119731961097A9F6812F51
:100B0000902F9C01C9011F910F91FF9008959C01A6
:100B10008091E80082FFFCCFF901260F311D03C050
:100B20008091F1008193E217F307D1F7289884E6CA
:100B3000809342028BEF8093E800CB01089580936D
:100B4000E9008091F200882319F08AE38093E8009D
:100B5000089508951092430281E08093D70080EABF
:100B60008093D80082E189BD09B400FEFDCF61E029
:100B700070E080E090E00E94850880E98093D800D2
:100B80008CE08093E2001092E000559A209A08953C
:100B90005F926F927F928F929F92AF92BF92CF920D
:100BA000DF92EF92FF920F931F93CF93DF93E82E84
:100BB000842E752E80914302882371F18B01242F9E
:100BC000352FC901EC017AEFF72E67E0962E9E20B3
:100BD00050E4552E8E2D90E040E2A42EB12CA82298
:100BE000B9223AE3632E20E4C22ED12CC822D922A6
:100BF00058C09FB7F8949092E9008091E80085FD75
:100C000002C020E004C08091F200252D281B9FBF68
:100C1000222361F4FA9419F42FEF3FEF4DC061E005
:100C200070E080E090E00E9485083BC0822F90E059
:100C3000C817D9070CF42C2FC21BD1094FB7F89451
:100C40009092E900A114B10421F406C01092F100C1
:100C500021502223D9F719C0E7FC03C0F801922FD5
:100C600010C0C801322F06C0FC010196E491E09348
:100C7000F10031503323C1F706C081918093F10018
:100C800091509923D1F7020F111D8091E80085FF43
:100C900005C0209729F4C114D10411F06092E80036
:100CA0004FBF209709F0A5CF5D9884E6809341025D
:100CB000282D372DC9019C01C901DF91CF911F91CA
:100CC0000F91FF90EF90DF90CF90BF90AF909F90EB
:100CD0008F907F906F905F9008951F920F920FB644
:100CE0000F9211242F933F934F935F936F937F93B2
:100CF0008F939F93AF93BF93EF93FF938091E10006
:100D00001092E100982F83FF0FC01092E90081E05C
:100D10008093EB001092EC0082E38093ED00109240
:100D2000430288E08093F00092FF34C083E0809318
:100D3000E9008091F200882319F08AE38093E800AB
:100D40008FB7F89492E09093E9009091F2008FBFF2
:100D5000992321F083E392E00E940A0480914102EA
:100D6000882351F08091410281508093410280910B
:100D70004102882309F45D9A80914202882351F050
:100D800080914202815080934202809142028823E6
:100D900009F4289AFF91EF91BF91AF919F918F91A4
:100DA0007F916F915F914F913F912F910F900FBE67
:100DB0000F901F9018950F931F93DF93CF930F926F
:100DC000CDB7DEB719828E010F5F1F4FC8010E9499
:100DD0003004C8010E946B0A898190E00F90CF9186
:100DE000DF911F910F9108951F920F920FB60F92EE
:100DF0001124EF92FF921F932F933F934F935F9392
:100E00006F937F938F939F93AF93BF93EF93FF93D2
:100E1000DF93CF93CDB7DEB76197DEBFCDBF109222
:100E2000E9008091E80083FF0FC1FE0131969E0129
:100E3000275F3F4F03C08091F1008193E217F307D2
:100E4000D1F7289884E68093420282EF8093E800ED
:100E5000998197FF05C08091E80080FFFCCF03C017
:100E60008EEF8093E800292F30E0C90180769070E2
:100E7000892B09F0C2C08A81882329F41092F100DD
:100E80001092F100D6C0813009F4D3C0833009F448
:100E9000D0C0853049F48091E80080FFFCCF8B8181
:100EA00080688093E300C5C0863009F07CC01C8157
:100EB000EF80F8841230C1F51092E90010924502DB
:100EC0001092440210924702109246020E94DB06E2
:100ED00099E0FE013996DF01292F1D922A95E9F745
:100EE00099871A8791E09E8790E8988B9AEF998B63
:100EF0002091440230914502275F3F4F3C872B876A
:100F00008D871092E9001092450210924402F092EF
:100F10004702E092460280E0BF0149E050E00E94B3
:100F200043050E94DB0685C01092E900109245023D
:100F300010924402F0924702E0924602123241F4CB
:100F400082E290E00E94630A892B09F476C071C0A6
:100F5000113079F488E0E816F10419F481E0809307
:100F6000480280914802882309F06BC0ECE2F1E06E
:100F700013C0133009F061C08B81882319F4EEEEA1
:100F8000F0E00AC0823019F4E2EFF0E005C08130F1
:100F900009F053C0E4E1F1E0449180E8BF0150E082
:100FA0000E94430546C0873009F447C0883021F4C9
:100FB00081E08093F1003DC08930D9F52370307015
:100FC000232BD9F5E1E5F1E091E031E026E39093C0
:100FD000E9003093EB0084918093EC002093ED00C6
:100FE0009F5F3196953099F78EE78093EA001092D3
:100FF000EA008B81809343021CC08F8198851092F8
:10100000E9001092450210924402909347028093A7
:1010100046028D81882329F4CE0101960E943C046A
:1010200006C0823051F4CE0101960E943409882313
:1010300021F08EEF8093E80007C081E28093EB00FF
:1010400003C0EEE3F1E0A8CF6196DEBFCDBFCF9144
:10105000DF91FF91EF91BF91AF919F918F917F9120
:101060006F915F914F913F912F911F91FF90EF9062
:101070000F900FBE0F901F9018951F920F920FB6F2
:101080000F9211242F933F938F939F93AF93BF930E
:1010900080914E0290914F02A0915002B091510266
:1010A000309152020196A11DB11D232F2D5F2D37C6
:1010B00020F02D570196A11DB11D2093520280935F
:1010C0004E0290934F02A0935002B0935102809130
:1010D0004A0290914B02A0914C02B0914D020196B0
:1010E000A11DB11D80934A0290934B02A0934C0224
:1010F000B0934D02BF91AF919F918F913F912F91EE
:101100000F900FBE0F901F9018959B01AC017FB7F9
:10111000F89480914A0290914B02A0914C02B091B8
:101120004D0266B5A89B05C06F3F19F00196A11D41
:10113000B11D7FBFBA2FA92F982F8827860F911D29
:10114000A11DB11D62E0880F991FAA1FBB1F6A95E0
:10115000D1F7BC012DC0FFB7F89480914A0290915D
:101160004B02A0914C02B0914D02E6B5A89B05C080
:10117000EF3F19F00196A11DB11DFFBFBA2FA92F96
:10118000982F88278E0F911DA11DB11DE2E0880FB9
:10119000991FAA1FBB1FEA95D1F7861B970B885E84
:1011A0009340C8F2215030404040504068517C4F3D
:1011B000211531054105510571F60895789484B5DE
:1011C000826084BD84B5816084BD85B5826085BD43
:1011D00085B5816085BDEEE6F0E080818160808329
:1011E000E1E8F0E01082808182608083808181600C
:1011F0008083E0E8F0E0808181608083E1E9F0E0D5
:10120000808182608083808181608083E0E9F0E07A
:10121000808181608083E1ECF0E080818460808364
:10122000808182608083808181608083E3ECF0E054
:10123000808181608083E0ECF0E080818260808347
:10124000E2ECF0E0808181608083EAE7F0E0808179
:1012500084608083808182608083808181608083DC
:101260008081806880830895FC0191818081813A2A
:1012700031F4913089F080E0933089F40DC08132EF
:1012800069F49B3021F4828180933A0105C09A3041
:1012900029F4828180933B0181E0089580E00895E4
:1012A000EF92FF920F931F938C01E62EDC01ED91DC
:1012B000FC910480F581E02D0995F82ED801ED917F
:1012C000FC910680F781E02DC8016E2D09958F2DC8
:1012D00090E01F910F91FF90EF90089510925302AC
:1012E00010925702109256028DE591E090935502AC
:1012F000809354020895EF92FF920F931F93DF9310
:10130000CF930F92CDB7DEB789838B017A0184E04A
:10131000BE016F5F7F4F41E050E00E94C80584E44A
:10132000B801A7010E94C8050F90CF91DF911F91CE
:101330000F91FF90EF90089582E048E050E00E9406
:101340007B090895FC011682178210861186128689
:10135000138614823496BF010E949C090895DC0113
:10136000683810F0685829C0E62FF0E067FF13C016
:10137000E058F04081E090E002C0880F991FEA95A4
:10138000E2F7809514962C911497282314962C93A9
:10139000149760E012C0ED52FE4F6491662319F479
:1013A00020E030E01DC067FF08C014968C911497B0
:1013B0008D7F14968C9314976F77FD0190E06623D0
:1013C00021F08681861709F416829F5F3196963048
:1013D000B1F7CD011496BD010E949C0921E030E0D7
:1013E000C9010895CF93DF93DC01683810F0685885
:1013F00025C0E62FF0E067FF12C0E058F04081E022
:1014000090E002C0880F991FEA95E2F714962C919C
:101410001497282B14962C93149760E00FC0ED526C
:10142000FE4F64916623D9F167FF08C014968C9132
:101430001497826014968C9314976F7716968C91FC
:1014400016978617A9F117968C911797861781F131
:1014500018968C911897861759F119968C911997AF
:10146000861731F11A968C911A97861709F11B96F7
:101470008C911B978617E1F0ED01E0E0F0E09E2FE4
:101480008E81882321F4EA0FFB1F668306C09F5FCD
:1014900031962196E630F10591F7963049F481E0D6
:1014A00090E013969C938E93129720E030E007C053
:1014B000CD011496BD010E949C0921E030E0C901D4
:1014C000DF91CF91089580E865E571E045E650E051
:1014D0000E9443050895FC0180818F5F808380E82E
:1014E0006AEB71E049E150E00E9443050895EE0F78
:0E14F000FF1F0590F491E02D0994F894FFCFB2
:1014FE001B5B41001B5B441B5B42001B5B306D00A2
:10150E000D0A000D0A0D0A001B5B44201B5B4400F4
:10151E001B5B346D001B5B32346D000D0A0A280014
:10152E000C1100E1000000000000010140726B216F
:10153E00001B5B33306D0000000000DE03A5047D50
:10154E0003A4038B0306040A04000000005009A53F
:08155E0004F209AF09A2090023
:00000001FF
