:100000000C942D010C9455010C9455010C94550140
:100010000C9455010C9455010C9455010C94550108
:100020000C9455010C9455010C94A5060C942C07C6
:100030000C9455010C9455010C9455010C945501E8
:100040000C9455010C9455010C9455010C945501D8
:100050000C9455010C9455010C9455010C947508A1
:100060000C9455010C9455010C9455010C945501B8
:100070000C9455010C9455010C9455010C945501A8
:100080000C9455010C9455010C9455010C94550198
:100090000C9455010C9455010C9455010C94550188
:1000A0000C9455010C9455010C945501080B000259
:1000B0000202010009040000010202000005240000
:1000C0001001052401010104240206052406000193
:1000D0000705810310004009040100020A00000026
:1000E00007050202400000070583024000000403E8
:1000F00009042203410072006400750069006E006B
:100100006F0020004C0065006F006E0061007200FF
:1001100064006F00180341007200640075006900FC
:100120006E006F0020004C004C00430012010002E2
:10013000000000404123368000010102000112014D
:10014000000202000040412336800001010200014C
:1001500000C18081C105010902A1010901A1008539
:100160000105091901290315002501950375018170
:10017000029501750581030501093009310938151A
:1001800081257F750895038106C0C005010906A178
:10019000018502050719E029E7150025017501957C
:1001A00008810295017508810395067508150025DB
:1001B000650507190029658100C0090402000103D3
:1001C00000000009210101000122650007058403E8
:1001D00040000100000000000000002A2B28000061
:1001E000000000000000000000000000000000000F
:1001F0000000002C9EB4A0A1A2A434A6A7A5AE36F0
:100200002D3738271E1F20212223242526B333B65D
:100210002EB7B89F8485868788898A8B8C8D8E8F30
:10022000909192939495969798999A9B9C9D2F3133
:1002300030A3AD350405060708090A0B0C0D0E0F97
:10024000101112131415161718191A1B1C1DAFB113
:10025000B0B500005B03E105A60911241FBECFEF76
:10026000DAE0DEBFCDBF11E0A0E0B1E0E0EFF5E104
:1002700002C005900D92A035B107D9F712E0A0E5B4
:10028000B1E001C01D92A630B107E1F712E0CAE566
:10029000D2E004C02297FE010E94F20AC435D107C1
:1002A000C9F70E9426040C94F60A0C940000FB0186
:1002B000DC0101900D920020E1F708950F931F9348
:1002C00088E2809352011092510109ED11E0C801BA
:1002D00060E875E20E9410034091150150911601EB
:1002E0006091170170911801C8012AE030E00E9466
:1002F000EB041F910F910895EF92FF921F93DF93EC
:10030000CF93CDB7DEB727970FB6F894DEBF0FBEF9
:10031000CDBF182F7E010894E11CF11CC70169E2D2
:1003200071E00E945701105D1C8389ED91E0B701D7
:100330000E942B0527960FB6F894DEBF0FBECDBFE7
:10034000CF91DF911F91FF90EF900895FF920F934F
:100350001F9389ED91E00E941103892B09F408C1D4
:1003600089ED91E00E943803182F882309F400C119
:1003700089E00E947C01E0919201EF3354F4EF5F39
:10038000E0939201FF27E7FDF095EE5AFE4F1083B0
:1003900009C081E080939201809191018093520184
:1003A00010935301103221F01C3211F000E001C013
:1003B00006E0812F80538A3020F486E00E947C0181
:1003C00004E0812F81528F3018F48750823068F416
:1003D000812F8B55863048F08F5D873030F0815407
:1003E000843018F0FF24F39405C0F090190181E0E7
:1003F000F82602E0812F81548A3340F4023091F0D4
:10040000F090190181E0F82601E002C0023051F0BD
:1004100080919301823049F4013039F480911901BF
:10042000882319F482E00E947C01183231F01932DD
:10043000A1F01D3009F04DC025C080E1809351012D
:10044000809150018F5F8093500118160CF08EC080
:1004500087708F5F0E947C0189C0809150011816BF
:1004600054F487708F5F0E947C018091500181500D
:100470008093500105C089E00E947C0110925001D8
:1004800005E046C089ED91E060E071E00E942B0537
:1004900010E008C0EE5AFE4F89ED91E060810E94A5
:1004A00063041F5FE12FF0E080919201992787FD9F
:1004B0009095E817F90774F31092920188E28093FF
:1004C000520189ED91E060E071E00E942B0506E0A9
:1004D0001FC00230E9F4809193018130C9F480910A
:1004E00019018823A9F489ED91E063E071E00E948D
:1004F0002B0582E00E947C01E0919201FF27E7FD3D
:10050000F095EF5AFE4F89ED91E060810E946304FF
:1005100080915101803141F4033031F089ED91E057
:1005200067E071E00E942B05E0919201FF27E7FD53
:10053000F095EE5AFE4F89ED91E060810E946304D0
:1005400080915101803169F480911901882349F427
:1005500089ED91E06CE071E00E942B0581E18093D0
:10056000510100939301F092190102C003E0D0CF32
:100570001F910F91FF900895809151018430A8F54B
:1005800080919401882389F589ED91E00E941103FF
:10059000892B59F189ED91E00E943803882329F1D4
:1005A000873551F088352CF48132B1F08034D9F49C
:1005B00005C08736C1F40AC081E005C080915101B1
:1005C000813089F482E0809351010FC08091510104
:1005D000823049F483E0F7CF80915101833019F4E0
:1005E00081E08093940110925101809194018823BD
:1005F000B1F080915101882381F489ED91E064E2AA
:1006000071E00E942B0589ED91E061E171E00E94AB
:100610002B0580E18093510108950E94A601089561
:1006200008952091D5013091D6018091D701909104
:10063000D801281B390B2F733070C9010895209100
:10064000D5013091D6018091D7019091D80128171A
:10065000390719F42FEF3FEF09C0E091D701F0916E
:10066000D801EB56FE4F8081282F30E0C901089554
:100670002091D5013091D6018091D7019091D80178
:100680002817390719F42FEF3FEF13C0E091D70176
:10069000F091D801EB56FE4F20818091D7019091C7
:1006A000D80101968F7390709093D8018093D701F1
:1006B00030E0C90108951092DC011092DB0188EE50
:1006C00093E0A0E0B0E08093DD019093DE01A09381
:1006D000DF01B093E00183E391E09093DA0180932E
:1006E000D90108950F931F93DF93CF930F92CDB746
:1006F000DEB78C01698380912101882369F083E052
:10070000BE016F5F7F4F41E050E00E940006181667
:10071000190614F49C0107C081E090E0F80193836E
:10072000828320E030E0C9010F90CF91DF911F91CB
:100730000F91089583E00E94D7050895CF93DF932A
:1007400012C082E00E9462052FEF8F3F9207C9F02E
:10075000E091D501F091D601EB56FE4F8083D09306
:10076000D601C093D501C091D501D091D601219673
:10077000CF73D0708091D7019091D801C817D90755
:1007800001F7DF91CF910895FC0180818E5F808316
:1007900080E86CEA70E042E450E00E947B05089536
:1007A000FC0181819081913A59F4813209F04CC069
:1007B00080E06AE171E047E050E00E947B0542C0C2
:1007C000913209F041C0803239F48AE191E067E06A
:1007D00070E00E94BF0536C0823209F035C08281C8
:1007E0008093210180911A0190911B01A0911C011D
:1007F000B0911D01805B9440A040B04019F58091FC
:10080000210180FD12C087E797E79093010880934C
:1008100000082BE088E190E00FB6F894A89580934B
:1008200060000FBE209360000DC088E10FB6F89401
:1008300080936000109260000FBEA895109201088E
:100840001092000881E0089580E00895CF93DF932F
:100850000E9416098FEE91E00E94E2050E945E015F
:10086000C0E0D0E00E94BC022097E1F30E940000AB
:10087000F9CFCF92DF92EF92FF920F931F93CF9316
:10088000DF937C016B018A01C0E0D0E00FC0D6018C
:100890006D916D01D701ED91FC910190F081E02DFA
:1008A000C7010995C80FD91F015010400115110546
:1008B00071F7CE01DF91CF911F910F91FF90EF90D3
:1008C000DF90CF900895DC01ED91FC910190F081D3
:1008D000E02D09950895CF93DF93EC016115710523
:1008E00019F420E030E00FC0DB010D900020E9F7A3
:1008F0001197A61BB70BE881F9810280F381E02DE7
:10090000AD0109959C01C901DF91CF9108954F92E6
:100910005F927F928F929F92AF92BF92CF92DF921F
:10092000EF92FF920F931F93DF93CF93CDB7DEB774
:10093000A1970FB6F894DEBF0FBECDBF2C01742E69
:10094000CB01223008F42AE019A231E2C32ED12CC7
:10095000CC0EDD1E822E9924AA24BB24672D752F70
:10096000A50194010E94CE0A79018A01C801B7014C
:10097000A50194010E94AF0A472D461B0894C108A7
:10098000D1084A3014F4405D01C0495CF60140834F
:10099000E114F1040105110521F07E2C5F2DC80141
:1009A000DDCFC201B6010E946B04A1960FB6F89488
:1009B000DEBF0FBECDBFCF91DF911F910F91FF9092
:1009C000EF90DF90CF90BF90AF909F908F907F90EF
:1009D0005F904F900895CF92DF92EF92FF920F9326
:1009E0001F93CF93DF93EC016A017B012115310541
:1009F00041F4E881F9810190F081E02D642F09959F
:100A00001FC02A303105D1F477FF17C0E881F98182
:100A10000190F081E02D6DE209958C014427552766
:100A2000BA014C195D096E097F09CE012AE00E94C6
:100A300087049801280F391F04C02AE00E94870408
:100A40009C01C901DF91CF911F910F91FF90EF9011
:100A5000DF90CF9008950E946B040895282F809115
:100A6000E9018823C1F057FF1AC015C02898909358
:100A7000E8018091F1008193E217F307B9F741157E
:100A8000510539F08091F200882319F48BE68093A8
:100A9000E800AFBF02C04FEF5FEFCA010895AFB7E4
:100AA000F89427702093E9008091F200282F30E01D
:100AB000241735070CF4A901FB019B01240F311DFC
:100AC00094E6DACFDF93CF930F92CDB7DEB7BE01B6
:100AD0006F5F7F4F41E050E00E942E05019719F0B3
:100AE0002FEF3FEF03C08981282F30E0C9010F901D
:100AF000CF91DF910895FF920F931F93F82E142F3B
:100B0000052F4091EC015091ED01212F302FC901AB
:100B1000DC01FB016EEF29C0F7FE02C0949101C019
:100B200090812091EA013091EB0124173507ACF454
:100B30008091E8008570E1F38091E80082FF03C0B6
:100B40002FEF3FEF17C09093F100C90101968F730B
:100B50009070892B11F46093E8002F5F3F4F309322
:100B6000EB012093EA01119731961097A9F6812F96
:100B7000902F9C01C9011F910F91FF9008959C0136
:100B80008091E80082FFFCCFF901260F311D03C0E0
:100B90008091F1008193E217F307D1F7289884E65A
:100BA0008093E8018BEF8093E800CB010895809358
:100BB000E9008091F200882319F08AE38093E8002D
:100BC000089508951092E90181E08093D70080EAAA
:100BD0008093D80082E189BD09B400FEFDCF61E0B9
:100BE00070E080E090E00E94BD0880E98093D8002A
:100BF0008CE08093E2001092E000559A209A0895CC
:100C00005F926F927F928F929F92AF92BF92CF929C
:100C1000DF92EF92FF920F931F93CF93DF93E82E13
:100C2000842E752E8091E901882371F18B01242F88
:100C3000352FC901EC017AEFF72E67E0962E9E2042
:100C400050E4552E8E2D90E040E2A42EB12CA82227
:100C5000B9223AE3632E20E4C22ED12CC822D92235
:100C600058C09FB7F8949092E9008091E80085FD04
:100C700002C020E004C08091F200252D281B9FBFF8
:100C8000222361F4FA9419F42FEF3FEF4DC061E095
:100C900070E080E090E00E94BD083BC0822F90E0B1
:100CA000C817D9070CF42C2FC21BD1094FB7F894E1
:100CB0009092E900A114B10421F406C01092F10051
:100CC00021502223D9F719C0E7FC03C0F801922F65
:100CD00010C0C801322F06C0FC010196E491E093D8
:100CE000F10031503323C1F706C081918093F100A8
:100CF00091509923D1F7020F111D8091E80085FFD3
:100D000005C0209729F4C114D10411F06092E800C5
:100D10004FBF209709F0A5CF5D9884E68093E70147
:100D2000282D372DC9019C01C901DF91CF911F9159
:100D30000F91FF90EF90DF90CF90BF90AF909F907A
:100D40008F907F906F905F9008951F920F920FB6D3
:100D50000F9211242F933F934F935F936F937F9341
:100D60008F939F93AF93BF93EF93FF938091E10095
:100D70001092E100982F83FF0FC01092E90081E0EC
:100D80008093EB001092EC0082E38093ED001092D0
:100D9000E90188E08093F00092FF34C083E0809303
:100DA000E9008091F200882319F08AE38093E8003B
:100DB0008FB7F89492E09093E9009091F2008FBF82
:100DC000992321F089ED91E00E949E038091E70133
:100DD000882351F08091E70181508093E701809151
:100DE000E701882309F45D9A8091E801882351F096
:100DF0008091E80181508093E8018091E801882387
:100E000009F4289AFF91EF91BF91AF919F918F9133
:100E10007F916F915F914F913F912F910F900FBEF6
:100E20000F901F9018950F931F93DF93CF930F92FE
:100E3000CDB7DEB719828E010F5F1F4FC8010E9428
:100E4000C403C8010E94A30A898190E00F90CF914A
:100E5000DF911F910F9108951F920F920FB60F927D
:100E60001124EF92FF921F932F933F934F935F9321
:100E70006F937F938F939F93AF93BF93EF93FF9362
:100E8000DF93CF93CDB7DEB76197DEBFCDBF1092B2
:100E9000E9008091E80083FF0FC1FE0131969E01B9
:100EA000275F3F4F03C08091F1008193E217F30762
:100EB000D1F7289884E68093E80182EF8093E800D8
:100EC000998197FF05C08091E80080FFFCCF03C0A7
:100ED0008EEF8093E800292F30E0C9018076907072
:100EE000892B09F0C2C08A81882329F41092F1006D
:100EF0001092F100D6C0813009F4D3C0833009F4D8
:100F0000D0C0853049F48091E80080FFFCCF8B8110
:100F100080688093E300C5C0863009F07CC01C81E6
:100F2000EF80F8841230C1F51092E9001092EB01C5
:100F30001092EA011092ED011092EC010E94130749
:100F400099E0FE013996DF01292F1D922A95E9F7D4
:100F500099871A8791E09E8790E8988B9AEF998BF2
:100F60002091EA013091EB01275F3F4F3C872B87AF
:100F70008D871092E9001092EB011092EA01F09235
:100F8000ED01E092EC0180E0BF0149E050E00E94F9
:100F90007B050E94130785C01092E9001092EB01B7
:100FA0001092EA01F092ED01E092EC01123241F46C
:100FB00082E290E00E949B0A892B09F476C071C0FE
:100FC000113079F488E0E816F10419F481E0809397
:100FD000EE018091EE01882309F06BC0ECE2F1E0B4
:100FE00013C0133009F061C08B81882319F4EEEE31
:100FF000F0E00AC0823019F4E2EFF0E005C0813081
:1010000009F053C0E4E1F1E0449180E8BF0150E011
:101010000E947B0546C0873009F447C0883021F420
:1010200081E08093F1003DC08930D9F523703070A4
:10103000232BD9F5E1E5F1E091E031E026E390934F
:10104000E9003093EB0084918093EC002093ED0055
:101050009F5F3196953099F78EE78093EA00109262
:10106000EA008B818093E9011CC08F8198851092E2
:10107000E9001092EB011092EA019093ED01809348
:10108000EC018D81882329F4CE0101960E94D003C2
:1010900006C0823051F4CE0101960E946C0988236B
:1010A00021F08EEF8093E80007C081E28093EB008F
:1010B00003C0EEE3F1E0A8CF6196DEBFCDBFCF91D4
:1010C000DF91FF91EF91BF91AF919F918F917F91B0
:1010D0006F915F914F913F912F911F91FF90EF90F2
:1010E0000F900FBE0F901F9018951F920F920FB682
:1010F0000F9211242F933F938F939F93AF93BF939E
:101100008091F4019091F501A091F601B091F70161
:101110003091F8010196A11DB11D232F2D5F2D37B0
:1011200020F02D570196A11DB11D2093F801809349
:10113000F4019093F501A093F601B093F70180912B
:10114000F0019091F101A091F201B091F3010196AB
:10115000A11DB11D8093F0019093F101A093F201C4
:10116000B093F301BF91AF919F918F913F912F91D8
:101170000F900FBE0F901F9018959B01AC017FB789
:10118000F8948091F0019091F101A091F201B09159
:10119000F30166B5A89B05C06F3F19F00196A11D2C
:1011A000B11D7FBFBA2FA92F982F8827860F911DB9
:1011B000A11DB11D62E0880F991FAA1FBB1F6A9570
:1011C000D1F7BC012DC0FFB7F8948091F001909148
:1011D000F101A091F201B091F301E6B5A89B05C021
:1011E000EF3F19F00196A11DB11DFFBFBA2FA92F26
:1011F000982F88278E0F911DA11DB11DE2E0880F49
:10120000991FAA1FBB1FEA95D1F7861B970B885E13
:101210009340C8F2215030404040504068517C4FCC
:10122000211531054105510571F60895789484B56D
:10123000826084BD84B5816084BD85B5826085BDD2
:1012400085B5816085BDEEE6F0E0808181608083B8
:10125000E1E8F0E01082808182608083808181609B
:101260008083E0E8F0E0808181608083E1E9F0E064
:10127000808182608083808181608083E0E9F0E00A
:10128000808181608083E1ECF0E0808184608083F4
:10129000808182608083808181608083E3ECF0E0E4
:1012A000808181608083E0ECF0E0808182608083D7
:1012B000E2ECF0E0808181608083EAE7F0E0808109
:1012C000846080838081826080838081816080836C
:1012D0008081806880830895FC0191818081813ABA
:1012E00031F4913089F080E0933089F40DC081327F
:1012F00069F49B3021F482818093220105C09A30E9
:1013000029F482818093230181E0089580E008958B
:10131000EF92FF920F931F938C01E62EDC01ED916B
:10132000FC910480F581E02D0995F82ED801ED910E
:10133000FC910680F781E02DC8016E2D09958F2D57
:1013400090E01F910F91FF90EF9008951092F90196
:101350001092FD011092FC0185E491E09093FB0155
:101360008093FA010895EF92FF920F931F93DF93FA
:10137000CF930F92CDB7DEB789838B017A0184E0DA
:10138000BE016F5F7F4F41E050E00E94000684E4A1
:10139000B801A7010E9400060F90CF91DF911F9125
:1013A0000F91FF90EF90089582E048E050E00E9496
:1013B000B3090895FC0116821782108611861286E1
:1013C000138614823496BF010E94D4090895DC016B
:1013D000683810F0685829C0E62FF0E067FF13C0A6
:1013E000E058F04081E090E002C0880F991FEA9534
:1013F000E2F7809514962C911497282314962C9339
:10140000149760E012C0ED52FE4F6491662319F408
:1014100020E030E01DC067FF08C014968C9114973F
:101420008D7F14968C9314976F77FD0190E066235F
:1014300021F08681861709F416829F5F31969630D7
:10144000B1F7CD011496BD010E94D40921E030E02E
:10145000C9010895CF93DF93DC01683810F0685814
:1014600025C0E62FF0E067FF12C0E058F04081E0B1
:1014700090E002C0880F991FEA95E2F714962C912C
:101480001497282B14962C93149760E00FC0ED52FC
:10149000FE4F64916623D9F167FF08C014968C91C2
:1014A0001497826014968C9314976F7716968C918C
:1014B00016978617A9F117968C911797861781F1C1
:1014C00018968C911897861759F119968C9119973F
:1014D000861731F11A968C911A97861709F11B9687
:1014E0008C911B978617E1F0ED01E0E0F0E09E2F74
:1014F0008E81882321F4EA0FFB1F668306C09F5F5D
:1015000031962196E630F10591F7963049F481E065
:1015100090E013969C938E93129720E030E007C0E2
:10152000CD011496BD010E94D40921E030E0C9012B
:10153000DF91CF91089580E865E571E045E650E0E0
:101540000E947B050895FC0180818F5F808380E885
:101550006AEB71E049E150E00E947B050895629FCB
:10156000D001739FF001829FE00DF11D649FE00D9B
:10157000F11D929FF00D839FF00D749FF00D659FFC
:10158000F00D9927729FB00DE11DF91F639FB00DFB
:10159000E11DF91FBD01CF0111240895A1E21A2E0A
:1015A000AA1BBB1BFD010DC0AA1FBB1FEE1FFF1F07
:1015B000A217B307E407F50720F0A21BB30BE40B57
:1015C000F50B661F771F881F991F1A9469F760959E
:1015D0007095809590959B01AC01BD01CF01089558
:1015E000EE0FFF1F0590F491E02D0994F894FFCFC2
:1015F0000D0A001B5B44001B5B346D001B5B306DF0
:10160000000D0A28002D0000000100E1000000008C
:101610000000010140726B21001B5B33306D000044
:1016200000000072033904110338031F039A039E5C
:101630000300000000880939042A0AE709DA0900D2
:00000001FF
