:100000000C942D010C9455010C9455010C94550140
:100010000C9455010C9455010C9455010C94550108
:100020000C9455010C9455010C9445060C94CC0687
:100030000C9455010C9455010C9455010C945501E8
:100040000C9455010C9455010C9455010C945501D8
:100050000C9455010C9455010C9455010C94150801
:100060000C9455010C9455010C9455010C945501B8
:100070000C9455010C9455010C9455010C945501A8
:100080000C9455010C9455010C9455010C94550198
:100090000C9455010C9455010C9455010C94550188
:1000A0000C9455010C9455010C945501080B000259
:1000B0000202010009040000010202000005240000
:1000C0001001052401010104240206052406000193
:1000D0000705810310004009040100020A00000026
:1000E00007050202400000070583024000000403E8
:1000F00009042203410072006400750069006E006B
:100100006F0020004C0065006F006E0061007200FF
:1001100064006F00180341007200640075006900FC
:100120006E006F0020004C004C00430012010002E2
:10013000000000404123368000010102000112014D
:10014000000202000040412336800001010200014C
:1001500000C18081C105010902A1010901A1008539
:100160000105091901290315002501950375018170
:10017000029501750581030501093009310938151A
:1001800081257F750895038106C0C005010906A178
:10019000018502050719E029E7150025017501957C
:1001A00008810295017508810395067508150025DB
:1001B000650507190029658100C0090402000103D3
:1001C00000000009210101000122650007058403E8
:1001D00040000100000000000000002A2B28000061
:1001E000000000000000000000000000000000000F
:1001F0000000002C9EB4A0A1A2A434A6A7A5AE36F0
:100200002D3738271E1F20212223242526B333B65D
:100210002EB7B89F8485868788898A8B8C8D8E8F30
:10022000909192939495969798999A9B9C9D2F3133
:1002300030A3AD350405060708090A0B0C0D0E0F97
:10024000101112131415161718191A1B1C1DAFB113
:10025000B0B500009F038105460911241FBECFEFF2
:10026000DAE0DEBFCDBF11E0A0E0B1E0EEEAF4E1FC
:1002700002C005900D92AE36B107D9F712E0AEE696
:10028000B1E001C01D92A536B107E1F712E0CAE561
:10029000D2E004C02297FE010E94510AC435D10762
:1002A000C9F70E946A040C94550A0C940000FB01E3
:1002B000DC0101900D920020E1F7089588E280931F
:1002C00071018093B10110926F0188E392E060E8C0
:1002D00075E20E9454030895EF92FF921F93DF93FB
:1002E000CF93CDB7DEB727970FB6F894DEBF0FBE1A
:1002F000CDBF182F7E010894E11CF11CC70168E4F2
:1003000071E00E945701105D1C8388E392E0B70101
:100310000E94CB0427960FB6F894DEBF0FBECDBF68
:10032000CF91DF911F91FF90EF9008950F931F934E
:1003300001E088E392E00E945503892B09F45DC136
:1003400088E392E00E947C03982F882309F455C12A
:10035000E091F101EF3354F4EF5FE093F101FF27F7
:10036000E7FDF095EF58FE4F808308C00093F10140
:100370008091B0018093710190937201309170016E
:1003800020913801223119F4B2C021E106C0243194
:1003900009F4B8C0213109F0AFC0892F80538A30E9
:1003A00010F010E003C014E030E022E1892F815208
:1003B0008F3018F48750823050F4892F8B55863057
:1003C00030F08F5D873018F08154843008F412E0EB
:1003D000892F81548A3318F4123009F011E09832D1
:1003E000A1F099322CF49D3071F1923249F405C09C
:1003F0009932D1F09F3721F455C030E024E182C01A
:10040000309370012093380182C0209338018CE032
:100410008093370181E08093700180916E018F5F3E
:1004200080936E0113E073C0309370012093380104
:1004300080916E0187FD02C0815001C08FEF8093D3
:100440006E0115E064C0309370012093380188E399
:1004500092E06BE071E00E94CB0488E392E060E1FF
:1004600071E00E94CB0410E008C0EF58FE4F88E313
:1004700092E060810E94A7041F5FE12FF0E080916D
:10048000F101992787FD9095E817F90774F38FEF2D
:100490008093F10188E392E060E171E00E94CB0477
:1004A00016E035C030937001209338019091F1012E
:1004B0009150E92FFF27E7FDF095EF58FE4FE081BF
:1004C000E83221F480916E01815005C0E93229F4AF
:1004D00080916E018F5F80936E0191509093F10136
:1004E00088E392E063E171E00E94CB0422CF892F80
:1004F00080538A3008F049CF30937001209338013F
:1005000010E005C0309370012093380117E080910E
:100510003801813179F4812F8150823070F48091DB
:100520007001882319F01092700107C081E0809358
:10053000700103C08EE0809337011430F1F0153064
:100540003CF4123071F0133074F4113039F507C0F7
:100550001630F1F01630ACF0173001F510C087E01E
:1005600007C082E005C080916E01181624F089E072
:100570000E946C0113C08770FBCF86E0F9CF83E047
:10058000F7CF80916E0187FDF2CF87708F5FF0CF3C
:1005900088E392E06BE071E00E94CB048091370128
:1005A0008C3019F08E3061F405C088E392E06BE185
:1005B00071E004C088E392E061E271E00E94CB0444
:1005C00080917001882329F088E392E067E271E06E
:1005D00004C088E392E06CE271E00E94CB041093C7
:1005E000F201E091F101FF27E7FDF095EF58FE4F92
:1005F00088E392E060810E94A7041F910F91089503
:1006000080916F018430ACF58091F301882389F5E6
:1006100088E392E00E945503892B59F188E392E028
:100620000E947C03882329F1873551F088352CF40A
:100630008132B1F08034D9F405C08736C1F40AC0E4
:1006400081E005C080916F01813089F482E0809360
:100650006F010FC080916F01823049F483E0F7CFC2
:1006600080916F01833019F481E08093F30110923F
:100670006F018091F3018823B1F080916F0188238D
:1006800081F488E392E063E471E00E94CB0488E3A4
:1006900092E062E371E00E94CB048CE080936F01F2
:1006A00008950E9496010895089520913402309192
:1006B00035028091360290913702281B390B2F7337
:1006C0003070C90108952091340230913502809133
:1006D0003602909137022817390719F42FEF3FEFB0
:1006E00009C0E0913602F0913702EC50FE4F808154
:1006F000282F30E0C901089520913402309135024D
:1007000080913602909137022817390719F42FEF9C
:100710003FEF13C0E0913602F0913702EC50FE4FEC
:100720002081809136029091370201968F739070EC
:10073000909337028093360230E0C90108951092F9
:100740003B0210923A0288EE93E0A0E0B0E0809382
:100750003C0290933D02A0933E02B0933F0282E59B
:1007600091E0909339028093380208950F931F937C
:10077000DF93CF930F92CDB7DEB78C016983809161
:100780004001882369F083E0BE016F5F7F4F41E045
:1007900050E00E94A0051816190614F49C0107C029
:1007A00081E090E0F8019383828320E030E0C9018A
:1007B0000F90CF91DF911F910F91089583E00E94D8
:1007C00077050895CF93DF9312C082E00E9402055F
:1007D0002FEF8F3F9207C9F0E0913402F09135027C
:1007E000EC50FE4F8083D0933502C0933402C09109
:1007F0003402D09135022196CF73D07080913602A9
:1008000090913702C817D90701F7DF91CF9108956A
:10081000FC0180818E5F808380E86CEA70E042E4B6
:1008200050E00E941B050895FC0181819081913A5E
:1008300059F4813209F04CC080E069E371E047E08F
:1008400050E00E941B0542C0913209F041C0803245
:1008500039F489E391E067E070E00E945F0536C0FB
:10086000823209F035C08281809340018091390144
:1008700090913A01A0913B01B0913C01805B944082
:10088000A040B04019F58091400180FD12C087E77B
:1008900097E790930108809300082BE088E190E0AF
:1008A0000FB6F894A895809360000FBE2093600067
:1008B0000DC088E10FB6F89480936000109260003C
:1008C0000FBEA895109201081092000881E00895CB
:1008D00080E00895CF93DF930E94B6088EE492E003
:1008E0000E9482050E945E01C0E0D0E00E940003E9
:1008F0002097E1F30E940000F9CFCF92DF92EF92B0
:10090000FF920F931F93CF93DF937C016B018A01BA
:10091000C0E0D0E00FC0D6016D916D01D701ED911F
:10092000FC910190F081E02DC7010995C80FD91FF6
:10093000015010400115110571F7CE01DF91CF91E3
:100940001F910F91FF90EF90DF90CF900895DC0101
:10095000ED91FC910190F081E02D09950895CF93E0
:10096000DF93EC016115710519F420E030E00FC050
:10097000DB010D900020E9F71197A61BB70BE8816A
:10098000F9810280F381E02DAD0109959C01C90137
:10099000DF91CF9108950E94AF040895282F809190
:1009A00048028823C1F057FF1AC015C028989093B9
:1009B00047028091F1008193E217F307B9F74115DF
:1009C000510539F08091F200882319F48BE6809369
:1009D000E800AFBF02C04FEF5FEFCA010895AFB7A5
:1009E000F89427702093E9008091F200282F30E0DE
:1009F000241735070CF4A901FB019B01240F311DBD
:100A000094E6DACFDF93CF930F92CDB7DEB7BE0176
:100A10006F5F7F4F41E050E00E94CE04019719F0D4
:100A20002FEF3FEF03C08981282F30E0C9010F90DD
:100A3000CF91DF910895FF920F931F93F82E142FFB
:100A4000052F40914B0250914C02212F302FC901AC
:100A5000DC01FB016EEF29C0F7FE02C0949101C0DA
:100A600090812091490230914A0224173507ACF455
:100A70008091E8008570E1F38091E80082FF03C077
:100A80002FEF3FEF17C09093F100C90101968F73CC
:100A90009070892B11F46093E8002F5F3F4F3093E3
:100AA0004A0220934902119731961097A9F6812F97
:100AB000902F9C01C9011F910F91FF9008959C01F7
:100AC0008091E80082FFFCCFF901260F311D03C0A1
:100AD0008091F1008193E217F307D1F7289884E61B
:100AE000809347028BEF8093E800CB0108958093B9
:100AF000E9008091F200882319F08AE38093E800EE
:100B0000089508951092480281E08093D70080EA0A
:100B10008093D80082E189BD09B400FEFDCF61E079
:100B200070E080E090E00E945D0880E98093D8004A
:100B30008CE08093E2001092E000559A209A08958C
:100B40005F926F927F928F929F92AF92BF92CF925D
:100B5000DF92EF92FF920F931F93CF93DF93E82ED4
:100B6000842E752E80914802882371F18B01242FE9
:100B7000352FC901EC017AEFF72E67E0962E9E2003
:100B800050E4552E8E2D90E040E2A42EB12CA822E8
:100B9000B9223AE3632E20E4C22ED12CC822D922F6
:100BA00058C09FB7F8949092E9008091E80085FDC5
:100BB00002C020E004C08091F200252D281B9FBFB9
:100BC000222361F4FA9419F42FEF3FEF4DC061E056
:100BD00070E080E090E00E945D083BC0822F90E0D2
:100BE000C817D9070CF42C2FC21BD1094FB7F894A2
:100BF0009092E900A114B10421F406C01092F10012
:100C000021502223D9F719C0E7FC03C0F801922F25
:100C100010C0C801322F06C0FC010196E491E09398
:100C2000F10031503323C1F706C081918093F10068
:100C300091509923D1F7020F111D8091E80085FF93
:100C400005C0209729F4C114D10411F06092E80086
:100C50004FBF209709F0A5CF5D9884E680934602A8
:100C6000282D372DC9019C01C901DF91CF911F911A
:100C70000F91FF90EF90DF90CF90BF90AF909F903B
:100C80008F907F906F905F9008951F920F920FB694
:100C90000F9211242F933F934F935F936F937F9302
:100CA0008F939F93AF93BF93EF93FF938091E10056
:100CB0001092E100982F83FF0FC01092E90081E0AD
:100CC0008093EB001092EC0082E38093ED00109291
:100CD000480288E08093F00092FF34C083E0809364
:100CE000E9008091F200882319F08AE38093E800FC
:100CF0008FB7F89492E09093E9009091F2008FBF43
:100D0000992321F088E392E00E94E2038091460259
:100D1000882351F080914602815080934602809151
:100D20004602882309F45D9A80914702882351F096
:100D30008091470281508093470280914702882327
:100D400009F4289AFF91EF91BF91AF919F918F91F4
:100D50007F916F915F914F913F912F910F900FBEB7
:100D60000F901F9018950F931F93DF93CF930F92BF
:100D7000CDB7DEB719828E010F5F1F4FC8010E94E9
:100D80000804C8010E94430A898190E00F90CF9126
:100D9000DF911F910F9108951F920F920FB60F923E
:100DA0001124EF92FF921F932F933F934F935F93E2
:100DB0006F937F938F939F93AF93BF93EF93FF9323
:100DC000DF93CF93CDB7DEB76197DEBFCDBF109273
:100DD000E9008091E80083FF0FC1FE0131969E017A
:100DE000275F3F4F03C08091F1008193E217F30723
:100DF000D1F7289884E68093470282EF8093E80039
:100E0000998197FF05C08091E80080FFFCCF03C067
:100E10008EEF8093E800292F30E0C9018076907032
:100E2000892B09F0C2C08A81882329F41092F1002D
:100E30001092F100D6C0813009F4D3C0833009F498
:100E4000D0C0853049F48091E80080FFFCCF8B81D1
:100E500080688093E300C5C0863009F07CC01C81A7
:100E6000EF80F8841230C1F51092E90010924A0226
:100E70001092490210924C0210924B020E94B3064B
:100E800099E0FE013996DF01292F1D922A95E9F795
:100E900099871A8791E09E8790E8988B9AEF998BB3
:100EA0002091490230914A02275F3F4F3C872B87B0
:100EB0008D871092E90010924A0210924902F09236
:100EC0004C02E0924B0280E0BF0149E050E00E94FA
:100ED0001B050E94B30685C01092E90010924A02D9
:100EE00010924902F0924C02E0924B02123241F40D
:100EF00082E290E00E943B0A892B09F476C071C01F
:100F0000113079F488E0E816F10419F481E0809357
:100F10004D0280914D02882309F06BC0ECE2F1E0B4
:100F200013C0133009F061C08B81882319F4EEEEF1
:100F3000F0E00AC0823019F4E2EFF0E005C0813041
:100F400009F053C0E4E1F1E0449180E8BF0150E0D2
:100F50000E941B0546C0873009F447C0883021F441
:100F600081E08093F1003DC08930D9F52370307065
:100F7000232BD9F5E1E5F1E091E031E026E3909310
:100F8000E9003093EB0084918093EC002093ED0016
:100F90009F5F3196953099F78EE78093EA00109223
:100FA000EA008B81809348021CC08F819885109243
:100FB000E90010924A021092490290934C028093E9
:100FC0004B028D81882329F4CE0101960E941404DE
:100FD00006C0823051F4CE0101960E940C0988238C
:100FE00021F08EEF8093E80007C081E28093EB0050
:100FF00003C0EEE3F1E0A8CF6196DEBFCDBFCF9195
:10100000DF91FF91EF91BF91AF919F918F917F9170
:101010006F915F914F913F912F911F91FF90EF90B2
:101020000F900FBE0F901F9018951F920F920FB642
:101030000F9211242F933F938F939F93AF93BF935E
:101040008091530290915402A0915502B0915602A2
:10105000309157020196A11DB11D232F2D5F2D3711
:1010600020F02D570196A11DB11D209357028093AA
:10107000530290935402A0935502B093560280916C
:101080004F0290915002A0915102B09152020196EC
:10109000A11DB11D80934F0290935002A093510265
:1010A000B0935202BF91AF919F918F913F912F9139
:1010B0000F900FBE0F901F9018959B01AC017FB74A
:1010C000F89480914F0290915002A0915102B091FA
:1010D000520266B5A89B05C06F3F19F00196A11D8D
:1010E000B11D7FBFBA2FA92F982F8827860F911D7A
:1010F000A11DB11D62E0880F991FAA1FBB1F6A9531
:10110000D1F7BC012DC0FFB7F89480914F029091A8
:101110005002A0915102B0915202E6B5A89B05C0C1
:10112000EF3F19F00196A11DB11DFFBFBA2FA92FE6
:10113000982F88278E0F911DA11DB11DE2E0880F09
:10114000991FAA1FBB1FEA95D1F7861B970B885ED4
:101150009340C8F2215030404040504068517C4F8D
:10116000211531054105510571F60895789484B52E
:10117000826084BD84B5816084BD85B5826085BD93
:1011800085B5816085BDEEE6F0E080818160808379
:10119000E1E8F0E01082808182608083808181605C
:1011A0008083E0E8F0E0808181608083E1E9F0E025
:1011B000808182608083808181608083E0E9F0E0CB
:1011C000808181608083E1ECF0E0808184608083B5
:1011D000808182608083808181608083E3ECF0E0A5
:1011E000808181608083E0ECF0E080818260808398
:1011F000E2ECF0E0808181608083EAE7F0E08081CA
:10120000846080838081826080838081816080832C
:101210008081806880830895FC0191818081813A7A
:1012200031F4913089F080E0933089F40DC081323F
:1012300069F49B3021F482818093410105C09A308A
:1012400029F482818093420181E0089580E008952D
:10125000EF92FF920F931F938C01E62EDC01ED912C
:10126000FC910480F581E02D0995F82ED801ED91CF
:10127000FC910680F781E02DC8016E2D09958F2D18
:1012800090E01F910F91FF90EF90089510925802F7
:1012900010925C0210925B0284E691E090935A02F5
:1012A000809359020895EF92FF920F931F93DF935B
:1012B000CF930F92CDB7DEB789838B017A0184E09B
:1012C000BE016F5F7F4F41E050E00E94A00584E4C3
:1012D000B801A7010E94A0050F90CF91DF911F9147
:1012E0000F91FF90EF90089582E048E050E00E9457
:1012F00053090895FC011682178210861186128602
:10130000138614823496BF010E9474090895DC018B
:10131000683810F0685829C0E62FF0E067FF13C066
:10132000E058F04081E090E002C0880F991FEA95F4
:10133000E2F7809514962C911497282314962C93F9
:10134000149760E012C0ED52FE4F6491662319F4C9
:1013500020E030E01DC067FF08C014968C91149700
:101360008D7F14968C9314976F77FD0190E0662320
:1013700021F08681861709F416829F5F3196963098
:10138000B1F7CD011496BD010E94740921E030E04F
:10139000C9010895CF93DF93DC01683810F06858D5
:1013A00025C0E62FF0E067FF12C0E058F04081E072
:1013B00090E002C0880F991FEA95E2F714962C91ED
:1013C0001497282B14962C93149760E00FC0ED52BD
:1013D000FE4F64916623D9F167FF08C014968C9183
:1013E0001497826014968C9314976F7716968C914D
:1013F00016978617A9F117968C911797861781F182
:1014000018968C911897861759F119968C911997FF
:10141000861731F11A968C911A97861709F11B9647
:101420008C911B978617E1F0ED01E0E0F0E09E2F34
:101430008E81882321F4EA0FFB1F668306C09F5F1D
:1014400031962196E630F10591F7963049F481E026
:1014500090E013969C938E93129720E030E007C0A3
:10146000CD011496BD010E94740921E030E0C9014C
:10147000DF91CF91089580E865E571E045E650E0A1
:101480000E941B050895FC0180818F5F808380E8A6
:101490006AEB71E049E150E00E941B050895EE0FF0
:0E14A000FF1F0590F491E02D0994F894FFCF02
:1014AE001B5B41001B5B441B5B42001B5B306D00F2
:1014BE000D0A001B5B44201B5B44001B5B34366D26
:1014CE00001B5B34396D001B5B346D001B5B3234CB
:1014DE006D000D0A0A28000C1100E100000000004A
:1014EE0000010140726B21001B5B33306D00000068
:1014FE000000B6037D0455037C036303DE03E203A1
:0E150E000000000028097D04CA0987097A0937
:00000001FF
