:100000000C942D010C9455010C9455010C94550140
:100010000C9455010C9455010C9455010C94550108
:100020000C9455010C9455010C94D3050C945A066C
:100030000C9455010C9455010C9455010C945501E8
:100040000C9455010C9455010C9455010C945501D8
:100050000C9455010C9455010C9455010C94A30774
:100060000C9455010C9455010C9455010C945501B8
:100070000C9455010C9455010C9455010C945501A8
:100080000C9455010C9455010C9455010C94550198
:100090000C9455010C9455010C9455010C94550188
:1000A0000C9455010C9455010C945501080B000259
:1000B0000202010009040000010202000005240000
:1000C0001001052401010104240206052406000193
:1000D0000705810310004009040100020A00000026
:1000E00007050202400000070583024000000403E8
:1000F00009042203410072006400750069006E006B
:100100006F0020004C0065006F006E0061007200FF
:1001100064006F00180341007200640075006900FC
:100120006E006F0020004C004C00430012010002E2
:10013000000000404123368000010102000112014D
:10014000000202000040412336800001010200014C
:1001500000C18081C105010902A1010901A1008539
:100160000105091901290315002501950375018170
:10017000029501750581030501093009310938151A
:1001800081257F750895038106C0C005010906A178
:10019000018502050719E029E7150025017501957C
:1001A00008810295017508810395067508150025DB
:1001B000650507190029658100C0090402000103D3
:1001C00000000009210101000122650007058403E8
:1001D00040000100000000000000002A2B28000061
:1001E000000000000000000000000000000000000F
:1001F0000000002C9EB4A0A1A2A434A6A7A5AE36F0
:100200002D3738271E1F20212223242526B333B65D
:100210002EB7B89F8485868788898A8B8C8D8E8F30
:10022000909192939495969798999A9B9C9D2F3133
:1002300030A3AD350405060708090A0B0C0D0E0F97
:10024000101112131415161718191A1B1C1DAFB113
:10025000B0B500002D030F05D40811241FBECFEF49
:10026000DAE0DEBFCDBF11E0A0E0B1E0ECEFF3E1FA
:1002700002C005900D92A234B107D9F712E0A2E4B2
:10028000B1E001C01D92AB33B107E1F712E0CAE55E
:10029000D2E004C02297FE010E94F809C435D107BC
:1002A000C9F70E94F8030C94FC090C940000FB01B0
:1002B000DC0101900D920020E1F7089588E280931F
:1002C000470180938701109243018EE092E060E83D
:1002D00075E20E94E2020895EF92FF921F93DF936E
:1002E000CF93CDB7DEB727970FB6F894DEBF0FBE1A
:1002F000CDBF182F7E010894E11CF11CC7016BE1F2
:1003000071E00E945701105D1C838EE092E0B701FE
:100310000E94590427960FB6F894DEBF0FBECDBFDA
:10032000CF91DF911F91FF90EF9008951F938EE082
:1003300092E00E94E302892B09F4EEC08EE092E085
:100340000E940A03982F882309F4E6C0E091C701B0
:10035000EF3354F4EF5FE093C701FF27E7FDF0951B
:10036000E95BFE4F808309C081E08093C7018091E3
:1003700086018093470190934801E091C801EF33D3
:1003800054F4EF5FE093C801FF27E7FDF095E957CC
:10039000FE4F908309C081E08093C8018091C6011F
:1003A0008093870190938801892F80538A3010F0C1
:1003B00020E007C084E08093440182E180934601FD
:1003C00022E1892F81528F3018F48750823050F407
:1003D000892F8B55863030F08F5D873018F081542F
:1003E000843038F482E08093440181E180934601B7
:1003F00022E0892F81548A3340F4223031F081E0A9
:100400008093440181E180934601983261F09932F2
:1004100024F49D3009F04FC01FC0993269F09F3716
:1004200009F049C042C083E08093440190934501A4
:10043000809142018F5F0DC085E08093440181E18E
:10044000809346018091420187FD02C0815001C026
:100450008FEF809342012FC081E1809346018EE0AF
:1004600092E060E071E00E94590410E008C0E95B8E
:10047000FE4F8EE092E060810E9435041F5FE12F05
:10048000F0E08091C701992787FD9095E817F9075B
:1004900074F31092C70188E280934701809345016D
:1004A0008EE092E060E071E004C08EE092E063E0F4
:1004B00071E00E94590480914401833071F08430CE
:1004C0002CF48130B9F08230D9F405C0843061F069
:1004D0008530B1F40BC082E011C08091420168E028
:1004E0000E94DD09892F0AC086E008C08091420180
:1004F00087FF02C089E002C087708F5F0E946C0195
:10050000E091C701FF27E7FDF095E95BFE4F8EE024
:1005100092E060810E9435041F910895809143010B
:100520008430ACF58091C901882389F58EE092E092
:100530000E94E302892B59F18EE092E00E940A03A7
:10054000882329F1873551F088352CF48132B1F0B8
:100550008034D9F405C08736C1F40AC081E005C0F3
:1005600080914301813089F482E0809343010FC080
:1005700080914301823049F483E0F7CF80914301B9
:10058000833019F481E08093C90110924301809176
:10059000C9018823B1F080914301882381F48EE062
:1005A00092E066E171E00E9459048EE092E068E01A
:1005B00071E00E94590480E28093430108950E94F3
:1005C00096010895089520910A0230910B028091BE
:1005D0000C0290910D02281B390B2F733070C9014A
:1005E000089520910A0230910B0280910C029091A3
:1005F0000D022817390719F42FEF3FEF09C0E091DA
:100600000C02F0910D02E653FE4F8081282F30E05E
:10061000C901089520910A0230910B0280910C02C9
:1006200090910D022817390719F42FEF3FEF13C0EF
:10063000E0910C02F0910D02E653FE4F2081809173
:100640000C0290910D0201968F73907090930D02A1
:1006500080930C0230E0C9010895109211021092AB
:10066000100288EE93E0A0E0B0E080931202909335
:100670001302A0931402B093150285E291E09093C7
:100680000F0280930E0208950F931F93DF93CF9371
:100690000F92CDB7DEB78C01698380911301882357
:1006A00069F083E0BE016F5F7F4F41E050E00E9440
:1006B0002E051816190614F49C0107C081E090E07D
:1006C000F8019383828320E030E0C9010F90CF913D
:1006D000DF911F910F91089583E00E940505089511
:1006E000CF93DF9312C082E00E9490042FEF8F3FE0
:1006F0009207C9F0E0910A02F0910B02E653FE4F17
:100700008083D0930B02C0930A02C0910A02D09159
:100710000B022196CF73D07080910C0290910D0244
:10072000C817D90701F7DF91CF910895FC018081A7
:100730008E5F808380E86CEA70E042E450E00E94C3
:10074000A9040895FC0181819081913A59F4813284
:1007500009F04CC080E06CE071E047E050E00E949E
:10076000A90442C0913209F041C0803239F48CE0D2
:1007700091E067E070E00E94ED0436C0823209F03B
:1007800035C082818093130180910C0190910D01FD
:10079000A0910E01B0910F01805B9440A040B04049
:1007A00019F58091130180FD12C087E797E79093B8
:1007B0000108809300082BE088E190E00FB6F894E0
:1007C000A895809360000FBE209360000DC088E163
:1007D0000FB6F89480936000109260000FBEA89549
:1007E000109201081092000881E0089580E00895B9
:1007F000CF93DF930E94440884E292E00E941005A8
:100800000E945E01C0E0D0E00E948E022097E1F3DA
:100810000E940000F9CFCF92DF92EF92FF920F93E8
:100820001F93CF93DF937C016B018A01C0E0D0E07E
:100830000FC0D6016D916D01D701ED91FC91019032
:10084000F081E02DC7010995C80FD91F0150104054
:100850000115110571F7CE01DF91CF911F910F9115
:10086000FF90EF90DF90CF900895DC01ED91FC9127
:100870000190F081E02D09950895CF93DF93EC016D
:100880006115710519F420E030E00FC0DB010D9017
:100890000020E9F71197A61BB70BE881F9810280C8
:1008A000F381E02DAD0109959C01C901DF91CF9144
:1008B00008950E943D040895282F80911E028823E8
:1008C000C1F057FF1AC015C0289890931D0280915F
:1008D000F1008193E217F307B9F74115510539F09B
:1008E0008091F200882319F48BE68093E800AFBF73
:1008F00002C04FEF5FEFCA010895AFB7F8942770B9
:100900002093E9008091F200282F30E0241735076A
:100910000CF4A901FB019B01240F311D94E6DACFF1
:10092000DF93CF930F92CDB7DEB7BE016F5F7F4FDE
:1009300041E050E00E945C04019719F02FEF3FEF77
:1009400003C08981282F30E0C9010F90CF91DF913A
:100950000895FF920F931F93F82E142F052F4091A7
:10096000210250912202212F302FC901DC01FB010D
:100970006EEF29C0F7FE02C0949101C090812091D2
:100980001F023091200224173507ACF48091E80053
:100990008570E1F38091E80082FF03C02FEF3FEF05
:1009A00017C09093F100C90101968F739070892B45
:1009B00011F46093E8002F5F3F4F309320022093A3
:1009C0001F02119731961097A9F6812F902F9C0145
:1009D000C9011F910F91FF9008959C018091E8003B
:1009E00082FFFCCFF901260F311D03C08091F10079
:1009F0008193E217F307D1F7289884E680931D02CC
:100A00008BEF8093E800CB0108958093E9008091FB
:100A1000F200882319F08AE38093E800089508958E
:100A200010921E0281E08093D70080EA8093D80064
:100A300082E189BD09B400FEFDCF61E070E080E095
:100A400090E00E94EB0780E98093D8008CE08093CF
:100A5000E2001092E000559A209A08955F926F92FA
:100A60007F928F929F92AF92BF92CF92DF92EF923E
:100A7000FF920F931F93CF93DF93E82E842E752E52
:100A800080911E02882371F18B01242F352FC9011B
:100A9000EC017AEFF72E67E0962E9E2050E4552E5B
:100AA0008E2D90E040E2A42EB12CA822B9223AE388
:100AB000632E20E4C22ED12CC822D92258C09FB761
:100AC000F8949092E9008091E80085FD02C020E052
:100AD00004C08091F200252D281B9FBF222361F4C2
:100AE000FA9419F42FEF3FEF4DC061E070E080E021
:100AF00090E00E94EB073BC0822F90E0C817D90717
:100B00000CF42C2FC21BD1094FB7F8949092E90036
:100B1000A114B10421F406C01092F1002150222347
:100B2000D9F719C0E7FC03C0F801922F10C0C80123
:100B3000322F06C0FC010196E491E093F1003150A0
:100B40003323C1F706C081918093F100915099231E
:100B5000D1F7020F111D8091E80085FF05C0209795
:100B600029F4C114D10411F06092E8004FBF20971E
:100B700009F0A5CF5D9884E680931C02282D372DBF
:100B8000C9019C01C901DF91CF911F910F91FF9085
:100B9000EF90DF90CF90BF90AF909F908F907F901D
:100BA0006F905F9008951F920F920FB60F921124CD
:100BB0002F933F934F935F936F937F938F939F9365
:100BC000AF93BF93EF93FF938091E1001092E10008
:100BD000982F83FF0FC01092E90081E08093EB0013
:100BE0001092EC0082E38093ED0010921E0288E0E8
:100BF0008093F00092FF34C083E08093E9008091FD
:100C0000F200882319F08AE38093E8008FB7F89404
:100C100092E09093E9009091F2008FBF992321F028
:100C20008EE092E00E94700380911C02882351F0B4
:100C300080911C02815080931C0280911C028823A9
:100C400009F45D9A80911D02882351F080911D0264
:100C5000815080931D0280911D02882309F4289AF7
:100C6000FF91EF91BF91AF919F918F917F916F9184
:100C70005F914F913F912F910F900FBE0F901F905A
:100C800018950F931F93DF93CF930F92CDB7DEB7D5
:100C900019828E010F5F1F4FC8010E949603C80181
:100CA0000E94D109898190E00F90CF91DF911F912F
:100CB0000F9108951F920F920FB60F921124EF9289
:100CC000FF921F932F933F934F935F936F937F9365
:100CD0008F939F93AF93BF93EF93FF93DF93CF9344
:100CE000CDB7DEB76197DEBFCDBF1092E90080912E
:100CF000E80083FF0FC1FE0131969E01275F3F4F41
:100D000003C08091F1008193E217F307D1F728988F
:100D100084E680931D0282EF8093E800998197FF1B
:100D200005C08091E80080FFFCCF03C08EEF809368
:100D3000E800292F30E0C90180769070892B09F0F6
:100D4000C2C08A81882329F41092F1001092F10028
:100D5000D6C0813009F4D3C0833009F4D0C08530C7
:100D600049F48091E80080FFFCCF8B8180688093FC
:100D7000E300C5C0863009F07CC01C81EF80F88498
:100D80001230C1F51092E9001092200210921F0259
:100D900010922202109221020E94410699E0FE0167
:100DA0003996DF01292F1D922A95E9F799871A872D
:100DB00091E09E8790E8988B9AEF998B20911F0283
:100DC00030912002275F3F4F3C872B878D87109201
:100DD000E9001092200210921F02F0922202E0928B
:100DE000210280E0BF0149E050E00E94A9040E9476
:100DF000410685C01092E9001092200210921F0255
:100E0000F0922202E0922102123241F482E290E05A
:100E10000E94C909892B09F476C071C0113079F498
:100E200088E0E816F10419F481E0809323028091B0
:100E30002302882309F06BC0ECE2F1E013C0133009
:100E400009F061C08B81882319F4EEEEF0E00AC04E
:100E5000823019F4E2EFF0E005C0813009F053C0B0
:100E6000E4E1F1E0449180E8BF0150E00E94A90470
:100E700046C0873009F447C0883021F481E0809370
:100E8000F1003DC08930D9F523703070232BD9F59E
:100E9000E1E5F1E091E031E026E39093E900309361
:100EA000EB0084918093EC002093ED009F5F3196DE
:100EB000953099F78EE78093EA001092EA008B81D3
:100EC00080931E021CC08F8198851092E9001092B9
:100ED000200210921F0290932202809321028D81A2
:100EE000882329F4CE0101960E94A20306C0823015
:100EF00051F4CE0101960E949A08882321F08EEFCA
:100F00008093E80007C081E28093EB0003C0EEE32A
:100F1000F1E0A8CF6196DEBFCDBFCF91DF91FF9109
:100F2000EF91BF91AF919F918F917F916F915F9161
:100F30004F913F912F911F91FF90EF900F900FBE17
:100F40000F901F9018951F920F920FB60F921124B9
:100F50002F933F938F939F93AF93BF9380912902D9
:100F600090912A02A0912B02B0912C0230912D0277
:100F70000196A11DB11D232F2D5F2D3720F02D5778
:100F80000196A11DB11D20932D02809329029093FB
:100F90002A02A0932B02B0932C02809125029091FB
:100FA0002602A0912702B09128020196A11DB11D31
:100FB0008093250290932602A0932702B0932802E3
:100FC000BF91AF919F918F913F912F910F900FBE45
:100FD0000F901F9018959B01AC017FB7F8948091FA
:100FE000250290912602A0912702B091280266B5B1
:100FF000A89B05C06F3F19F00196A11DB11D7FBFD1
:10100000BA2FA92F982F8827860F911DA11DB11DDA
:1010100062E0880F991FAA1FBB1F6A95D1F7BC0118
:101020002DC0FFB7F8948091250290912602A091DF
:101030002702B0912802E6B5A89B05C0EF3F19F042
:101040000196A11DB11DFFBFBA2FA92F982F882788
:101050008E0F911DA11DB11DE2E0880F991FAA1FDF
:10106000BB1FEA95D1F7861B970B885E9340C8F2A9
:10107000215030404040504068517C4F211531058F
:101080004105510571F60895789484B5826084BD58
:1010900084B5816084BD85B5826085BD85B581607C
:1010A00085BDEEE6F0E0808181608083E1E8F0E0DC
:1010B0001082808182608083808181608083E0E80B
:1010C000F0E0808181608083E1E9F0E080818260EE
:1010D0008083808181608083E0E9F0E080818160AD
:1010E0008083E1ECF0E08081846080838081826095
:1010F0008083808181608083E3ECF0E08081816087
:101100008083E0ECF0E0808182608083E2ECF0E0BC
:10111000808181608083EAE7F0E080818460808361
:10112000808182608083808181608083808180680B
:1011300080830895FC0191818081813A31F491305E
:1011400089F080E0933089F40DC0813269F49B30DE
:1011500021F482818093140105C09A3029F48281A0
:101160008093150181E0089580E00895EF92FF9249
:101170000F931F938C01E62EDC01ED91FC9104800E
:10118000F581E02D0995F82ED801ED91FC910680AE
:10119000F781E02DC8016E2D09958F2D90E01F91EC
:1011A0000F91FF90EF90089510922E02109232024C
:1011B0001092310287E391E09093300280932F02E6
:1011C0000895EF92FF920F931F93DF93CF930F92A7
:1011D000CDB7DEB789838B017A0184E0BE016F5FF2
:1011E0007F4F41E050E00E942E0584E4B801A70142
:1011F0000E942E050F90CF91DF911F910F91FF90CC
:10120000EF90089582E048E050E00E94E1080895E0
:10121000FC011682178210861186128613861482AC
:101220003496BF010E9402090895DC01683810F06D
:10123000685829C0E62FF0E067FF13C0E058F0407F
:1012400081E090E002C0880F991FEA95E2F780954F
:1012500014962C911497282314962C93149760E0DD
:1012600012C0ED52FE4F6491662319F420E030E085
:101270001DC067FF08C014968C9114978D7F14963B
:101280008C9314976F77FD0190E0662321F086819F
:10129000861709F416829F5F31969630B1F7CD011B
:1012A0001496BD010E94020921E030E0C9010895B1
:1012B000CF93DF93DC01683810F0685825C0E62F23
:1012C000F0E067FF12C0E058F04081E090E002C01B
:1012D000880F991FEA95E2F714962C911497282B02
:1012E00014962C93149760E00FC0ED52FE4F64915A
:1012F0006623D9F167FF08C014968C911497826019
:1013000014968C9314976F7716968C911697861770
:10131000A9F117968C911797861781F118968C91E1
:101320001897861759F119968C911997861731F1EC
:101330001A968C911A97861709F11B968C911B9718
:101340008617E1F0ED01E0E0F0E09E2F8E8188232A
:1013500021F4EA0FFB1F668306C09F5F319621963A
:10136000E630F10591F7963049F481E090E013966C
:101370009C938E93129720E030E007C0CD01149625
:10138000BD010E94020921E030E0C901DF91CF9147
:10139000089580E865E571E045E650E00E94A90403
:1013A0000895FC0180818F5F808380E86AEB71E0A3
:1013B00049E150E00E94A904089587FB082E062603
:1013C00087FD819567FD619505D00EF4919507FC29
:1013D00081950895991B79E004C0991F961708F02C
:1013E000961B881F7A95C9F780950895EE0FFF1F09
:0C13F0000590F491E02D0994F894FFCFD3
:1013FC000D0A003E3E3E3E000D0A280000E10000B2
:10140C0000000000010140726B21001B5B33306D4A
:10141C00000000000044030B04E3020A03F1026C19
:10142C0003700300000000B6080B045809150908E6
:02143C000900A5
:00000001FF
