:100000000C942D010C9455010C9455010C94550140
:100010000C9455010C9455010C9455010C94550108
:100020000C9455010C9455010C94F8050C947F0622
:100030000C9455010C9455010C9455010C945501E8
:100040000C9455010C9455010C9455010C945501D8
:100050000C9455010C9455010C9455010C94C8074F
:100060000C9455010C9455010C9455010C945501B8
:100070000C9455010C9455010C9455010C945501A8
:100080000C9455010C9455010C9455010C94550198
:100090000C9455010C9455010C9455010C94550188
:1000A0000C9455010C9455010C945501080B000259
:1000B0000202010009040000010202000005240000
:1000C0001001052401010104240206052406000193
:1000D0000705810310004009040100020A00000026
:1000E00007050202400000070583024000000403E8
:1000F00009042203410072006400750069006E006B
:100100006F0020004C0065006F006E0061007200FF
:1001100064006F00180341007200640075006900FC
:100120006E006F0020004C004C00430012010002E2
:10013000000000404123368000010102000112014D
:10014000000202000040412336800001010200014C
:1001500000C18081C105010902A1010901A1008539
:100160000105091901290315002501950375018170
:10017000029501750581030501093009310938151A
:1001800081257F750895038106C0C005010906A178
:10019000018502050719E029E7150025017501957C
:1001A00008810295017508810395067508150025DB
:1001B000650507190029658100C0090402000103D3
:1001C00000000009210101000122650007058403E8
:1001D00040000100000000000000002A2B28000061
:1001E000000000000000000000000000000000000F
:1001F0000000002C9EB4A0A1A2A434A6A7A5AE36F0
:100200002D3738271E1F20212223242526B333B65D
:100210002EB7B89F8485868788898A8B8C8D8E8F30
:10022000909192939495969798999A9B9C9D2F3133
:1002300030A3AD350405060708090A0B0C0D0E0F97
:10024000101112131415161718191A1B1C1DAFB113
:10025000B0B5000052033405F90811241FBECFEFDA
:10026000DAE0DEBFCDBF11E0A0E0B1E0E6E4F4E10A
:1002700002C005900D92AA34B107D9F712E0AAE4A2
:10028000B1E001C01D92A334B107E1F712E0CAE565
:10029000D2E004C02297FE010E941D0AC435D10796
:1002A000C9F70E941D040C94210A0C940000FB0164
:1002B000DC0101900D920020E1F7089588E280931F
:1002C0004F0180938F0110924B0186E192E060E82C
:1002D00075E20E9407030895EF92FF921F93DF9348
:1002E000CF93CDB7DEB727970FB6F894DEBF0FBE1A
:1002F000CDBF182F7E010894E11CF11CC70163E2F9
:1003000071E00E945701105D1C8386E192E0B70105
:100310000E947E0427960FB6F894DEBF0FBECDBFB5
:10032000CF91DF911F91FF90EF900895CF92DF92D0
:10033000EF92FF920F931F93FF24F39424E0C22EB9
:1003400092E1D92E82E0E82E01E186E192E00E945E
:100350000803892B09F400C186E192E00E942F0373
:10036000982F882309F4F8C0E091CF01EF3354F4BB
:10037000EF5FE093CF01FF27E7FDF095E15BFE4FD4
:10038000808308C0F092CF0180918E0180934F014D
:1003900090935001892F80538A3010F010E005C0EF
:1003A000C0924C01D0924E0112E1892F81528F30C0
:1003B00018F48750823050F4892F8B55863030F0F6
:1003C0008F5D873018F08154843028F4E0924C011E
:1003D00000934E0112E0892F81548A3338F4123091
:1003E00029F0F0924C0100934E0111E0983261F037
:1003F000993224F49D3009F073C023C0993281F002
:100400009F3709F06DC04BC083E080934C019093FF
:100410004D0180914A018F5F80934A0113E060C0D3
:1004200085E080934C0181E180934E0180914A01E7
:1004300087FD02C0815001C08FEF80934A0115E013
:100440004FC086E080934C0181E180934E0186E1AC
:1004500092E060E071E00E947E0410E008C0E15B81
:10046000FE4F86E192E060810E945A041F5FE12FF7
:10047000F0E08091CF01992787FD9095E817F90763
:1004800074F38FEF8093CF0188E280934D0186E172
:1004900092E060E071E00E947E0416E021C090913D
:1004A000CF019150E92FFF27E7FDF095E15BFE4F6B
:1004B000E081E83221F480914A01815005C0E9329F
:1004C00029F480914A018F5F80934A019150909363
:1004D000CF0186E192E063E071E00E947E0435CFB7
:1004E00080914C01833091F084302CF48130D9F02C
:1004F000823021F507C0853091F0853074F0863068
:10050000E9F416C082E00E946C0118C080914A0193
:1005100068E00E94020A892FF6CF86E0F4CF80912E
:100520004A0187FF02C089E0EECF87708F5FEBCF73
:1005300086E192E06BE071E00E947E041093D001AE
:10054000E091CF01FF27E7FDF095E15BFE4F86E1EB
:1005500092E060810E945A041F910F91FF90EF90EA
:10056000DF90CF90089580914B018430ACF580915D
:10057000D101882389F586E192E00E940803892B46
:1005800059F186E192E00E942F03882329F18735F3
:1005900051F088352CF48132B1F08034D9F405C0A3
:1005A0008736C1F40AC081E005C080914B018130DB
:1005B00089F482E080934B010FC080914B0182301F
:1005C00049F483E0F7CF80914B01833019F481E047
:1005D0008093D10110924B018091D1018823B1F019
:1005E00080914B01882381F486E192E06EE171E015
:1005F0000E947E0486E192E060E171E00E947E0448
:1006000080E280934B0108950E9496010895089519
:1006100020911202309113028091140290911502E0
:10062000281B390B2F733070C901089520911202D5
:100630003091130280911402909115022817390706
:1006400019F42FEF3FEF09C0E0911402F091150269
:10065000EE52FE4F8081282F30E0C901089520918D
:100660001202309113028091140290911502281702
:10067000390719F42FEF3FEF13C0E0911402F09106
:100680001502EE52FE4F20818091140290911502C6
:1006900001968F739070909315028093140230E04E
:1006A000C9010895109219021092180288EE93E081
:1006B000A0E0B0E080931A0290931B02A0931C026A
:1006C000B0931D028DE291E0909317028093160281
:1006D00008950F931F93DF93CF930F92CDB7DEB79B
:1006E0008C01698380911B01882369F083E0BE013E
:1006F0006F5F7F4F41E050E00E94530518161906C6
:1007000014F49C0107C081E090E0F8019383828398
:1007100020E030E0C9010F90CF91DF911F910F9140
:10072000089583E00E942A050895CF93DF9312C0B5
:1007300082E00E94B5042FEF8F3F9207C9F0E0914D
:100740001202F0911302EE52FE4F8083D0931302F7
:10075000C0931202C0911202D09113022196CF735E
:10076000D0708091140290911502C817D90701F733
:10077000DF91CF910895FC0180818E5F808380E8B6
:100780006CEA70E042E450E00E94CE040895FC015F
:1007900081819081913A59F4813209F04CC080E016
:1007A00064E171E047E050E00E94CE0442C0913223
:1007B00009F041C0803239F484E191E067E070E0F3
:1007C0000E94120536C0823209F035C082818093C2
:1007D0001B018091140190911501A0911601B09117
:1007E0001701805B9440A040B04019F580911B0137
:1007F00080FD12C087E797E7909301088093000877
:100800002BE088E190E00FB6F894A8958093600003
:100810000FBE209360000DC088E10FB6F89480935E
:100820006000109260000FBEA8951092010810920F
:10083000000881E0089580E00895CF93DF930E943F
:1008400069088CE292E00E9435050E945E01C0E0DA
:10085000D0E00E94B3022097E1F30E940000F9CF9C
:10086000CF92DF92EF92FF920F931F93CF93DF937C
:100870007C016B018A01C0E0D0E00FC0D6016D9110
:100880006D01D701ED91FC910190F081E02DC70140
:100890000995C80FD91F015010400115110571F7B6
:1008A000CE01DF91CF911F910F91FF90EF90DF90DC
:1008B000CF900895DC01ED91FC910190F081E02D45
:1008C00009950895CF93DF93EC016115710519F433
:1008D00020E030E00FC0DB010D900020E9F7119718
:1008E000A61BB70BE881F9810280F381E02DAD01F1
:1008F00009959C01C901DF91CF9108950E9462047E
:100900000895282F809126028823C1F057FF1AC02E
:1009100015C02898909325028091F1008193E217E9
:10092000F307B9F74115510539F08091F20088239A
:1009300019F48BE68093E800AFBF02C04FEF5FEF82
:10094000CA010895AFB7F89427702093E900809109
:10095000F200282F30E0241735070CF4A901FB0121
:100960009B01240F311D94E6DACFDF93CF930F92D2
:10097000CDB7DEB7BE016F5F7F4F41E050E00E9410
:100980008104019719F02FEF3FEF03C08981282FD1
:1009900030E0C9010F90CF91DF910895FF920F933E
:1009A0001F93F82E142F052F4091290250912A02EF
:1009B000212F302FC901DC01FB016EEF29C0F7FEAA
:1009C00002C0949101C090812091270230912802A9
:1009D00024173507ACF48091E8008570E1F380912D
:1009E000E80082FF03C02FEF3FEF17C09093F100A4
:1009F000C90101968F739070892B11F46093E80000
:100A00002F5F3F4F30932802209327021197319692
:100A10001097A9F6812F902F9C01C9011F910F916A
:100A2000FF9008959C018091E80082FFFCCFF901BE
:100A3000260F311D03C08091F1008193E217F30767
:100A4000D1F7289884E6809325028BEF8093E80005
:100A5000CB0108958093E9008091F200882319F07A
:100A60008AE38093E800089508951092260281E0B9
:100A70008093D70080EA8093D80082E189BD09B4D1
:100A800000FEFDCF61E070E080E090E00E94100881
:100A900080E98093D8008CE08093E2001092E0001F
:100AA000559A209A08955F926F927F928F929F92AB
:100AB000AF92BF92CF92DF92EF92FF920F931F936C
:100AC000CF93DF93E82E842E752E80912602882303
:100AD00071F18B01242F352FC901EC017AEFF72E2C
:100AE00067E0962E9E2050E4552E8E2D90E040E239
:100AF000A42EB12CA822B9223AE3632E20E4C22E00
:100B0000D12CC822D92258C09FB7F8949092E900FE
:100B10008091E80085FD02C020E004C08091F200D1
:100B2000252D281B9FBF222361F4FA9419F42FEF7F
:100B30003FEF4DC061E070E080E090E00E9410085F
:100B40003BC0822F90E0C817D9070CF42C2FC21B92
:100B5000D1094FB7F8949092E900A114B10421F49F
:100B600006C01092F10021502223D9F719C0E7FCEA
:100B700003C0F801922F10C0C801322F06C0FC013B
:100B80000196E491E093F10031503323C1F706C0A0
:100B900081918093F10091509923D1F7020F111D9B
:100BA0008091E80085FF05C0209729F4C114D10485
:100BB00011F06092E8004FBF209709F0A5CF5D9833
:100BC00084E680932402282D372DC9019C01C90198
:100BD000DF91CF911F910F91FF90EF90DF90CF9019
:100BE000BF90AF909F908F907F906F905F9008958F
:100BF0001F920F920FB60F9211242F933F934F9392
:100C00005F936F937F938F939F93AF93BF93EF9374
:100C1000FF938091E1001092E100982F83FF0FC0B5
:100C20001092E90081E08093EB001092EC0082E3E7
:100C30008093ED001092260288E08093F00092FFEE
:100C400034C083E08093E9008091F200882319F09A
:100C50008AE38093E8008FB7F89492E09093E900DC
:100C60009091F2008FBF992321F086E192E00E94DB
:100C7000950380912402882351F0809124028150B1
:100C80008093240280912402882309F45D9A809144
:100C90002502882351F080912502815080932502FE
:100CA00080912502882309F4289AFF91EF91BF9142
:100CB000AF919F918F917F916F915F914F913F91F4
:100CC0002F910F900FBE0F901F9018950F931F93A9
:100CD000DF93CF930F92CDB7DEB719828E010F5FEE
:100CE0001F4FC8010E94BB03C8010E94F6098981F9
:100CF00090E00F90CF91DF911F910F9108951F9277
:100D00000F920FB60F921124EF92FF921F932F9321
:100D10003F934F935F936F937F938F939F93AF9383
:100D2000BF93EF93FF93DF93CF93CDB7DEB7619778
:100D3000DEBFCDBF1092E9008091E80083FF0FC1B4
:100D4000FE0131969E01275F3F4F03C08091F10065
:100D50008193E217F307D1F7289884E68093250260
:100D600082EF8093E800998197FF05C08091E800A9
:100D700080FFFCCF03C08EEF8093E800292F30E086
:100D8000C90180769070892B09F0C2C08A818823BE
:100D900029F41092F1001092F100D6C0813009F4CC
:100DA000D3C0833009F4D0C0853049F48091E80085
:100DB00080FFFCCF8B8180688093E300C5C08630C4
:100DC00009F07CC01C81EF80F8841230C1F51092CC
:100DD000E900109228021092270210922A02109223
:100DE00029020E94660699E0FE013996DF01292F4B
:100DF0001D922A95E9F799871A8791E09E8790E8D6
:100E0000988B9AEF998B2091270230912802275FC7
:100E10003F4F3C872B878D871092E9001092280264
:100E200010922702F0922A02E092290280E0BF018C
:100E300049E050E00E94CE040E94660685C01092F0
:100E4000E9001092280210922702F0922A02E09202
:100E50002902123241F482E290E00E94EE09892BCD
:100E600009F476C071C0113079F488E0E816F10415
:100E700019F481E080932B0280912B02882309F0E2
:100E80006BC0ECE2F1E013C0133009F061C08B815C
:100E9000882319F4EEEEF0E00AC0823019F4E2EF94
:100EA000F0E005C0813009F053C0E4E1F1E0449185
:100EB00080E8BF0150E00E94CE0446C0873009F4AC
:100EC00047C0883021F481E08093F1003DC0893033
:100ED000D9F523703070232BD9F5E1E5F1E091E0ED
:100EE00031E026E39093E9003093EB008491809306
:100EF000EC002093ED009F5F3196953099F78EE7D7
:100F00008093EA001092EA008B81809326021CC035
:100F10008F8198851092E900109228021092270282
:100F200090932A02809329028D81882329F4CE018F
:100F300001960E94C70306C0823051F4CE0101968B
:100F40000E94BF08882321F08EEF8093E80007C03D
:100F500081E28093EB0003C0EEE3F1E0A8CF61965D
:100F6000DEBFCDBFCF91DF91FF91EF91BF91AF91E8
:100F70009F918F917F916F915F914F913F912F91B1
:100F80001F91FF90EF900F900FBE0F901F9018953C
:100F90001F920F920FB60F9211242F933F938F93AE
:100FA0009F93AF93BF938091310290913202A091B1
:100FB0003302B0913402309135020196A11DB11D6A
:100FC000232F2D5F2D3720F02D570196A11DB11D28
:100FD000209335028093310290933202A093330222
:100FE000B093340280912D0290912E02A0912F0295
:100FF000B09130020196A11DB11D80932D029093F6
:101000002E02A0932F02B0933002BF91AF919F9117
:101010008F913F912F910F900FBE0F901F901895B9
:101020009B01AC017FB7F89480912D0290912E0224
:10103000A0912F02B091300266B5A89B05C06F3F0A
:1010400019F00196A11DB11D7FBFBA2FA92F982FAE
:101050008827860F911DA11DB11D62E0880F991F81
:10106000AA1FBB1F6A95D1F7BC012DC0FFB7F8942A
:1010700080912D0290912E02A0912F02B09130020A
:10108000E6B5A89B05C0EF3F19F00196A11DB11D63
:10109000FFBFBA2FA92F982F88278E0F911DA11D52
:1010A000B11DE2E0880F991FAA1FBB1FEA95D1F777
:1010B000861B970B885E9340C8F221503040404019
:1010C000504068517C4F211531054105510571F69D
:1010D0000895789484B5826084BD84B5816084BDB0
:1010E00085B5826085BD85B5816085BDEEE6F0E0A1
:1010F000808181608083E1E8F0E0108280818260FD
:101100008083808181608083E0E8F0E0808181607D
:101110008083E1E9F0E0808182608083808181606A
:101120008083E0E9F0E0808181608083E1ECF0E0A1
:1011300080818460808380818260808380818160FF
:101140008083E3ECF0E0808181608083E0ECF0E07C
:10115000808182608083E2ECF0E080818160808326
:10116000EAE7F0E080818460808380818260808310
:101170008081816080838081806880830895FC0104
:1011800091818081813A31F4913089F080E093300F
:1011900089F40DC0813269F49B3021F482818093FF
:1011A0001C0105C09A3029F4828180931D0181E0E1
:1011B000089580E00895EF92FF920F931F938C01A2
:1011C000E62EDC01ED91FC910480F581E02D09957E
:1011D000F82ED801ED91FC910680F781E02DC80131
:1011E0006E2D09958F2D90E01F910F91FF90EF903C
:1011F00008951092360210923A02109239028FE34B
:1012000091E090933802809337020895EF92FF9215
:101210000F931F93DF93CF930F92CDB7DEB78983E0
:101220008B017A0184E0BE016F5F7F4F41E050E0A7
:101230000E94530584E4B801A7010E9453050F9052
:10124000CF91DF911F910F91FF90EF90089582E071
:1012500048E050E00E9406090895FC0116821782BA
:10126000108611861286138614823496BF010E945E
:1012700027090895DC01683810F0685829C0E62F66
:10128000F0E067FF13C0E058F04081E090E002C05A
:10129000880F991FEA95E2F7809514962C91149780
:1012A000282314962C93149760E012C0ED52FE4F41
:1012B0006491662319F420E030E01DC067FF08C088
:1012C00014968C9114978D7F14968C9314976F7746
:1012D000FD0190E0662321F08681861709F41682CD
:1012E0009F5F31969630B1F7CD011496BD010E94F3
:1012F000270921E030E0C9010895CF93DF93DC0195
:10130000683810F0685825C0E62FF0E067FF12C07B
:10131000E058F04081E090E002C0880F991FEA9504
:10132000E2F714962C911497282B14962C9314976B
:1013300060E00FC0ED52FE4F64916623D9F167FF64
:1013400008C014968C911497826014968C9314970D
:101350006F7716968C9116978617A9F117968C9130
:101360001797861781F118968C911897861759F15F
:1013700019968C911997861731F11A968C911A97B4
:10138000861709F11B968C911B978617E1F0ED01EA
:10139000E0E0F0E09E2F8E81882321F4EA0FFB1F0E
:1013A000668306C09F5F31962196E630F10591F77E
:1013B000963049F481E090E013969C938E931297B7
:1013C00020E030E007C0CD011496BD010E9427093E
:1013D00021E030E0C901DF91CF91089580E865E513
:1013E00071E045E650E00E94CE040895FC01808142
:1013F0008F5F808380E86AEB71E049E150E00E94F2
:10140000CE04089587FB082E062687FD819567FD8B
:10141000619505D00EF4919507FC81950895991B6F
:1014200079E004C0991F961708F0961B881F7A95DB
:10143000C9F780950895EE0FFF1F0590F491E02DF8
:061440000994F894FFCFAF
:101446000D0A001B5B44201B5B44001B5B306D00D8
:101456000D0A280000E100000000000001014072B2
:101466006B21001B5B33306D000000000069033008
:101476000408032F0316039103950300000000DB05
:0A1486000830047D093A092D090021
:00000001FF
