:100000000C9435000C945D000C945D000C945D0024
:100010000C945D000C945D000C945D000C945D00EC
:100020000C945D000C945D000C945D000C945D00DC
:100030000C945D000C945D000C945D000C945D00CC
:100040000C9414050C945D000C94A4020C94F20220
:100050000C945D000C945D000C945D000C945D00AC
:100060000C945D000C945D005E0411241FBECFEF64
:10007000D8E0DEBFCDBF11E0A0E0B1E0E2E8FBE0F8
:1000800002C005900D92A835B107D9F712E0A8E596
:10009000B1E001C01D92A139B107E1F710E0CAE655
:1000A000D0E004C02297FE010E94BB05C836D107EC
:1000B000C9F70E94B4040C94BF050C940000FB0126
:1000C000DC0101900D920020E1F7089588E2809311
:1000D0005B0180939B011092590186E692E040E813
:1000E00055E260E070E00E942D030895EF92FF92C8
:1000F0001F93DF93CF93CDB7DEB727970FB6F89452
:10010000DEBF0FBECDBF182F7E010894E11CF11C8D
:10011000C70162E471E00E945F00105D1C8386E607
:1001200092E0B7010E94110527960FB6F894DEBF42
:100130000FBECDBFCF91DF911F91FF90EF9008953B
:100140000F931F9301E086E692E00E94B403892B8F
:1001500009F4A2C186E692E00E94E503982F882365
:1001600009F49AC1E091DB01EF3354F4EF5FE093BF
:10017000DB01FF27E7FDF095E55AFE4F808308C0BD
:100180000093DB0180919A0180935B0190935C0165
:1001900030915A0120913C0110E0223119F4B6C08F
:1001A00021E106C0243109F4B7C0213109F0C5C0EE
:1001B000892F80538A3018F414E030E022E1892F2F
:1001C00081528F3018F48750823050F4892F8B552C
:1001D000863030F08F5D873018F08154843008F419
:1001E00012E0892F81548A3318F4123009F011E09B
:1001F000923289F0933234F49D3079F1903209F0E3
:100200009CC059C09932D1F09F3709F45AC0983236
:1002100009F093C004C015E430E024E17DC02093D0
:100220003C018CE080933B0181E080935A018091F6
:1002300058018F5F8093580113E083C030935A01B7
:1002400020933C018091580187FD02C0815001C07C
:100250008FEF8093580115E074C030935A012093BA
:100260003C0186E692E06BE071E00E94110586E6B3
:1002700092E060E171E00E94110510E008C0E55ACB
:10028000FE4F86E692E060810E94ED041F5FE12F41
:10029000F0E08091DB01992787FD9095E817F90739
:1002A00074F38FEF8093DB0186E692E060E171E00A
:1002B0000E94110504C020933C0110925A0116E0DF
:1002C00040C030935A0120933C019091DB01915042
:1002D000E92FFF27E7FDF095E55AFE4FE081E83270
:1002E00021F480915801815005C0E93229F48091B0
:1002F00058018F5F8093580191509093DB0186E6FF
:1003000092E063E171E00E9411051DCF892F8053B7
:100310008A3008F045CF11C030935A0120933C0138
:10032000153411F417E00DC0923259F481E1809335
:100330003C0183E00E94760088C030935A012093EC
:100340003C01812F8150823068F48091DC01815022
:10035000823028F480915A0191E0892701C081E020
:1003600080935A011230E9F48091DC018130C9F4A4
:1003700080915A018823A9F486E692E06BE171E04E
:100380000E94110582E00E947600E091DB01FF27C8
:10039000E7FDF095E65AFE4F86E692E060810E9406
:1003A000ED0480913C01813111F4163019F48EE096
:1003B00080933B01143021F115303CF41230C1F030
:1003C0001330C4F4113079F507C0163031F116300E
:1003D000DCF0173041F516C08091DC01823021F449
:1003E00080915A01882321F087E00E9476001BC08B
:1003F00082E0FBCF80915801181654F48770F5CF36
:1004000086E0F3CF83E0F1CF8091580187FF02C0EF
:1004100089E0EBCF87708F5FE8CF86E692E06BE0F4
:1004200071E00E94110580913B018C3019F08E30F3
:1004300061F405C086E692E06FE171E004C086E6F3
:1004400092E065E271E00E94110580915A018823D3
:1004500029F086E692E06BE271E004C086E692E065
:1004600060E371E00E941105E091DB01FF27E7FDE9
:10047000F095E55AFE4F86E692E060810E94ED0419
:100480001093DC0180915A01882331F4115012300D
:1004900018F48EE080933B011F910F910895809195
:1004A00059018430ACF58091DD01882389F586E619
:1004B00092E00E94B403892B59F186E692E00E94F3
:1004C000E503882329F1873551F088352CF48132F2
:1004D000B1F08034D9F405C08736C1F40AC081E098
:1004E00005C080915901813089F482E080935901DF
:1004F0000FC080915901823049F483E0F7CF809199
:100500005901833019F481E08093DD011092590183
:100510008091DD018823B1F080915901882381F415
:1005200086E692E06DE371E00E94110586E692E0B6
:1005300066E371E00E9411058CE0809359010895F3
:100540000E94A000089508951F920F920FB60F9277
:1005500011242F933F934F938F939F93EF93FF9388
:100560008091C00082FD1DC04091C60020911E02F6
:1005700030911F022F5F3F4F2F7330708091200208
:10058000909121022817390771F0E0911E02F09135
:100590001F02E252FE4F408330931F0220931E023F
:1005A00002C08091C600FF91EF919F918F914F9172
:1005B0003F912F910F900FBE0F901F901895E091D3
:1005C0007202F0917302E05CFF4F81919191208162
:1005D0003181821B930B8F739070892B11F00E94D5
:1005E000A30208951F920F920FB60F9211242F931A
:1005F0003F938F939F93EF93FF93209162023091EB
:10060000630280916402909165022817390731F4E2
:100610008091C1008F7D8093C10014C0E09164027D
:10062000F0916502EE5DFD4F208180916402909112
:10063000650201968F7390709093650280936402B7
:100640002093C600FF91EF919F918F913F912F9141
:100650000F900FBE0F901F901895AF92BF92DF9230
:10066000EF92FF920F931F93CF93DF93EC017A01E8
:100670008B01DD24403081EE580780E0680780E080
:10068000780711F0DD24D39491E0A92EB12CEC89E8
:10069000FD89DD2069F0C50108A002C0880F991FFF
:1006A0000A94E2F7808360E079E08DE390E005C092
:1006B000108260E874E88EE190E0A80197010E9442
:1006C000970521503040404050405695479537950A
:1006D000279580E12030380720F0DD2011F0DD245F
:1006E000D6CFE889F9893083EA89FB89208319A26A
:1006F000EE89FF89408121E030E0C9010C8C02C005
:10070000880F991F0A94E2F7482B4083EE89FF89EE
:100710004081C9010D8C02C0880F991F0A94E2F72D
:10072000482B4083EE89FF894081C9010E8C02C0AD
:10073000880F991F0A94E2F7482B4083EE89FF89BE
:1007400080810F8C02C0220F331F0A94E2F720959C
:1007500028232083DF91CF911F910F91FF90EF907D
:10076000DF90BF90AF900895DC011C96ED91FC9155
:100770001D97E05CFF4F2191319180819181281B71
:10078000390B2F733070C9010895DC011C96ED916F
:10079000FC911D97E05CFF4F20813181E054F040D7
:1007A000DF01AE5BBF4F8D919C91119728173907E0
:1007B00019F42FEF3FEF07C08D919C91E80FF91FBF
:1007C0008081282F30E0C9010895DC011C96ED914D
:1007D000FC911D97E05CFF4F20813181E054F04097
:1007E000DF01AE5BBF4F8D919C91119728173907A0
:1007F00019F42FEF3FEF10C08D919C911197E80FE6
:10080000F91F20818D919C91119701968F739070A3
:1008100011969C938E9330E0C9010895DC01919666
:100820008C919197882339F05496ED91FC915597CE
:10083000808186FFF9CF91961C920895CF93DF9324
:10084000EC01EE85FF85E05CFF4F20813181E054B3
:10085000F0402F5F3F4F2F733070DF01AE5BBF4F13
:100860008D919C91119728173907D1F3E05CFF4FC8
:1008700080819181E054F040E80FF91F6083EE859C
:10088000FF85E05CFF4F31832083EE89FF89208163
:1008900081E090E00F8C02C0880F991F0A94E2F764
:1008A000282B208381E089A3EC89FD8980818064E5
:1008B000808381E090E0DF91CF91089510926902EA
:1008C0001092680288EE93E0A0E0B0E080936A02A4
:1008D00090936B02A0936C02B0936D028CE491E054
:1008E00090936702809366028EED91E0909373027D
:1008F0008093720282E292E0909375028093740278
:1009000085EC90E0909377028093760284EC90E0FF
:10091000909379028093780280EC90E090937B0230
:1009200080937A0281EC90E090937D0280937C0228
:1009300082EC90E090937F0280937E0286EC90E0C0
:10094000909381028093800284E08093820283E00E
:100950008093830287E08093840285E08093850200
:1009600081E0809386020895CF93DF930E945C0517
:100970000E946600CFEDD2E00E944F022097E1F383
:100980000E94DF02F9CFCF92DF92EF92FF920F9396
:100990001F93CF93DF937C016B018A01C0E0D0E00D
:1009A0000FC0D6016D916D01D701ED91FC910190C1
:1009B000F081E02DC7010995C80FD91F01501040E3
:1009C0000115110571F7CE01DF91CF911F910F91A4
:1009D000FF90EF90DF90CF900895DC01ED91FC91B6
:1009E0000190F081E02D09950895CF93DF93EC01FC
:1009F0006115710519F420E030E00FC0DB010D90A6
:100A00000020E9F71197A61BB70BE881F981028056
:100A1000F381E02DAD0109959C01C901DF91CF91D2
:100A200008950E94F50408951F920F920FB60F9239
:100A300011242F933F938F939F93AF93BF938091F4
:100A40008C0290918D02A0918E02B0918F02309114
:100A500090020196A11DB11D232F2D5F2D3720F08F
:100A60002D570196A11DB11D2093900280938C02F9
:100A700090938D02A0938E02B0938F028091880292
:100A800090918902A0918A02B0918B020196A11DDA
:100A9000B11D8093880290938902A0938A02B0933B
:100AA0008B02BF91AF919F918F913F912F910F90AA
:100AB0000FBE0F901F901895789484B5826084BD06
:100AC00084B5816084BD85B5826085BD85B5816052
:100AD00085BDEEE6F0E0808181608083E1E8F0E0B2
:100AE0001082808182608083808181608083E0E8E1
:100AF000F0E0808181608083E1EBF0E080818460C0
:100B00008083E0EBF0E0808181608083EAE7F0E0C1
:100B10008081846080838081826080838081816025
:100B200080838081806880831092C1000895A1E253
:100B30001A2EAA1BBB1BFD010DC0AA1FBB1FEE1F57
:100B4000FF1FA217B307E407F50720F0A21BB30BA2
:100B5000E40BF50B661F771F881F991F1A9469F71E
:100B600060957095809590959B01AC01BD01CF017A
:100B70000895EE0FFF1F0590F491E02D0994F8946D
:020B8000FFCFA5
:100B82001B5B41001B5B441B5B42001B5B306D0027
:100B92000D0A001B5B44201B5B44001B5B44001BD3
:100BA2005B34306D001B5B34396D001B5B346D00B0
:100BB2001B5B32346D000D0A0A28000C1140726B67
:100BC20021001B5B33306D00000000001E04C304D3
:080BD200B403E503C5030E04A2
:00000001FF
