:100000000C9435000C945D000C945D000C945D0024
:100010000C945D000C945D000C945D000C945D00EC
:100020000C945D000C945D000C945D000C945D00DC
:100030000C945D000C945D000C945D000C945D00CC
:100040000C949E040C945D000C942E020C947C0283
:100050000C945D000C945D000C945D000C945D00AC
:100060000C945D000C945D00E80311241FBECFEFDB
:10007000D8E0DEBFCDBF11E0A0E0B1E0E6E9FAE0F4
:1000800002C005900D92A233B107D9F712E0A2E3A6
:10009000B1E001C01D92AB36B107E1F710E0CAE64E
:1000A000D0E004C02297FE010E944505C836D10762
:1000B000C9F70E943E040C9449050C940000FB0112
:1000C000DC0101900D920020E1F7089588E2809311
:1000D0003401809374011092330180E492E040E88F
:1000E00055E260E070E00E94B7020895EF92FF923F
:1000F0001F93DF93CF93CDB7DEB727970FB6F89452
:10010000DEBF0FBECDBF182F7E010894E11CF11C8D
:10011000C7016BE171E00E945F00105D1C8380E409
:1001200092E0B7010E949B0427960FB6F894DEBFB9
:100130000FBECDBFCF91DF911F91FF90EF9008953B
:10014000FF920F931F9380E492E00E943E03892B5D
:1001500009F42BC180E492E00E946F03182F8823DA
:1001600009F423C1E091B401EF3354F4EF5FE0935D
:10017000B401FF27E7FDF095EC5CFE4F808309C0DA
:1001800081E08093B40180917301809334011093D6
:100190003501E091B501EF3354F4EF5FE093B50121
:1001A000FF27E7FDF095EC58FE4F108309C081E072
:1001B0008093B5018091B301809374011093750110
:1001C000103221F01C3211F000E001C006E0812F56
:1001D00080538A3020F486E00E94760002E1812F6D
:1001E00081528F3018F48750823068F4812F8B55FC
:1001F000863048F08F5D873030F08154843018F0BD
:10020000FF24F39405C0F090150181E0F82602E088
:10021000812F81548A3358F40230A9F0F0901501EF
:1002200081E0F82689E00E94760001E002C00230F9
:1002300051F08091B601823049F4013039F4809157
:100240001501882319F482E00E947600183231F0FB
:100250001932A1F01D3009F04DC025C080E1809316
:100260003301809132018F5F8093320118160CF0B8
:100270009AC087708F5F0E94760095C0809132018E
:10028000181654F487708F5F0E94760080913201B7
:1002900081508093320105C089E00E94760010925F
:1002A000320105E046C080E492E060E071E00E9427
:1002B0009B0410E008C0EC5CFE4F80E492E060819B
:1002C0000E9477041F5FE12FF0E08091B40199272D
:1002D00087FD9095E817F90774F31092B40188E24E
:1002E0008093340180E492E060E071E00E949B041E
:1002F00006E01FC00230E9F48091B6018130C9F4F4
:10030000809115018823A9F480E492E063E071E014
:100310000E949B0482E00E947600E091B401FF27D6
:10032000E7FDF095ED5CFE4F80E492E060810E9475
:10033000770480913301803141F4033031F080E45F
:1003400092E067E071E00E949B048091B6018231E7
:1003500041F4023131F080E492E06CE071E00E94FF
:100360009B04E091B401FF27E7FDF095EC5CFE4FA4
:1003700080E492E060810E947704809133018031B3
:1003800069F480911501882349F480E492E06CE0DF
:1003900071E00E949B0481E1809333010093B601D8
:1003A000F092150102C003E0C4CF1F910F91FF909E
:1003B0000895809133018430ACF58091B701882392
:1003C00089F580E492E00E943E03892B59F180E494
:1003D00092E00E946F03882329F1873551F0883518
:1003E0002CF48132B1F08034D9F405C08736C1F4E1
:1003F0000AC081E005C080913301813089F482E038
:10040000809333010FC080913301823049F483E03F
:10041000F7CF80913301833019F481E08093B701E5
:10042000109233018091B7018823B1F0809133019C
:10043000882381F480E492E066E171E00E949B04ED
:1004400080E492E061E171E00E949B0480E180938E
:10045000330108950E94A000089508951F920F92FD
:100460000FB60F9211242F933F934F938F939F9327
:10047000EF93FF938091C00082FD1DC04091C600A4
:100480002091F8013091F9012F5F3F4F2F733070A9
:100490008091FA019091FB012817390771F0E091E2
:1004A000F801F091F901E854FE4F40833093F901CF
:1004B0002093F80102C08091C600FF91EF919F91B7
:1004C0008F914F913F912F910F900FBE0F901F90E2
:1004D0001895E0914C02F0914D02E05CFF4F819144
:1004E000919120813181821B930B8F739070892BA6
:1004F00011F00E942D0208951F920F920FB60F92D5
:1005000011242F933F938F939F93EF93FF93209109
:100510003C0230913D0280913E0290913F022817AB
:10052000390731F48091C1008F7D8093C10014C0E0
:10053000E0913E02F0913F02E450FE4F2081809115
:100540003E0290913F0201968F73907090933F020C
:1005500080933E022093C600FF91EF919F918F916F
:100560003F912F910F900FBE0F901F901895AF9253
:10057000BF92DF92EF92FF920F931F93CF93DF937F
:10058000EC017A018B01DD24403081EE580780E0D8
:10059000680780E0780711F0DD24D39491E0A92E5C
:1005A000B12CEC89FD89DD2069F0C50108A002C0ED
:1005B000880F991F0A94E2F7808360E079E08DE369
:1005C00090E005C0108260E874E88EE190E0A80138
:1005D00097010E94210521503040404050405695DF
:1005E00047953795279580E12030380720F0DD20AA
:1005F00011F0DD24D6CFE889F9893083EA89FB89B7
:10060000208319A2EE89FF89408121E030E0C901F1
:100610000C8C02C0880F991F0A94E2F7482B408384
:10062000EE89FF894081C9010D8C02C0880F991F96
:100630000A94E2F7482B4083EE89FF894081C90183
:100640000E8C02C0880F991F0A94E2F7482B408352
:10065000EE89FF8980810F8C02C0220F331F0A941C
:10066000E2F7209528232083DF91CF911F910F91EE
:10067000FF90EF90DF90BF90AF900895DC011C9643
:10068000ED91FC911D97E05CFF4F219131918081AC
:100690009181281B390B2F733070C9010895DC013B
:1006A0001C96ED91FC911D97E05CFF4F20813181FC
:1006B000E054F040DF01AE5BBF4F8D919C911197EC
:1006C0002817390719F42FEF3FEF07C08D919C9140
:1006D000E80FF91F8081282F30E0C9010895DC015F
:1006E0001C96ED91FC911D97E05CFF4F20813181BC
:1006F000E054F040DF01AE5BBF4F8D919C911197AC
:100700002817390719F42FEF3FEF10C08D919C91F6
:100710001197E80FF91F20818D919C9111970196F7
:100720008F73907011969C938E9330E0C901089559
:10073000DC0191968C919197882339F05496ED9134
:10074000FC915597808186FFF9CF91961C92089570
:10075000CF93DF93EC01EE85FF85E05CFF4F2081B6
:100760003181E054F0402F5F3F4F2F733070DF0135
:10077000AE5BBF4F8D919C91119728173907D1F32C
:10078000E05CFF4F80819181E054F040E80FF91F59
:100790006083EE85FF85E05CFF4F31832083EE8927
:1007A000FF89208181E090E00F8C02C0880F991FA3
:1007B0000A94E2F7282B208381E089A3EC89FD8944
:1007C00080818064808381E090E0DF91CF91089503
:1007D000109243021092420288EE93E0A0E0B0E053
:1007E0008093440290934502A0934602B09347023F
:1007F00085E291E0909341028093400288EB91E082
:1008000090934D0280934C028CEF91E090934F02B5
:1008100080934E0285EC90E09093510280935002B9
:1008200084EC90E0909353028093520280EC90E02D
:10083000909355028093540281EC90E0909357027C
:100840008093560282EC90E0909359028093580274
:1008500086EC90E090935B0280935A0284E0809350
:100860005C0283E080935D0287E080935E0285E016
:1008700080935F0281E0809360020895CF93DF93BD
:100880000E94E6040E946600C9E6D2E00E94D901F7
:100890002097E1F30E946902F9CFCF92DF92EF92A5
:1008A000FF920F931F93CF93DF937C016B018A011B
:1008B000C0E0D0E00FC0D6016D916D01D701ED9180
:1008C000FC910190F081E02DC7010995C80FD91F57
:1008D000015010400115110571F7CE01DF91CF9144
:1008E0001F910F91FF90EF90DF90CF900895DC0162
:1008F000ED91FC910190F081E02D09950895CF9341
:10090000DF93EC016115710519F420E030E00FC0B0
:10091000DB010D900020E9F71197A61BB70BE881CA
:10092000F9810280F381E02DAD0109959C01C90197
:10093000DF91CF9108950E947F0408951F920F9236
:100940000FB60F9211242F933F938F939F93AF93E2
:10095000BF938091660290916702A0916802B09166
:10096000690230916A020196A11DB11D232F2D5FEE
:100970002D3720F02D570196A11DB11D20936A023D
:100980008093660290936702A0936802B093690215
:100990008091620290916302A0916402B09165021D
:1009A0000196A11DB11D8093620290936302A093F2
:1009B0006402B0936502BF91AF919F918F913F9177
:1009C0002F910F900FBE0F901F901895789484B5BB
:1009D000826084BD84B5816084BD85B5826085BD3B
:1009E00085B5816085BDEEE6F0E080818160808321
:1009F000E1E8F0E010828081826080838081816004
:100A00008083E0E8F0E0808181608083E1EBF0E0CA
:100A1000808184608083E0EBF0E08081816080836E
:100A2000EAE7F0E080818460808380818260808357
:100A30008081816080838081806880831092C10082
:100A40000895A1E21A2EAA1BBB1BFD010DC0AA1F0F
:100A5000BB1FEE1FFF1FA217B307E407F50720F027
:100A6000A21BB30BE40BF50B661F771F881F991FA2
:100A70001A9469F760957095809590959B01AC01EB
:100A8000BD01CF010895EE0FFF1F0590F491E02DF9
:060A90000994F894FFCF69
:100A96000D0A001B5B44001B5B346D001B5B306D55
:100AA600000D0A28000140726B21001B5B33306D7C
:100AB6000000000000A8034D043E036F034F039897
:020AC60003002B
:00000001FF
