:100000000C9435000C945D000C945D000C945D0024
:100010000C945D000C945D000C945D000C945D00EC
:100020000C945D000C945D000C945D000C945D00DC
:100030000C945D000C945D000C945D000C945D00CC
:100040000C9496050C945D000C9426030C94740398
:100050000C945D000C945D000C945D000C945D00AC
:100060000C945D000C945D00E00411241FBECFEFE2
:10007000D8E0DEBFCDBF11E0A0E0B1E0E6E8FCE0F3
:1000800002C005900D92A435B107D9F712E0A4E59E
:10009000B1E001C01D92A739B107E1F710E0CAE64F
:1000A000D0E004C02297FE010E943D06C836D10769
:1000B000C9F70E9436050C9441060C940000FB0120
:1000C000DC0101900D920020E1F7089588E2809311
:1000D00062018093A2011092550110925B0181E0B0
:1000E00080935D019CE090935E0180935F0110928C
:1000F0006001109261011092540180935601909317
:100100005701809358011092590110925A018CE6C0
:1001100092E040E855E260E070E00E94AF0308958D
:10012000EF92FF921F93DF93CF93CDB7DEB7279760
:100130000FB6F894DEBF0FBECDBF182F7E01089416
:10014000E11CF11CC7016EE371E00E945F00105DCD
:100150001C838CE692E0B7010E94930527960FB6A8
:10016000F894DEBF0FBECDBFCF91DF911F91FF90FE
:10017000EF9008950F931F93082F1092590110913B
:100180005601E091E201113001F5EF3354F4EF5FD5
:10019000E093E201FF27E7FDF095EE59FE4F8083E3
:1001A00017C081E00E9490008CE692E06AE20E9413
:1001B0006F0589E00E9490001093E2018091A101F7
:1001C000809362010093630103C0EF5FE093E2015B
:1001D0000F3709F044C004C030E022E094E0FCC0D6
:1001E0000091560180915B018093540180915E01E2
:1001F0008093570180915F01809358018091600145
:10020000809359018091610180935A0184E0809329
:1002100056018CE692E06BE071E00E9493058091BC
:10022000E20187FDB1C1182F11501092E20117FDB4
:100230000EC0E091E201FF27E7FDF095EE59FE4F79
:1002400080810E94BA008091E201811794F380912D
:10025000E20181508093E2010093560195C13091F3
:100260005A012091590190915801923009F4AEC081
:10027000933024F4913009F0D1C007C0943009F4D0
:10028000ABC0983009F0CAC0BAC0802F80538A3002
:1002900010F091E003C030E028E092E0802F81521E
:1002A0008F3018F48750823050F4802F8B55863071
:1002B00030F08F5D873018F08154843008F422E0EC
:1002C000802F81548A3318F4223009F021E0023261
:1002D00009F482CF033234F40D3071F1003209F0A9
:1002E0009DC06DC00932A1F00B3319F1083209F03D
:1002F00095C09093580184E0809359018CE08093DD
:10030000570181E080935A01809154018F5F0EC0A4
:1003100030935A019093580180E180935901809164
:10032000540187FD02C0815001C08FEF80935401BA
:100330007BC030E098E066C030935A01909358013A
:100340008091540180935B018091560180935D01FF
:100350008091570180935E0190935F01209360012B
:100360003093610180E2809359018CE692E060E174
:1003700071E00E9493058CE692E065E171E00E94D5
:10038000930510E008C0EE59FE4F8CE692E06081C4
:100390000E946F051F5FE12FF0E08091E201992735
:1003A00087FD9095E817F90774F38FEF8093E201CA
:1003B0008CE692E065E171E00E94930535C0909370
:1003C00058010093590110925A012EC0802F80537A
:1003D0008A3008F05ACF22C030935A012093590135
:1003E00090935801223039F0023229F481E0809351
:1003F000580183E010C080E48093590115C00D308E
:1004000009F443CF30935A01209359019093580136
:100410000B3351F480E00E9490008FC030935A015A
:10042000209359019093580120915901822F9927C7
:1004300087FD909583709070892B89F08091E301FE
:10044000992787FD909583709070892B29F0809172
:100450005A0191E0892701C081E080935A0122303E
:10046000E9F48091E3018130C9F480915A01882335
:10047000A9F48CE692E068E171E00E94930582E0C5
:100480000E949000E091E201FF27E7FDF095EF590F
:10049000FE4F8CE692E060810E946F0580915801CA
:1004A000813021F480915901803219F48EE08093DB
:1004B0005701809159018430D1F085302CF481307E
:1004C00051F0823041F511C08031D9F08034B9F05B
:1004D000883009F512C08091E301823021F48091C7
:1004E0005A01882311F087E014C082E012C0809185
:1004F0005401181654F487700CC086E00AC083E0DB
:1005000008C08091540187FF02C089E002C0877053
:100510008F5F0E949000809157018C3019F08E30CF
:1005200061F405C08CE692E06CE171E004C08CE6F9
:1005300092E062E271E00E94930580915A01882363
:1005400029F08CE692E068E271E004C08CE692E06B
:100550006DE271E00E9493058CE692E0602F0E94AC
:100560006F05909159019093E30180915A0188237E
:1005700059F4892F992787FD909583709070892B66
:1005800019F08EE0809357011F910F91089580918B
:1005900055018430ACF580913801882389F58CE6CB
:1005A00092E00E943604892B59F18CE692E00E9479
:1005B0006704882329F1873551F088352CF481327E
:1005C000B1F08034D9F405C08736C1F40AC081E0A7
:1005D00005C080915501813089F482E080935501F6
:1005E0000FC080915501823049F483E0F7CF8091AC
:1005F0005501833019F481E0809338011092550140
:1006000080913801882301F180915501882381F47C
:100610008CE692E069E371E00E9493058CE692E03B
:1006200063E371E00E9493058CE080935501089587
:100630008CE692E00E943604892B31F08CE692E041
:100640000E9467040E94BA00089508951F920F92B5
:100650000FB60F9211242F933F934F938F939F9335
:10066000EF93FF938091C00082FD1DC04091C600B2
:1006700020912402309125022F5F3F4F2F7330705D
:1006800080912602909127022817390771F0E09196
:100690002402F0912502EC51FE4F40833093250255
:1006A0002093240202C08091C600FF91EF919F9198
:1006B0008F914F913F912F910F900FBE0F901F90F0
:1006C0001895E0917802F0917902E05CFF4F8191FA
:1006D000919120813181821B930B8F739070892BB4
:1006E00011F00E94250308951F920F920FB60F92EA
:1006F00011242F933F938F939F93EF93FF93209118
:1007000068023091690280916A0290916B02281709
:10071000390731F48091C1008F7D8093C10014C0EE
:10072000E0916A02F0916B02E85DFD4F20818091BB
:100730006A0290916B0201968F73907090936B0296
:1007400080936A022093C600FF91EF919F918F9151
:100750003F912F910F900FBE0F901F901895AF9261
:10076000BF92DF92EF92FF920F931F93CF93DF938D
:10077000EC017A018B01DD24403081EE580780E0E6
:10078000680780E0780711F0DD24D39491E0A92E6A
:10079000B12CEC89FD89DD2069F0C50108A002C0FB
:1007A000880F991F0A94E2F7808360E079E08DE377
:1007B00090E005C0108260E874E88EE190E0A80146
:1007C00097010E94190621503040404050405695F4
:1007D00047953795279580E12030380720F0DD20B8
:1007E00011F0DD24D6CFE889F9893083EA89FB89C5
:1007F000208319A2EE89FF89408121E030E0C90100
:100800000C8C02C0880F991F0A94E2F7482B408392
:10081000EE89FF894081C9010D8C02C0880F991FA4
:100820000A94E2F7482B4083EE89FF894081C90191
:100830000E8C02C0880F991F0A94E2F7482B408360
:10084000EE89FF8980810F8C02C0220F331F0A942A
:10085000E2F7209528232083DF91CF911F910F91FC
:10086000FF90EF90DF90BF90AF900895DC011C9651
:10087000ED91FC911D97E05CFF4F219131918081BA
:100880009181281B390B2F733070C9010895DC0149
:100890001C96ED91FC911D97E05CFF4F208131810A
:1008A000E054F040DF01AE5BBF4F8D919C911197FA
:1008B0002817390719F42FEF3FEF07C08D919C914E
:1008C000E80FF91F8081282F30E0C9010895DC016D
:1008D0001C96ED91FC911D97E05CFF4F20813181CA
:1008E000E054F040DF01AE5BBF4F8D919C911197BA
:1008F0002817390719F42FEF3FEF10C08D919C9105
:100900001197E80FF91F20818D919C911197019605
:100910008F73907011969C938E9330E0C901089567
:10092000DC0191968C919197882339F05496ED9142
:10093000FC915597808186FFF9CF91961C9208957E
:10094000CF93DF93EC01EE85FF85E05CFF4F2081C4
:100950003181E054F0402F5F3F4F2F733070DF0143
:10096000AE5BBF4F8D919C91119728173907D1F33A
:10097000E05CFF4F80819181E054F040E80FF91F67
:100980006083EE85FF85E05CFF4F31832083EE8935
:10099000FF89208181E090E00F8C02C0880F991FB1
:1009A0000A94E2F7282B208381E089A3EC89FD8952
:1009B00080818064808381E090E0DF91CF91089511
:1009C00010926F0210926E0288EE93E0A0E0B0E009
:1009D0008093700290937102A0937202B09373029D
:1009E00088E491E090936D0280936C0284EE91E034
:1009F000909379028093780288E292E090937B0250
:100A000080937A0285EC90E090937D0280937C0243
:100A100084EC90E090937F0280937E0280EC90E0E3
:100A2000909381028093800281EC90E09093830206
:100A30008093820282EC90E09093850280938402FE
:100A400086EC90E0909387028093860284E0809306
:100A5000880283E08093890287E080938A0285E0A0
:100A600080938B0281E080938C020895CF93DF9373
:100A70000E94DE050E946600C1E6D3E00E94C70224
:100A80002097E1F30E946103F9CFCF92DF92EF92BA
:100A9000FF920F931F93CF93DF937C016B018A0129
:100AA000C0E0D0E00FC0D6016D916D01D701ED918E
:100AB000FC910190F081E02DC7010995C80FD91F65
:100AC000015010400115110571F7CE01DF91CF9152
:100AD0001F910F91FF90EF90DF90CF900895DC0170
:100AE000ED91FC910190F081E02D09950895CF934F
:100AF000DF93EC016115710519F420E030E00FC0BF
:100B0000DB010D900020E9F71197A61BB70BE881D8
:100B1000F9810280F381E02DAD0109959C01C901A5
:100B2000DF91CF9108950E94770508951F920F924B
:100B30000FB60F9211242F933F938F939F93AF93F0
:100B4000BF938091920290919302A0919402B091F0
:100B50009502309196020196A11DB11D232F2D5FA4
:100B60002D3720F02D570196A11DB11D209396021F
:100B70008093920290939302A0939402B093950273
:100B800080918E0290918F02A0919002B09191027B
:100B90000196A11DB11D80938E0290938F02A093A8
:100BA0009002B0939102BF91AF919F918F913F912D
:100BB0002F910F900FBE0F901F901895789484B5C9
:100BC000826084BD84B5816084BD85B5826085BD49
:100BD00085B5816085BDEEE6F0E08081816080832F
:100BE000E1E8F0E010828081826080838081816012
:100BF0008083E0E8F0E0808181608083E1EBF0E0D9
:100C0000808184608083E0EBF0E08081816080837C
:100C1000EAE7F0E080818460808380818260808365
:100C20008081816080838081806880831092C10090
:100C30000895A1E21A2EAA1BBB1BFD010DC0AA1F1D
:100C4000BB1FEE1FFF1FA217B307E407F50720F035
:100C5000A21BB30BE40BF50B661F771F881F991FB0
:100C60001A9469F760957095809590959B01AC01F9
:100C7000BD01CF010895EE0FFF1F0590F491E02D07
:060C80000994F894FFCF77
:100C86001B5B41001B5B441B5B42000D1B5B4B0067
:100C96001B5B306D000D0A001B5B44001B5B343090
:100CA6006D001B5B34396D001B5B346D001B5B32C2
:100CB600346D000D0A0A28000140726B21001B5B8F
:100CC60033306D0000000000A004450536046704BB
:040CD600470490043B
:00000001FF
