:100000000C9435000C945D000C945D000C945D0024
:100010000C945D000C945D000C945D000C945D00EC
:100020000C945D000C945D000C945D000C945D00DC
:100030000C945D000C945D000C945D000C945D00CC
:100040000C9480040C945D000C9410020C945E02DD
:100050000C945D000C945D000C945D000C945D00AC
:100060000C945D000C945D00CA0311241FBECFEFF9
:10007000D8E0DEBFCDBF11E0A0E0B1E0ECE8FAE0EF
:1000800002C005900D92A033B107D9F712E0A0E3AA
:10009000B1E001C01D92AB36B107E1F710E0CAE64E
:1000A000D0E004C02297FE010E944005C836D10767
:1000B000C9F70E9420040C9444050C940000FB0135
:1000C000DC0101900D920020E1F7089588E2809311
:1000D0003501809375011092310180E492E040E88F
:1000E00055E260E070E00E9499020895EF92FF925D
:1000F0001F93DF93CF93CDB7DEB727970FB6F89452
:10010000DEBF0FBECDBF182F7E010894E11CF11C8D
:10011000C70169E171E00E945F00105D1C8380E40B
:1001200092E0B7010E947D0427960FB6F894DEBFD7
:100130000FBECDBFCF91DF911F91FF90EF9008953B
:10014000CF92DF92EF92FF920F931F93FF24F394CD
:1001500024E0C22E92E1D92E82E0E82E01E180E473
:1001600092E00E942003892B09F4FEC080E492E013
:100170000E945103982F882309F4F6C0E091B5013D
:10018000EF3354F4EF5FE093B501FF27E7FDF095FF
:10019000EB5CFE4F808308C0F092B5018091740142
:1001A0008093350190933601892F80538A3010F067
:1001B00010E005C0C0923201D092340112E1892FC3
:1001C00081528F3018F48750823050F4892F8B552C
:1001D000863030F08F5D873018F08154843028F4F9
:1001E000E09232010093340112E0892F81548A3366
:1001F00038F4123029F0F09232010093340111E00A
:10020000983261F0993224F49D3009F071C023C016
:10021000993281F09F3709F06BC049C083E0809329
:10022000320190933301809130018F5F80933001D0
:1002300013E05EC085E08093320181E18093340158
:100240008091300187FD02C0815001C08FEF809303
:10025000300115E04DC081E18093340180E492E0EB
:1002600060E071E00E947D0410E008C0EB5CFE4F8E
:1002700080E492E060810E9459041F5FE12FF0E06A
:100280008091B501992787FD9095E817F90774F3D8
:100290001092B50188E2809335018093330180E4A8
:1002A00092E060E071E00E947D0416E021C0909130
:1002B000B5019150E92FFF27E7FDF095EB5CFE4F6C
:1002C000E081E83221F480913001815005C0E932AB
:1002D00029F4809130018F5F809330019150909389
:1002E000B50180E492E063E071E00E947D0437CFC5
:1002F00080913201833091F084302CF48130D9F038
:10030000823021F507C0853091F0853074F0863059
:10031000E9F416C082E00E94760018C08091300196
:1003200068E00E940305892FF6CF86E0F4CF809124
:10033000300187FF02C089E0EECF87708F5FEBCF7F
:1003400080E492E06BE071E00E947D041093B601BE
:10035000E091B501FF27E7FDF095EB5CFE4F80E4EF
:1003600092E060810E9459041F910F91FF90EF90DD
:10037000DF90CF900895809131018430ACF5809169
:10038000B701882389F580E492E00E942003892B3D
:1003900059F180E492E00E945103882329F18735C6
:1003A00051F088352CF48132B1F08034D9F405C095
:1003B0008736C1F40AC081E005C0809131018130E7
:1003C00089F482E0809331010FC080913101823045
:1003D00049F483E0F7CF80913101833019F481E053
:1003E0008093B701109231018091B7018823B1F059
:1003F00080913101882381F480E492E064E171E02E
:100400000E947D0480E492E060E171E00E947D043E
:1004100080E28093310108950E94A000089508951C
:100420001F920F920FB60F9211242F933F934F9369
:100430008F939F93EF93FF938091C00082FD1DC027
:100440004091C6002091F8013091F9012F5F3F4F94
:100450002F7330708091FA019091FB0128173907B2
:1004600071F0E091F801F091F901E854FE4F4083FA
:100470003093F9012093F80102C08091C600FF91EA
:10048000EF919F918F914F913F912F910F900FBEC0
:100490000F901F901895E0914C02F0914D02E05C96
:1004A000FF4F8191919120813181821B930B8F733A
:1004B0009070892B11F00E940F0208951F920F92E5
:1004C0000FB60F9211242F933F938F939F93EF9327
:1004D000FF9320913C0230913D0280913E02909129
:1004E0003F022817390731F48091C1008F7D809336
:1004F000C10014C0E0913E02F0913F02E450FE4F73
:10050000208180913E0290913F0201968F739070FE
:1005100090933F0280933E022093C600FF91EF919B
:100520009F918F913F912F910F900FBE0F901F9031
:100530001895AF92BF92DF92EF92FF920F931F93A5
:10054000CF93DF93EC017A018B01DD24403081EE03
:10055000580780E0680780E0780711F0DD24D39425
:1005600091E0A92EB12CEC89FD89DD2069F0C5014F
:1005700008A002C0880F991F0A94E2F7808360E008
:1005800079E08DE390E005C0108260E874E88EE1C8
:1005900090E0A80197010E94100521503040404092
:1005A0005040569547953795279580E1203038077C
:1005B00020F0DD2011F0DD24D6CFE889F9893083E1
:1005C000EA89FB89208319A2EE89FF89408121E015
:1005D00030E0C9010C8C02C0880F991F0A94E2F721
:1005E000482B4083EE89FF894081C9010D8C02C0F0
:1005F000880F991F0A94E2F7482B4083EE89FF8900
:100600004081C9010E8C02C0880F991F0A94E2F73D
:10061000482B4083EE89FF8980810F8C02C0220F16
:10062000331F0A94E2F7209528232083DF91CF918E
:100630001F910F91FF90EF90DF90BF90AF900895C2
:10064000DC011C96ED91FC911D97E05CFF4F219120
:10065000319180819181281B390B2F733070C90132
:100660000895DC011C96ED91FC911D97E05CFF4F15
:1006700020813181E054F040DF01AE5BBF4F8D91AE
:100680009C9111972817390719F42FEF3FEF07C0F6
:100690008D919C91E80FF91F8081282F30E0C901CE
:1006A0000895DC011C96ED91FC911D97E05CFF4FD5
:1006B00020813181E054F040DF01AE5BBF4F8D916E
:1006C0009C9111972817390719F42FEF3FEF10C0AD
:1006D0008D919C911197E80FF91F20818D919C912C
:1006E000119701968F73907011969C938E9330E0C2
:1006F000C9010895DC0191968C919197882339F076
:100700005496ED91FC915597808186FFF9CF919693
:100710001C920895CF93DF93EC01EE85FF85E05C9A
:10072000FF4F20813181E054F0402F5F3F4F2F7306
:100730003070DF01AE5BBF4F8D919C9111972817F0
:100740003907D1F3E05CFF4F80819181E054F040A4
:10075000E80FF91F6083EE85FF85E05CFF4F318372
:100760002083EE89FF89208181E090E00F8C02C018
:10077000880F991F0A94E2F7282B208381E089A330
:10078000EC89FD8980818064808381E090E0DF9145
:10079000CF910895109243021092420288EE93E0A6
:1007A000A0E0B0E08093440290934502A0934602FB
:1007B000B093470283E291E090934102809340021C
:1007C00088EB91E090934D0280934C028CEF91E086
:1007D00090934F0280934E0285EC90E090935102EB
:1007E0008093500284EC90E09093530280935202E5
:1007F00080EC90E0909355028093540281EC90E05D
:10080000909357028093560282EC90E090935902A5
:100810008093580286EC90E090935B0280935A029A
:1008200084E080935C0283E080935D0287E08093A4
:100830005E0285E080935F0281E08093600208950C
:10084000CF93DF930E94C8040E946600CBE4D2E0FD
:100850000E94BB012097E1F30E944B02F9CFCF9297
:10086000DF92EF92FF920F931F93CF93DF937C0160
:100870006B018A01C0E0D0E00FC0D6016D916D011F
:10088000D701ED91FC910190F081E02DC701099510
:10089000C80FD91F015010400115110571F7CE0185
:1008A000DF91CF911F910F91FF90EF90DF90CF904C
:1008B0000895DC01ED91FC910190F081E02D099506
:1008C0000895CF93DF93EC016115710519F420E0D1
:1008D00030E00FC0DB010D900020E9F71197A61B57
:1008E000B70BE881F9810280F381E02DAD01099514
:1008F0009C01C901DF91CF9108950E946104089580
:100900001F920F920FB60F9211242F933F938F9344
:100910009F93AF93BF938091660290916702A091DD
:100920006802B091690230916A020196A11DB11D61
:10093000232F2D5F2D3720F02D570196A11DB11DBE
:1009400020936A028093660290936702A0936802E4
:10095000B09369028091620290916302A091640257
:10096000B09165020196A11DB11D80936202909322
:100970006302A0936402B0936502BF91AF919F910F
:100980008F913F912F910F900FBE0F901F90189550
:10099000789484B5826084BD84B5816084BD85B55A
:1009A000826085BD85B5816085BDEEE6F0E0808121
:1009B00081608083E1E8F0E0108280818260808342
:1009C000808181608083E0E8F0E0808181608083C5
:1009D000E1EBF0E0808184608083E0EBF0E08081F7
:1009E00081608083EAE7F0E0808184608083808199
:1009F0008260808380818160808380818068808341
:100A00001092C100089587FB082E062687FD819568
:100A100067FD619527D00EF4919507FC81950895A7
:100A2000A1E21A2EAA1BBB1BFD010DC0AA1FBB1FF2
:100A3000EE1FFF1FA217B307E407F50720F0A21B64
:100A4000B30BE40BF50B661F771F881F991F1A94D1
:100A500069F760957095809590959B01AC01BD01FB
:100A6000CF010895991B79E004C0991F961708F0EB
:100A7000961B881F7A95C9F780950895EE0FFF1F82
:0C0A80000590F491E02D0994F894FFCF4C
:100A8C000D0A001B5B44201B5B44001B5B306D009C
:100A9C000D0A280040726B21001B5B33306D000087
:100AAC000000008A032F042003510331037A030052
:00000001FF
