:100000000C9435000C945D000C945D000C945D0024
:100010000C945D000C945D000C945D000C945D00EC
:100020000C945D000C945D000C945D000C945D00DC
:100030000C945D000C945D000C945D000C945D00CC
:100040000C94F1040C945D000C9481020C94CF028A
:100050000C945D000C945D000C945D000C945D00AC
:100060000C945D000C945D003B0411241FBECFEF87
:10007000D8E0DEBFCDBF11E0A0E0B1E0ECE3FBE0F3
:1000800002C005900D92AC33B107D9F712E0ACE392
:10009000B1E001C01D92A637B107E1F710E0CAE652
:1000A000D0E004C02297FE010E949805C836D1070F
:1000B000C9F70E9491040C949C050C940000FB016C
:1000C000DC0101900D920020E1F7089588E2809311
:1000D00040018093800110923D018BE492E040E862
:1000E00055E260E070E00E940A030895EF92FF92EB
:1000F0001F93DF93CF93CDB7DEB727970FB6F89452
:10010000DEBF0FBECDBF182F7E010894E11CF11C8D
:10011000C70166E271E00E945F00105D1C838BE402
:1001200092E0B7010E94EE0427960FB6F894DEBF66
:100130000FBECDBFCF91DF911F91FF90EF9008953B
:100140000F931F9301E08BE492E00E949103892BAF
:1001500009F47FC18BE492E00E94C203982F8823A8
:1001600009F477C1E091C001EF3354F4EF5FE093FD
:10017000C001FF27E7FDF095E05CFE4F808308C0DB
:100180000093C00180917F018093400190934101D1
:1001900040913F0130913E0150911F01209120017B
:1001A00010E0223121F4C3C05EE021E106C023311A
:1001B00009F4C3C0213109F0DAC0892F80538A3095
:1001C00010F061E104C012E140E034E062E1892F07
:1001D00081528F3018F48750823050F4892F8B551C
:1001E000863030F08F5D873018F08154843018F4F9
:1001F00061E112E032E0892F81548A3328F4123011
:1002000019F011E031E001C0262F983291F09932B7
:1002100034F49D30A1F1923209F0A9C006C09932A0
:10022000C9F09F3709F0A3C059C040E030E023E196
:1002300084C040933F012093200183E080933E01DE
:100240008CE080931F0180913C018F5F80933C0183
:1002500013E095C040933F0150931F0185E08093C8
:100260003E0181E18093200180913C0187FD02C025
:10027000815001C08FEF80933C0115E080C0409316
:100280003F0150931F0186E080933E0181E18093FE
:1002900020018BE492E060E071E00E94EE0410E047
:1002A00008C0E05CFE4F8BE492E060810E94CA04CB
:1002B0001F5FE12FF0E08091C001992787FD9095A5
:1002C000E817F90774F38FEF8093C0018BE492E095
:1002D00060E071E00E94EE0416E051C040933F01DF
:1002E00030933E0150931F01209320019091C00153
:1002F0009150E92FFF27E7FDF095E05CFE4FE0818C
:10030000E83221F480913C01815005C0E93229F4A2
:1003100080913C018F5F80933C0191509093C0018C
:100320008BE492E063E071E00E94EE040CCF892F31
:1003300080538A3008F038CF1AC040933F01309381
:100340003E0150931F0120932001332321F487E0C5
:1003500080933E0114C0923291F481E18093200198
:1003600083E00E9476008EE080931F014FC040938F
:100370003F0130933E0150931F0120932001809153
:100380002001813191F480913E018150823068F4E6
:1003900080913F01882319F010923F0106C081E04F
:1003A00080933F018EE080931F0180913E01843055
:1003B000D1F085303CF4823061F0833074F48130C8
:1003C00029F519C08630E1F086308CF08730F1F4E1
:1003D0000CC082E00E94760019C080913C01181682
:1003E00054F48770F7CF86E0F5CF83E0F3CF8091A8
:1003F0003C0187FF02C089E0EDCF87708F5FEACFB5
:100400008BE492E06BE071E00E94EE04812F81505A
:10041000823010F010923F0180913F01882329F033
:100420008BE492E060E171E004C08BE492E065E16E
:1004300071E00E94EE041093C101E091C001FF271A
:10044000E7FDF095E05CFE4F8BE492E060810E9456
:10045000CA041F910F91089580913D018430ACF53D
:100460008091C201882389F58BE492E00E94910378
:10047000892B59F18BE492E00E94C203882329F171
:10048000873551F088352CF48132B1F08034D9F4BD
:1004900005C08736C1F40AC081E005C080913D01E6
:1004A000813089F482E080933D010FC080913D014D
:1004B000823049F483E0F7CF80913D01833019F415
:1004C00081E08093C20110923D018091C201882396
:1004D000B1F080913D01882381F48BE492E061E2E8
:1004E00071E00E94EE048BE492E06BE171E00E9407
:1004F000EE048CE080933D0108950E94A0000895D1
:1005000008951F920F920FB60F9211242F933F93CD
:100510004F938F939F93EF93FF938091C00082FD41
:100520001DC04091C60020910302309104022F5F4C
:100530003F4F2F733070809105029091060228176B
:10054000390771F0E0910302F0910402ED53FE4F80
:100550004083309304022093030202C08091C600BE
:10056000FF91EF919F918F914F913F912F910F901C
:100570000FBE0F901F901895E0915702F09158020E
:10058000E05CFF4F8191919120813181821B930B1F
:100590008F739070892B11F00E94800208951F9232
:1005A0000F920FB60F9211242F933F938F939F9327
:1005B000EF93FF93209147023091480280914902C6
:1005C00090914A022817390731F48091C1008F7D3C
:1005D0008093C10014C0E0914902F0914A02E95FA2
:1005E000FD4F20818091490290914A0201968F73BC
:1005F000907090934A02809349022093C600FF9125
:10060000EF919F918F913F912F910F900FBE0F907F
:100610001F901895AF92BF92DF92EF92FF920F93C7
:100620001F93CF93DF93EC017A018B01DD244030DF
:1006300081EE580780E0680780E0780711F0DD243C
:10064000D39491E0A92EB12CEC89FD89DD2069F0CD
:10065000C50108A002C0880F991F0A94E2F78083A1
:1006600060E079E08DE390E005C0108260E874E816
:100670008EE190E0A80197010E947405215030405E
:1006800040405040569547953795279580E120305A
:10069000380720F0DD2011F0DD24D6CFE889F98974
:1006A0003083EA89FB89208319A2EE89FF89408182
:1006B00021E030E0C9010C8C02C0880F991F0A9418
:1006C000E2F7482B4083EE89FF894081C9010D8CF8
:1006D00002C0880F991F0A94E2F7482B4083EE89E5
:1006E000FF894081C9010E8C02C0880F991F0A94AE
:1006F000E2F7482B4083EE89FF8980810F8C02C08E
:10070000220F331F0A94E2F7209528232083DF91DC
:10071000CF911F910F91FF90EF90DF90BF90AF901E
:100720000895DC011C96ED91FC911D97E05CFF4F54
:100730002191319180819181281B390B2F73307069
:10074000C9010895DC011C96ED91FC911D97E05CB8
:10075000FF4F20813181E054F040DF01AE5BBF4F9D
:100760008D919C9111972817390719F42FEF3FEFBE
:1007700007C08D919C91E80FF91F8081282F30E0F0
:10078000C9010895DC011C96ED91FC911D97E05C78
:10079000FF4F20813181E054F040DF01AE5BBF4F5D
:1007A0008D919C9111972817390719F42FEF3FEF7E
:1007B00010C08D919C911197E80FF91F20818D91A8
:1007C0009C91119701968F73907011969C938E93C4
:1007D00030E0C9010895DC0191968C9191978823AE
:1007E00039F05496ED91FC915597808186FFF9CFB1
:1007F00091961C920895CF93DF93EC01EE85FF85CF
:10080000E05CFF4F20813181E054F0402F5F3F4F8B
:100810002F733070DF01AE5BBF4F8D919C911197AC
:1008200028173907D1F3E05CFF4F80819181E054B4
:10083000F040E80FF91F6083EE85FF85E05CFF4F15
:1008400031832083EE89FF89208181E090E00F8C45
:1008500002C0880F991F0A94E2F7282B208381E0B9
:1008600089A3EC89FD8980818064808381E090E0A8
:10087000DF91CF91089510924E0210924D0288EEB2
:1008800093E0A0E0B0E080934F0290935002A093D9
:100890005102B093520280E391E090934C02809316
:1008A0004B0283EC91E0909358028093570287E0CB
:1008B00092E090935A028093590285EC90E09093D5
:1008C0005C0280935B0284EC90E090935E028093E4
:1008D0005D0280EC90E09093600280935F0281EC77
:1008E00090E0909362028093610282EC90E090939A
:1008F00064028093630286EC90E09093660280939A
:10090000650284E08093670283E08093680287E059
:100910008093690285E080936A0281E080936B0294
:100920000895CF93DF930E9439050E946600CCEBB7
:10093000D2E00E942C022097E1F30E94BC02F9CF82
:10094000CF92DF92EF92FF920F931F93CF93DF939B
:100950007C016B018A01C0E0D0E00FC0D6016D912F
:100960006D01D701ED91FC910190F081E02DC7015F
:100970000995C80FD91F015010400115110571F7D5
:10098000CE01DF91CF911F910F91FF90EF90DF90FB
:10099000CF900895DC01ED91FC910190F081E02D64
:1009A00009950895CF93DF93EC016115710519F452
:1009B00020E030E00FC0DB010D900020E9F7119737
:1009C000A61BB70BE881F9810280F381E02DAD0110
:1009D00009959C01C901DF91CF9108950E94D2042D
:1009E00008951F920F920FB60F9211242F933F93E9
:1009F0008F939F93AF93BF938091710290917202F6
:100A0000A0917302B0917402309175020196A11DFC
:100A1000B11D232F2D5F2D3720F02D570196A11DDD
:100A2000B11D209375028093710290937202A0937E
:100A30007302B093740280916D0290916E02A09146
:100A40006F02B09170020196A11DB11D80936D02DD
:100A500090936E02A0936F02B0937002BF91AF911A
:100A60009F918F913F912F910F900FBE0F901F90EC
:100A70001895789484B5826084BD84B5816084BD06
:100A800085B5826085BD85B5816085BDEEE6F0E007
:100A9000808181608083E1E8F0E010828081826063
:100AA0008083808181608083E0E8F0E080818160E4
:100AB0008083E1EBF0E0808184608083E0EBF0E014
:100AC000808181608083EAE7F0E0808184608083B8
:100AD0008081826080838081816080838081806862
:100AE00080831092C1000895A1E21A2EAA1BBB1B9D
:100AF000FD010DC0AA1FBB1FEE1FFF1FA217B307EA
:100B0000E407F50720F0A21BB30BE40BF50B661FFF
:100B1000771F881F991F1A9469F7609570958095C3
:100B200090959B01AC01BD01CF010895EE0FFF1F11
:0C0B30000590F491E02D0994F894FFCF9B
:100B3C000D0A001B5B44201B5B44001B5B306D00EB
:100B4C001B5B346D001B5B32346D000D0A28000CEE
:100B5C001140726B21001B5B33306D0000000000F4
:0C0B6C00FB03A0049103C203A203EB03EF
:00000001FF
