:100000000C9435000C945D000C945D000C945D0024
:100010000C945D000C945D000C945D000C945D00EC
:100020000C945D000C945D000C945D000C945D00DC
:100030000C945D000C945D000C945D000C945D00CC
:100040000C942D050C945D000C9419020C9467021D
:100050000C945D000C945D000C945D000C945D00AC
:100060000C945D000C945D00D30311241FBECFEFF0
:10007000D8E0DEBFCDBF11E0A0E0B1E0E2EFFBE0F1
:1000800002C005900D92A633B107D9F712E0A6E39E
:10009000B1E001C01D92AE32B107E1F710E0CAE64F
:1000A000D0E004C02297FE010E94F305C836D107B4
:1000B000C9F70E9429040C94F7050C940000FB0179
:1000C000DC0101900D920020E1F708950F931F933A
:1000D00088E2809338011092370103E012E0C801F2
:1000E00040E855E260E070E00E94A20240911501F4
:1000F000509116016091170170911801C8012AE012
:1001000030E00E94EA041F910F910895EF92FF9250
:100110001F93DF93CF93CDB7DEB727970FB6F89431
:10012000DEBF0FBECDBF182F7E010894E11CF11C6D
:10013000C7016FE171E00E945F00105D1C8383E0E6
:1001400092E0B7010E942A0527960FB6F894DEBF09
:100150000FBECDBFCF91DF911F91FF90EF9008951B
:10016000FF920F931F9383E092E00E942903892B53
:1001700009F406C183E092E00E945A03182F8823F5
:1001800009F4FEC089E00E948600E0917801EF3317
:1001900054F4EF5FE0937801FF27E7FDF095E85C0A
:1001A000FE4F108309C081E0809378018091770130
:1001B0008093380110933901103221F01C3211F074
:1001C00000E001C006E0812F80538A3020F486E0F1
:1001D0000E94860004E0812F81528F3018F48750EE
:1001E000823068F4812F8B55863048F08F5D8730E0
:1001F00030F08154843018F0FF24F39405C0F0905F
:10020000190181E0F82602E0812F81548A3340F4FD
:10021000023091F0F090190181E0F82601E002C06F
:10022000023051F080917901823049F4013039F483
:1002300080911901882319F482E00E948600183207
:1002400031F01932A1F01D3009F04DC025C080E118
:1002500080933701809136018F5F809336011816A5
:100260000CF08CC087708F5F0E94860087C08091E1
:100270003601181654F487708F5F0E9486008091B3
:10028000360181508093360105C089E00E948600C6
:100290001092360105E046C083E092E060E071E034
:1002A0000E942A0510E008C0E85CFE4F83E092E05F
:1002B00060810E9462041F5FE12FF0E0809178016D
:1002C000992787FD9095E817F90774F31092780144
:1002D00088E28093380183E092E060E071E00E9460
:1002E0002A0506E01FC00230E9F4809179018130CF
:1002F000C9F4809119018823A9F483E092E063E0B6
:1003000071E00E942A0582E00E948600E091780157
:10031000FF27E7FDF095E95CFE4F83E092E0608106
:100320000E94620480913701803131F483E092E0D1
:1003300067E071E00E942A05E0917801FF27E7FD60
:10034000F095E85CFE4F83E092E060810E946204D9
:1003500080913701803169F480911901882349F433
:1003600083E092E06CE071E00E942A0581E18093D5
:10037000370100937901F092190102C003E0D2CF56
:100380001F910F91FF900895809137018430A8F557
:1003900080917A01882389F583E092E00E94290305
:1003A000892B59F183E092E00E945A03882329F1B6
:1003B000873551F088352CF48132B1F08034D9F48E
:1003C00005C08736C1F40AC081E005C080913701BD
:1003D000813089F482E0809337010FC0809137012A
:1003E000823049F483E0F7CF80913701833019F4EC
:1003F00081E080937A011092370180917A018823FD
:10040000B1F080913701882381F483E092E06AE1C2
:1004100071E00E942A0583E092E061E171E00E94B0
:100420002A0580E18093370108950E94B000089565
:1004300008951F920F920FB60F9211242F933F939E
:100440004F938F939F93EF93FF938091C00082FD12
:100450001DC04091C6002091BB013091BC012F5FAF
:100460003F4F2F7330708091BD019091BE012817CE
:10047000390771F0E091BB01F091BC01E558FE4FE6
:1004800040833093BC012093BB0102C08091C60021
:10049000FF91EF919F918F914F913F912F910F90ED
:1004A0000FBE0F901F901895E0910F02F09110026F
:1004B000E05CFF4F8191919120813181821B930BF0
:1004C0008F739070892B11F00E94180208951F926B
:1004D0000F920FB60F9211242F933F938F939F93F8
:1004E000EF93FF932091FF01309100028091010270
:1004F000909102022817390731F48091C1008F7D55
:100500008093C10014C0E0910102F0910202E15415
:10051000FE4F2081809101029091020201968F731B
:10052000907090930202809301022093C600FF9185
:10053000EF919F918F913F912F910F900FBE0F9050
:100540001F901895AF92BF92DF92EF92FF920F9398
:100550001F93CF93DF93EC017A018B01DD244030B0
:1005600081EE580780E0680780E0780711F0DD240D
:10057000D39491E0A92EB12CEC89FD89DD2069F09E
:10058000C50108A002C0880F991F0A94E2F7808372
:1005900060E079E08DE390E005C0108260E874E8E7
:1005A0008EE190E0A80197010E94CF0521503040D4
:1005B00040405040569547953795279580E120302B
:1005C000380720F0DD2011F0DD24D6CFE889F98945
:1005D0003083EA89FB89208319A2EE89FF89408153
:1005E00021E030E0C9010C8C02C0880F991F0A94E9
:1005F000E2F7482B4083EE89FF894081C9010D8CC9
:1006000002C0880F991F0A94E2F7482B4083EE89B5
:10061000FF894081C9010E8C02C0880F991F0A947E
:10062000E2F7482B4083EE89FF8980810F8C02C05E
:10063000220F331F0A94E2F7209528232083DF91AD
:10064000CF911F910F91FF90EF90DF90BF90AF90EF
:100650000895DC011C96ED91FC911D97E05CFF4F25
:100660002191319180819181281B390B2F7330703A
:10067000C9010895DC011C96ED91FC911D97E05C89
:10068000FF4F20813181E054F040DF01AE5BBF4F6E
:100690008D919C9111972817390719F42FEF3FEF8F
:1006A00007C08D919C91E80FF91F8081282F30E0C1
:1006B000C9010895DC011C96ED91FC911D97E05C49
:1006C000FF4F20813181E054F040DF01AE5BBF4F2E
:1006D0008D919C9111972817390719F42FEF3FEF4F
:1006E00010C08D919C911197E80FF91F20818D9179
:1006F0009C91119701968F73907011969C938E9395
:1007000030E0C9010895DC0191968C91919788237E
:1007100039F05496ED91FC915597808186FFF9CF81
:1007200091961C920895CF93DF93EC01EE85FF859F
:10073000E05CFF4F20813181E054F0402F5F3F4F5C
:100740002F733070DF01AE5BBF4F8D919C9111977D
:1007500028173907D1F3E05CFF4F80819181E05485
:10076000F040E80FF91F6083EE85FF85E05CFF4FE6
:1007700031832083EE89FF89208181E090E00F8C16
:1007800002C0880F991F0A94E2F7282B208381E08A
:1007900089A3EC89FD8980818064808381E090E079
:1007A000DF91CF910895109206021092050288EE13
:1007B00093E0A0E0B0E08093070290930802A0933A
:1007C0000902B0930A0289E291E0909304028093B7
:1007D00003028BE791E09093100280930F028FEB5E
:1007E00091E0909312028093110285EC90E0909337
:1007F00014028093130284EC90E09093160280938D
:10080000150280EC90E0909318028093170281EC1F
:1008100090E090931A028093190282EC90E09093FA
:100820001C0280931B0286EC90E090931E02809342
:100830001D0284E080931F0283E08093200287E002
:100840008093210285E08093220281E0809323023D
:100850000895CF93DF930E9475050E946600C4E55A
:10086000D2E00E94C4012097E1F30E945402F9CF24
:10087000CF92DF92EF92FF920F931F93CF93DF936C
:100880007C016B018A01C0E0D0E00FC0D6016D9100
:100890006D01D701ED91FC910190F081E02DC70130
:1008A0000995C80FD91F015010400115110571F7A6
:1008B000CE01DF91CF911F910F91FF90EF90DF90CC
:1008C000CF900895DC01ED91FC910190F081E02D35
:1008D00009950895CF93DF93EC016115710519F423
:1008E00020E030E00FC0DB010D900020E9F7119708
:1008F000A61BB70BE881F9810280F381E02DAD01E1
:1009000009959C01C901DF91CF9108954F925F92A3
:100910007F928F929F92AF92BF92CF92DF92EF928F
:10092000FF920F931F93DF93CF93CDB7DEB7A197BD
:100930000FB6F894DEBF0FBECDBF2C01742ECB01D5
:10094000223008F42AE019A231E2C32ED12CCC0EB9
:10095000DD1E822E9924AA24BB24672D752FA501A4
:1009600094010E94CF0579018A01C801B701A50150
:1009700094010E94B005472D461B0894C108D10878
:100980004A3014F4405D01C0495CF6014083E11433
:10099000F1040105110521F07E2C5F2DC801DDCF8A
:1009A000C201B6010E946A04A1960FB6F894DEBF98
:1009B0000FBECDBFCF91DF911F910F91FF90EF90B0
:1009C000DF90CF90BF90AF909F908F907F905F907F
:1009D0004F900895CF92DF92EF92FF920F931F9363
:1009E000CF93DF93EC016A017B012115310541F4BE
:1009F000E881F9810190F081E02D642F09951FC0F5
:100A00002A303105D1F477FF17C0E881F9810190D0
:100A1000F081E02D6DE209958C0144275527BA013C
:100A20004C195D096E097F09CE012AE00E948604F7
:100A30009801280F391F04C02AE00E9486049C01F7
:100A4000C901DF91CF911F910F91FF90EF90DF903F
:100A5000CF9008950E946A0408951F920F920FB6D6
:100A60000F9211242F933F938F939F93AF93BF9334
:100A70008091290290912A02A0912B02B0912C0220
:100A800030912D020196A11DB11D232F2D5F2D3711
:100A900020F02D570196A11DB11D20932D028093AA
:100AA000290290932A02A0932B02B0932C028091EA
:100AB000250290912602A0912702B091280201966A
:100AC000A11DB11D8093250290932602A0932702B9
:100AD000B0932802BF91AF919F918F913F912F9139
:100AE0000F900FBE0F901F901895789484B5826078
:100AF00084BD84B5816084BD85B5826085BD85B5C2
:100B0000816085BDEEE6F0E0808181608083E1E870
:100B1000F0E01082808182608083808181608083A8
:100B2000E0E8F0E0808181608083E1EBF0E08081AB
:100B300084608083E0EBF0E0808181608083EAE77D
:100B4000F0E0808184608083808182608083808106
:100B5000816080838081806880831092C1000895C5
:100B6000629FD001739FF001829FE00DF11D649F91
:100B7000E00DF11D929FF00D839FF00D749FF00D1D
:100B8000659FF00D9927729FB00DE11DF91F639FBE
:100B9000B00DE11DF91FBD01CF0111240895A1E29F
:100BA0001A2EAA1BBB1BFD010DC0AA1FBB1FEE1FE7
:100BB000FF1FA217B307E407F50720F0A21BB30B32
:100BC000E40BF50B661F771F881F991F1A9469F7AE
:100BD00060957095809590959B01AC01BD01CF010A
:100BE0000895EE0FFF1F0590F491E02D0994F894FD
:020BF000FFCF35
:100BF2000D0A001B5B44001B5B346D001B5B306DF8
:100C0200000D0A28002D0000000140726B21001B1C
:100C12005B33306D00000000009303380429035A4F
:060C2200033A0383030006
:00000001FF
